{
  "_format": "hh-sol-artifact-1",
  "contractName": "BlockchainBrawlers",
  "sourceName": "contracts/BlockchainBrawlers.sol",
  "abi": [
    {
      "inputs": [
        {
          "internalType": "string[]",
          "name": "_brawlerName",
          "type": "string[]"
        },
        {
          "internalType": "string[]",
          "name": "_brawlerImageURI",
          "type": "string[]"
        },
        {
          "internalType": "uint256[]",
          "name": "_brawlerTotalHP",
          "type": "uint256[]"
        },
        {
          "internalType": "uint256[]",
          "name": "_brawlerDamage",
          "type": "uint256[]"
        },
        {
          "internalType": "uint256[]",
          "name": "_brawlerDefence",
          "type": "uint256[]"
        },
        {
          "internalType": "uint256[]",
          "name": "_brawlerCritChance",
          "type": "uint256[]"
        },
        {
          "internalType": "enum BlockchainBrawlers.SpecialMoveTypes[]",
          "name": "_brawlerSpecialMove",
          "type": "uint8[]"
        }
      ],
      "stateMutability": "nonpayable",
      "type": "constructor"
    },
    {
      "anonymous": false,
      "inputs": [
        {
          "indexed": true,
          "internalType": "address",
          "name": "owner",
          "type": "address"
        },
        {
          "indexed": true,
          "internalType": "address",
          "name": "approved",
          "type": "address"
        },
        {
          "indexed": true,
          "internalType": "uint256",
          "name": "tokenId",
          "type": "uint256"
        }
      ],
      "name": "Approval",
      "type": "event"
    },
    {
      "anonymous": false,
      "inputs": [
        {
          "indexed": true,
          "internalType": "address",
          "name": "owner",
          "type": "address"
        },
        {
          "indexed": true,
          "internalType": "address",
          "name": "operator",
          "type": "address"
        },
        {
          "indexed": false,
          "internalType": "bool",
          "name": "approved",
          "type": "bool"
        }
      ],
      "name": "ApprovalForAll",
      "type": "event"
    },
    {
      "anonymous": false,
      "inputs": [
        {
          "indexed": false,
          "internalType": "address",
          "name": "sender",
          "type": "address"
        },
        {
          "indexed": false,
          "internalType": "uint256",
          "name": "newBrawlerId",
          "type": "uint256"
        },
        {
          "indexed": false,
          "internalType": "uint256",
          "name": "brawlerType",
          "type": "uint256"
        }
      ],
      "name": "BrawlerMinted",
      "type": "event"
    },
    {
      "anonymous": false,
      "inputs": [
        {
          "indexed": true,
          "internalType": "address",
          "name": "previousOwner",
          "type": "address"
        },
        {
          "indexed": true,
          "internalType": "address",
          "name": "newOwner",
          "type": "address"
        }
      ],
      "name": "OwnershipTransferred",
      "type": "event"
    },
    {
      "anonymous": false,
      "inputs": [
        {
          "indexed": true,
          "internalType": "address",
          "name": "from",
          "type": "address"
        },
        {
          "indexed": true,
          "internalType": "address",
          "name": "to",
          "type": "address"
        },
        {
          "indexed": true,
          "internalType": "uint256",
          "name": "tokenId",
          "type": "uint256"
        }
      ],
      "name": "Transfer",
      "type": "event"
    },
    {
      "inputs": [
        {
          "internalType": "string",
          "name": "_bossName",
          "type": "string"
        },
        {
          "internalType": "string",
          "name": "_bossImageURI",
          "type": "string"
        },
        {
          "internalType": "uint256",
          "name": "_bossTotalHP",
          "type": "uint256"
        },
        {
          "internalType": "uint256",
          "name": "_bossDamage",
          "type": "uint256"
        },
        {
          "internalType": "uint256",
          "name": "_bossDefence",
          "type": "uint256"
        },
        {
          "internalType": "uint256",
          "name": "_bossCritChance",
          "type": "uint256"
        },
        {
          "internalType": "enum BlockchainBrawlers.SpecialMoveTypes",
          "name": "_bossSpecialMove",
          "type": "uint8"
        }
      ],
      "name": "addBoss",
      "outputs": [],
      "stateMutability": "nonpayable",
      "type": "function"
    },
    {
      "inputs": [
        {
          "internalType": "address",
          "name": "to",
          "type": "address"
        },
        {
          "internalType": "uint256",
          "name": "tokenId",
          "type": "uint256"
        }
      ],
      "name": "approve",
      "outputs": [],
      "stateMutability": "nonpayable",
      "type": "function"
    },
    {
      "inputs": [
        {
          "internalType": "address",
          "name": "owner",
          "type": "address"
        }
      ],
      "name": "balanceOf",
      "outputs": [
        {
          "internalType": "uint256",
          "name": "",
          "type": "uint256"
        }
      ],
      "stateMutability": "view",
      "type": "function"
    },
    {
      "inputs": [
        {
          "internalType": "uint256",
          "name": "",
          "type": "uint256"
        }
      ],
      "name": "bossTypes",
      "outputs": [
        {
          "internalType": "uint256",
          "name": "bossType",
          "type": "uint256"
        },
        {
          "internalType": "string",
          "name": "name",
          "type": "string"
        },
        {
          "internalType": "string",
          "name": "imageURI",
          "type": "string"
        },
        {
          "internalType": "uint256",
          "name": "totalHP",
          "type": "uint256"
        },
        {
          "internalType": "uint256",
          "name": "damage",
          "type": "uint256"
        },
        {
          "internalType": "uint256",
          "name": "defence",
          "type": "uint256"
        },
        {
          "internalType": "uint256",
          "name": "critChance",
          "type": "uint256"
        },
        {
          "internalType": "enum BlockchainBrawlers.SpecialMoveTypes",
          "name": "specialMove",
          "type": "uint8"
        }
      ],
      "stateMutability": "view",
      "type": "function"
    },
    {
      "inputs": [],
      "name": "checkOwnsBrawler",
      "outputs": [
        {
          "components": [
            {
              "internalType": "uint256",
              "name": "brawlerType",
              "type": "uint256"
            },
            {
              "internalType": "string",
              "name": "name",
              "type": "string"
            },
            {
              "internalType": "string",
              "name": "imageURI",
              "type": "string"
            },
            {
              "internalType": "uint256",
              "name": "totalHP",
              "type": "uint256"
            },
            {
              "internalType": "uint256",
              "name": "damage",
              "type": "uint256"
            },
            {
              "internalType": "uint256",
              "name": "defence",
              "type": "uint256"
            },
            {
              "internalType": "uint256",
              "name": "critChance",
              "type": "uint256"
            },
            {
              "internalType": "enum BlockchainBrawlers.SpecialMoveTypes",
              "name": "specialMove",
              "type": "uint8"
            }
          ],
          "internalType": "struct BlockchainBrawlers.BrawlerAttributes",
          "name": "",
          "type": "tuple"
        }
      ],
      "stateMutability": "view",
      "type": "function"
    },
    {
      "inputs": [
        {
          "internalType": "uint256",
          "name": "tokenId",
          "type": "uint256"
        }
      ],
      "name": "getApproved",
      "outputs": [
        {
          "internalType": "address",
          "name": "",
          "type": "address"
        }
      ],
      "stateMutability": "view",
      "type": "function"
    },
    {
      "inputs": [
        {
          "internalType": "uint256",
          "name": "_bossType",
          "type": "uint256"
        }
      ],
      "name": "getBoss",
      "outputs": [
        {
          "components": [
            {
              "internalType": "uint256",
              "name": "bossType",
              "type": "uint256"
            },
            {
              "internalType": "string",
              "name": "name",
              "type": "string"
            },
            {
              "internalType": "string",
              "name": "imageURI",
              "type": "string"
            },
            {
              "internalType": "uint256",
              "name": "totalHP",
              "type": "uint256"
            },
            {
              "internalType": "uint256",
              "name": "damage",
              "type": "uint256"
            },
            {
              "internalType": "uint256",
              "name": "defence",
              "type": "uint256"
            },
            {
              "internalType": "uint256",
              "name": "critChance",
              "type": "uint256"
            },
            {
              "internalType": "enum BlockchainBrawlers.SpecialMoveTypes",
              "name": "specialMove",
              "type": "uint8"
            }
          ],
          "internalType": "struct BlockchainBrawlers.BossAttributes",
          "name": "",
          "type": "tuple"
        }
      ],
      "stateMutability": "view",
      "type": "function"
    },
    {
      "inputs": [],
      "name": "getBrawlerTypes",
      "outputs": [
        {
          "components": [
            {
              "internalType": "uint256",
              "name": "brawlerType",
              "type": "uint256"
            },
            {
              "internalType": "string",
              "name": "name",
              "type": "string"
            },
            {
              "internalType": "string",
              "name": "imageURI",
              "type": "string"
            },
            {
              "internalType": "uint256",
              "name": "totalHP",
              "type": "uint256"
            },
            {
              "internalType": "uint256",
              "name": "damage",
              "type": "uint256"
            },
            {
              "internalType": "uint256",
              "name": "defence",
              "type": "uint256"
            },
            {
              "internalType": "uint256",
              "name": "critChance",
              "type": "uint256"
            },
            {
              "internalType": "enum BlockchainBrawlers.SpecialMoveTypes",
              "name": "specialMove",
              "type": "uint8"
            }
          ],
          "internalType": "struct BlockchainBrawlers.BrawlerAttributes[]",
          "name": "",
          "type": "tuple[]"
        }
      ],
      "stateMutability": "view",
      "type": "function"
    },
    {
      "inputs": [
        {
          "internalType": "address",
          "name": "owner",
          "type": "address"
        },
        {
          "internalType": "address",
          "name": "operator",
          "type": "address"
        }
      ],
      "name": "isApprovedForAll",
      "outputs": [
        {
          "internalType": "bool",
          "name": "",
          "type": "bool"
        }
      ],
      "stateMutability": "view",
      "type": "function"
    },
    {
      "inputs": [
        {
          "internalType": "uint256",
          "name": "_brawlerType",
          "type": "uint256"
        }
      ],
      "name": "mintBrawler",
      "outputs": [],
      "stateMutability": "nonpayable",
      "type": "function"
    },
    {
      "inputs": [],
      "name": "name",
      "outputs": [
        {
          "internalType": "string",
          "name": "",
          "type": "string"
        }
      ],
      "stateMutability": "view",
      "type": "function"
    },
    {
      "inputs": [],
      "name": "owner",
      "outputs": [
        {
          "internalType": "address",
          "name": "",
          "type": "address"
        }
      ],
      "stateMutability": "view",
      "type": "function"
    },
    {
      "inputs": [
        {
          "internalType": "uint256",
          "name": "tokenId",
          "type": "uint256"
        }
      ],
      "name": "ownerOf",
      "outputs": [
        {
          "internalType": "address",
          "name": "",
          "type": "address"
        }
      ],
      "stateMutability": "view",
      "type": "function"
    },
    {
      "inputs": [
        {
          "internalType": "address",
          "name": "",
          "type": "address"
        }
      ],
      "name": "ownerToTokenId",
      "outputs": [
        {
          "internalType": "uint256",
          "name": "",
          "type": "uint256"
        }
      ],
      "stateMutability": "view",
      "type": "function"
    },
    {
      "inputs": [],
      "name": "renounceOwnership",
      "outputs": [],
      "stateMutability": "nonpayable",
      "type": "function"
    },
    {
      "inputs": [
        {
          "internalType": "address",
          "name": "from",
          "type": "address"
        },
        {
          "internalType": "address",
          "name": "to",
          "type": "address"
        },
        {
          "internalType": "uint256",
          "name": "tokenId",
          "type": "uint256"
        }
      ],
      "name": "safeTransferFrom",
      "outputs": [],
      "stateMutability": "nonpayable",
      "type": "function"
    },
    {
      "inputs": [
        {
          "internalType": "address",
          "name": "from",
          "type": "address"
        },
        {
          "internalType": "address",
          "name": "to",
          "type": "address"
        },
        {
          "internalType": "uint256",
          "name": "tokenId",
          "type": "uint256"
        },
        {
          "internalType": "bytes",
          "name": "_data",
          "type": "bytes"
        }
      ],
      "name": "safeTransferFrom",
      "outputs": [],
      "stateMutability": "nonpayable",
      "type": "function"
    },
    {
      "inputs": [
        {
          "internalType": "address",
          "name": "operator",
          "type": "address"
        },
        {
          "internalType": "bool",
          "name": "approved",
          "type": "bool"
        }
      ],
      "name": "setApprovalForAll",
      "outputs": [],
      "stateMutability": "nonpayable",
      "type": "function"
    },
    {
      "inputs": [
        {
          "internalType": "enum BlockchainBrawlers.SpecialMoveTypes",
          "name": "_specialMove",
          "type": "uint8"
        }
      ],
      "name": "specialMoveToMoveData",
      "outputs": [
        {
          "internalType": "string",
          "name": "",
          "type": "string"
        }
      ],
      "stateMutability": "pure",
      "type": "function"
    },
    {
      "inputs": [
        {
          "internalType": "enum BlockchainBrawlers.SpecialMoveTypes",
          "name": "_specialMove",
          "type": "uint8"
        }
      ],
      "name": "specialMoveToString",
      "outputs": [
        {
          "internalType": "string",
          "name": "",
          "type": "string"
        }
      ],
      "stateMutability": "pure",
      "type": "function"
    },
    {
      "inputs": [
        {
          "internalType": "bytes4",
          "name": "interfaceId",
          "type": "bytes4"
        }
      ],
      "name": "supportsInterface",
      "outputs": [
        {
          "internalType": "bool",
          "name": "",
          "type": "bool"
        }
      ],
      "stateMutability": "view",
      "type": "function"
    },
    {
      "inputs": [],
      "name": "symbol",
      "outputs": [
        {
          "internalType": "string",
          "name": "",
          "type": "string"
        }
      ],
      "stateMutability": "view",
      "type": "function"
    },
    {
      "inputs": [
        {
          "internalType": "uint256",
          "name": "",
          "type": "uint256"
        }
      ],
      "name": "tokenIdToAttributes",
      "outputs": [
        {
          "internalType": "uint256",
          "name": "brawlerType",
          "type": "uint256"
        },
        {
          "internalType": "string",
          "name": "name",
          "type": "string"
        },
        {
          "internalType": "string",
          "name": "imageURI",
          "type": "string"
        },
        {
          "internalType": "uint256",
          "name": "totalHP",
          "type": "uint256"
        },
        {
          "internalType": "uint256",
          "name": "damage",
          "type": "uint256"
        },
        {
          "internalType": "uint256",
          "name": "defence",
          "type": "uint256"
        },
        {
          "internalType": "uint256",
          "name": "critChance",
          "type": "uint256"
        },
        {
          "internalType": "enum BlockchainBrawlers.SpecialMoveTypes",
          "name": "specialMove",
          "type": "uint8"
        }
      ],
      "stateMutability": "view",
      "type": "function"
    },
    {
      "inputs": [
        {
          "internalType": "uint256",
          "name": "_tokenId",
          "type": "uint256"
        }
      ],
      "name": "tokenURI",
      "outputs": [
        {
          "internalType": "string",
          "name": "",
          "type": "string"
        }
      ],
      "stateMutability": "view",
      "type": "function"
    },
    {
      "inputs": [
        {
          "internalType": "address",
          "name": "from",
          "type": "address"
        },
        {
          "internalType": "address",
          "name": "to",
          "type": "address"
        },
        {
          "internalType": "uint256",
          "name": "tokenId",
          "type": "uint256"
        }
      ],
      "name": "transferFrom",
      "outputs": [],
      "stateMutability": "nonpayable",
      "type": "function"
    },
    {
      "inputs": [
        {
          "internalType": "address",
          "name": "newOwner",
          "type": "address"
        }
      ],
      "name": "transferOwnership",
      "outputs": [],
      "stateMutability": "nonpayable",
      "type": "function"
    }
  ],
  "bytecode": "0x60806040523480156200001157600080fd5b5060405162006a1538038062006a15833981810160405281019062000037919062000c0a565b6040518060400160405280601381526020017f426c6f636b636861696e20427261776c657273000000000000000000000000008152506040518060400160405280600581526020017f427261776c0000000000000000000000000000000000000000000000000000008152508160009080519060200190620000bb929190620008b9565b508060019080519060200190620000d4929190620008b9565b505050620000f7620000eb6200070660201b60201c565b6200070e60201b60201c565b60005b8751811015620006e15760086040518061010001604052808381526020018a848151811062000152577f4e487b7100000000000000000000000000000000000000000000000000000000600052603260045260246000fd5b6020026020010151815260200189848151811062000199577f4e487b7100000000000000000000000000000000000000000000000000000000600052603260045260246000fd5b60200260200101518152602001888481518110620001e0577f4e487b7100000000000000000000000000000000000000000000000000000000600052603260045260246000fd5b6020026020010151815260200187848151811062000227577f4e487b7100000000000000000000000000000000000000000000000000000000600052603260045260246000fd5b602002602001015181526020018684815181106200026e577f4e487b7100000000000000000000000000000000000000000000000000000000600052603260045260246000fd5b60200260200101518152602001858481518110620002b5577f4e487b7100000000000000000000000000000000000000000000000000000000600052603260045260246000fd5b60200260200101518152602001848481518110620002fc577f4e487b7100000000000000000000000000000000000000000000000000000000600052603260045260246000fd5b602002602001015160038111156200033d577f4e487b7100000000000000000000000000000000000000000000000000000000600052602160045260246000fd5b815250908060018154018082558091505060019003906000526020600020906008020160009091909190915060008201518160000155602082015181600101908051906020019062000391929190620008b9565b506040820151816002019080519060200190620003b0929190620008b9565b50606082015181600301556080820151816004015560a0820151816005015560c0820151816006015560e08201518160070160006101000a81548160ff021916908360038111156200042b577f4e487b7100000000000000000000000000000000000000000000000000000000600052602160045260246000fd5b021790555050506000600882815481106200046f577f4e487b7100000000000000000000000000000000000000000000000000000000600052603260045260246000fd5b90600052602060002090600802016040518061010001604052908160008201548152602001600182018054620004a59062000f2a565b80601f0160208091040260200160405190810160405280929190818152602001828054620004d39062000f2a565b8015620005245780601f10620004f85761010080835404028352916020019162000524565b820191906000526020600020905b8154815290600101906020018083116200050657829003601f168201915b505050505081526020016002820180546200053f9062000f2a565b80601f01602080910402602001604051908101604052809291908181526020018280546200056d9062000f2a565b8015620005be5780601f106200059257610100808354040283529160200191620005be565b820191906000526020600020905b815481529060010190602001808311620005a057829003601f168201915b50505050508152602001600382015481526020016004820154815260200160058201548152602001600682015481526020016007820160009054906101000a900460ff1660038111156200063b577f4e487b7100000000000000000000000000000000000000000000000000000000600052602160045260246000fd5b600381111562000674577f4e487b7100000000000000000000000000000000000000000000000000000000600052602160045260246000fd5b815250509050620006ca6040518060400160405280601281526020017f4372656174656420627261776c657220257300000000000000000000000000008152508260200151620007d460201b620028041760201c565b508080620006d89062000f96565b915050620000fa565b620006f860076200087a60201b620028a01760201c565b5050505050505050620010ad565b600033905090565b6000600660009054906101000a900473ffffffffffffffffffffffffffffffffffffffff16905081600660006101000a81548173ffffffffffffffffffffffffffffffffffffffff021916908373ffffffffffffffffffffffffffffffffffffffff1602179055508173ffffffffffffffffffffffffffffffffffffffff168173ffffffffffffffffffffffffffffffffffffffff167f8be0079c531659141344cd1fd0a4f28419497f9722a3daafe3b4186f6b6457e060405160405180910390a35050565b620008768282604051602401620007ed92919062000da7565b6040516020818303038152906040527f4b5c4277000000000000000000000000000000000000000000000000000000007bffffffffffffffffffffffffffffffffffffffffffffffffffffffff19166020820180517bffffffffffffffffffffffffffffffffffffffffffffffffffffffff83818316178352505050506200089060201b60201c565b5050565b6001816000016000828254019250508190555050565b60008151905060006a636f6e736f6c652e6c6f679050602083016000808483855afa5050505050565b828054620008c79062000f2a565b90600052602060002090601f016020900481019282620008eb576000855562000937565b82601f106200090657805160ff191683800117855562000937565b8280016001018555821562000937579182015b828111156200093657825182559160200191906001019062000919565b5b5090506200094691906200094a565b5090565b5b80821115620009655760008160009055506001016200094b565b5090565b6000620009806200097a8462000e0b565b62000de2565b90508083825260208201905082856020860282011115620009a057600080fd5b60005b85811015620009d45781620009b9888262000baf565b845260208401935060208301925050600181019050620009a3565b5050509392505050565b6000620009f5620009ef8462000e3a565b62000de2565b9050808382526020820190508285602086028201111562000a1557600080fd5b60005b8581101562000a6457815167ffffffffffffffff81111562000a3957600080fd5b80860162000a48898262000bc6565b8552602085019450602084019350505060018101905062000a18565b5050509392505050565b600062000a8562000a7f8462000e69565b62000de2565b9050808382526020820190508285602086028201111562000aa557600080fd5b60005b8581101562000ad9578162000abe888262000bf3565b84526020840193506020830192505060018101905062000aa8565b5050509392505050565b600062000afa62000af48462000e98565b62000de2565b90508281526020810184848401111562000b1357600080fd5b62000b2084828562000ef4565b509392505050565b600082601f83011262000b3a57600080fd5b815162000b4c84826020860162000969565b91505092915050565b600082601f83011262000b6757600080fd5b815162000b79848260208601620009de565b91505092915050565b600082601f83011262000b9457600080fd5b815162000ba684826020860162000a6e565b91505092915050565b60008151905062000bc08162001082565b92915050565b600082601f83011262000bd857600080fd5b815162000bea84826020860162000ae3565b91505092915050565b60008151905062000c048162001093565b92915050565b600080600080600080600060e0888a03121562000c2657600080fd5b600088015167ffffffffffffffff81111562000c4157600080fd5b62000c4f8a828b0162000b55565b975050602088015167ffffffffffffffff81111562000c6d57600080fd5b62000c7b8a828b0162000b55565b965050604088015167ffffffffffffffff81111562000c9957600080fd5b62000ca78a828b0162000b82565b955050606088015167ffffffffffffffff81111562000cc557600080fd5b62000cd38a828b0162000b82565b945050608088015167ffffffffffffffff81111562000cf157600080fd5b62000cff8a828b0162000b82565b93505060a088015167ffffffffffffffff81111562000d1d57600080fd5b62000d2b8a828b0162000b82565b92505060c088015167ffffffffffffffff81111562000d4957600080fd5b62000d578a828b0162000b28565b91505092959891949750929550565b600062000d738262000ece565b62000d7f818562000ed9565b935062000d9181856020860162000ef4565b62000d9c8162001071565b840191505092915050565b6000604082019050818103600083015262000dc3818562000d66565b9050818103602083015262000dd9818462000d66565b90509392505050565b600062000dee62000e01565b905062000dfc828262000f60565b919050565b6000604051905090565b600067ffffffffffffffff82111562000e295762000e2862001042565b5b602082029050602081019050919050565b600067ffffffffffffffff82111562000e585762000e5762001042565b5b602082029050602081019050919050565b600067ffffffffffffffff82111562000e875762000e8662001042565b5b602082029050602081019050919050565b600067ffffffffffffffff82111562000eb65762000eb562001042565b5b62000ec18262001071565b9050602081019050919050565b600081519050919050565b600082825260208201905092915050565b6000819050919050565b60005b8381101562000f1457808201518184015260208101905062000ef7565b8381111562000f24576000848401525b50505050565b6000600282049050600182168062000f4357607f821691505b6020821081141562000f5a5762000f5962001013565b5b50919050565b62000f6b8262001071565b810181811067ffffffffffffffff8211171562000f8d5762000f8c62001042565b5b80604052505050565b600062000fa38262000eea565b91507fffffffffffffffffffffffffffffffffffffffffffffffffffffffffffffffff82141562000fd95762000fd862000fe4565b5b600182019050919050565b7f4e487b7100000000000000000000000000000000000000000000000000000000600052601160045260246000fd5b7f4e487b7100000000000000000000000000000000000000000000000000000000600052602260045260246000fd5b7f4e487b7100000000000000000000000000000000000000000000000000000000600052604160045260246000fd5b6000601f19601f8301169050919050565b600481106200109057600080fd5b50565b6200109e8162000eea565b8114620010aa57600080fd5b50565b61595880620010bd6000396000f3fe608060405234801561001057600080fd5b506004361061018e5760003560e01c80635bf17182116100de57806395d89b4111610097578063c87a41da11610071578063c87a41da146104b5578063c87b56dd146104e5578063e985e9c514610515578063f2fde38b146105455761018e565b806395d89b411461045f578063a22cb4651461047d578063b88d4fde146104995761018e565b80635bf17182146103825780635dff3a77146103b95780636352211e146103d757806370a0823114610407578063715018a6146104375780638da5cb5b146104415761018e565b8063180fc40d1161014b57806325a1b2a01161012557806325a1b2a0146102fc57806342842e0e1461031a5780634814f03514610336578063561f7681146103665761018e565b8063180fc40d146102945780631f600bfc146102c457806323b872dd146102e05761018e565b806301ffc9a71461019357806306fdde03146101c3578063081812fc146101e1578063095ea7b3146102115780630e63c7ad1461022d5780631177f3791461025d575b600080fd5b6101ad60048036038101906101a89190613cdf565b610561565b6040516101ba919061479d565b60405180910390f35b6101cb610643565b6040516101d891906147b8565b60405180910390f35b6101fb60048036038101906101f69190613e28565b6106d5565b60405161020891906146dd565b60405180910390f35b61022b60048036038101906102269190613ca3565b61075a565b005b61024760048036038101906102429190613e28565b610872565b6040516102549190614a6f565b60405180910390f35b61027760048036038101906102729190613e28565b610af9565b60405161028b989796959493929190614ace565b60405180910390f35b6102ae60048036038101906102a99190613d31565b610c5e565b6040516102bb91906147b8565b60405180910390f35b6102de60048036038101906102d99190613e28565b610ec0565b005b6102fa60048036038101906102f59190613b9d565b61136b565b005b6103046113cb565b604051610311919061477b565b60405180910390f35b610334600480360381019061032f9190613b9d565b611608565b005b610350600480360381019061034b9190613b38565b611628565b60405161035d9190614ab3565b60405180910390f35b610380600480360381019061037b9190613d5a565b611640565b005b61039c60048036038101906103979190613e28565b611aaa565b6040516103b0989796959493929190614ace565b60405180910390f35b6103c1611c1f565b6040516103ce9190614a91565b60405180910390f35b6103f160048036038101906103ec9190613e28565b611e89565b6040516103fe91906146dd565b60405180910390f35b610421600480360381019061041c9190613b38565b611f3b565b60405161042e9190614ab3565b60405180910390f35b61043f611ff3565b005b61044961207b565b60405161045691906146dd565b60405180910390f35b6104676120a5565b60405161047491906147b8565b60405180910390f35b61049760048036038101906104929190613c67565b612137565b005b6104b360048036038101906104ae9190613bec565b61214d565b005b6104cf60048036038101906104ca9190613d31565b6121af565b6040516104dc91906147b8565b60405180910390f35b6104ff60048036038101906104fa9190613e28565b61239d565b60405161050c91906147b8565b60405180910390f35b61052f600480360381019061052a9190613b61565b612678565b60405161053c919061479d565b60405180910390f35b61055f600480360381019061055a9190613b38565b61270c565b005b60007f80ac58cd000000000000000000000000000000000000000000000000000000007bffffffffffffffffffffffffffffffffffffffffffffffffffffffff1916827bffffffffffffffffffffffffffffffffffffffffffffffffffffffff1916148061062c57507f5b5e139f000000000000000000000000000000000000000000000000000000007bffffffffffffffffffffffffffffffffffffffffffffffffffffffff1916827bffffffffffffffffffffffffffffffffffffffffffffffffffffffff1916145b8061063c575061063b826128b6565b5b9050919050565b60606000805461065290614e5e565b80601f016020809104026020016040519081016040528092919081815260200182805461067e90614e5e565b80156106cb5780601f106106a0576101008083540402835291602001916106cb565b820191906000526020600020905b8154815290600101906020018083116106ae57829003601f168201915b5050505050905090565b60006106e082612920565b61071f576040517f08c379a0000000000000000000000000000000000000000000000000000000008152600401610716906149cf565b60405180910390fd5b6004600083815260200190815260200160002060009054906101000a900473ffffffffffffffffffffffffffffffffffffffff169050919050565b600061076582611e89565b90508073ffffffffffffffffffffffffffffffffffffffff168373ffffffffffffffffffffffffffffffffffffffff1614156107d6576040517f08c379a00000000000000000000000000000000000000000000000000000000081526004016107cd90614a2f565b60405180910390fd5b8073ffffffffffffffffffffffffffffffffffffffff166107f561298c565b73ffffffffffffffffffffffffffffffffffffffff16148061082457506108238161081e61298c565b612678565b5b610863576040517f08c379a000000000000000000000000000000000000000000000000000000000815260040161085a9061494f565b60405180910390fd5b61086d8383612994565b505050565b61087a61384d565b60098054905082106108c1576040517f08c379a00000000000000000000000000000000000000000000000000000000081526004016108b8906148ef565b60405180910390fd5b600982815481106108fb577f4e487b7100000000000000000000000000000000000000000000000000000000600052603260045260246000fd5b9060005260206000209060080201604051806101000160405290816000820154815260200160018201805461092f90614e5e565b80601f016020809104026020016040519081016040528092919081815260200182805461095b90614e5e565b80156109a85780601f1061097d576101008083540402835291602001916109a8565b820191906000526020600020905b81548152906001019060200180831161098b57829003601f168201915b505050505081526020016002820180546109c190614e5e565b80601f01602080910402602001604051908101604052809291908181526020018280546109ed90614e5e565b8015610a3a5780601f10610a0f57610100808354040283529160200191610a3a565b820191906000526020600020905b815481529060010190602001808311610a1d57829003601f168201915b50505050508152602001600382015481526020016004820154815260200160058201548152602001600682015481526020016007820160009054906101000a900460ff166003811115610ab6577f4e487b7100000000000000000000000000000000000000000000000000000000600052602160045260246000fd5b6003811115610aee577f4e487b7100000000000000000000000000000000000000000000000000000000600052602160045260246000fd5b815250509050919050565b600a602052806000526040600020600091509050806000015490806001018054610b2290614e5e565b80601f0160208091040260200160405190810160405280929190818152602001828054610b4e90614e5e565b8015610b9b5780601f10610b7057610100808354040283529160200191610b9b565b820191906000526020600020905b815481529060010190602001808311610b7e57829003601f168201915b505050505090806002018054610bb090614e5e565b80601f0160208091040260200160405190810160405280929190818152602001828054610bdc90614e5e565b8015610c295780601f10610bfe57610100808354040283529160200191610c29565b820191906000526020600020905b815481529060010190602001808311610c0c57829003601f168201915b5050505050908060030154908060040154908060050154908060060154908060070160009054906101000a900460ff16905088565b606060006003811115610c9a577f4e487b7100000000000000000000000000000000000000000000000000000000600052602160045260246000fd5b826003811115610cd3577f4e487b7100000000000000000000000000000000000000000000000000000000600052602160045260246000fd5b1415610d16576040518060400160405280600481526020017f4865616c000000000000000000000000000000000000000000000000000000008152509050610ebb565b60016003811115610d50577f4e487b7100000000000000000000000000000000000000000000000000000000600052602160045260246000fd5b826003811115610d89577f4e487b7100000000000000000000000000000000000000000000000000000000600052602160045260246000fd5b1415610dcc576040518060400160405280600f81526020017f496e6372656173652044616d61676500000000000000000000000000000000008152509050610ebb565b60026003811115610e06577f4e487b7100000000000000000000000000000000000000000000000000000000600052602160045260246000fd5b826003811115610e3f577f4e487b7100000000000000000000000000000000000000000000000000000000600052602160045260246000fd5b1415610e82576040518060400160405280601081526020017f496e63726561736520446566656e6365000000000000000000000000000000008152509050610ebb565b6040518060400160405280601481526020017f496e6372656173652043726974204368616e636500000000000000000000000081525090505b919050565b6008805490508110610f07576040517f08c379a0000000000000000000000000000000000000000000000000000000008152600401610efe9061492f565b60405180910390fd5b6000610f136007612a4d565b9050610f1f3382612a5b565b600060088381548110610f5b577f4e487b7100000000000000000000000000000000000000000000000000000000600052603260045260246000fd5b90600052602060002090600802016040518061010001604052908160008201548152602001600182018054610f8f90614e5e565b80601f0160208091040260200160405190810160405280929190818152602001828054610fbb90614e5e565b80156110085780601f10610fdd57610100808354040283529160200191611008565b820191906000526020600020905b815481529060010190602001808311610feb57829003601f168201915b5050505050815260200160028201805461102190614e5e565b80601f016020809104026020016040519081016040528092919081815260200182805461104d90614e5e565b801561109a5780601f1061106f5761010080835404028352916020019161109a565b820191906000526020600020905b81548152906001019060200180831161107d57829003601f168201915b50505050508152602001600382015481526020016004820154815260200160058201548152602001600682015481526020016007820160009054906101000a900460ff166003811115611116577f4e487b7100000000000000000000000000000000000000000000000000000000600052602160045260246000fd5b600381111561114e577f4e487b7100000000000000000000000000000000000000000000000000000000600052602160045260246000fd5b815250509050604051806101000160405280848152602001826020015181526020018260400151815260200182606001518152602001826080015181526020018260a0015181526020018260c0015181526020018260e0015160038111156111df577f4e487b7100000000000000000000000000000000000000000000000000000000600052602160045260246000fd5b815250600a600084815260200190815260200160002060008201518160000155602082015181600101908051906020019061121b9291906138ca565b5060408201518160020190805190602001906112389291906138ca565b50606082015181600301556080820151816004015560a0820151816005015560c0820151816006015560e08201518160070160006101000a81548160ff021916908360038111156112b2577f4e487b7100000000000000000000000000000000000000000000000000000000600052602160045260246000fd5b021790555090505081600b60003373ffffffffffffffffffffffffffffffffffffffff1673ffffffffffffffffffffffffffffffffffffffff168152602001908152602001600020819055506113216040518060600160405280602d81526020016157f5602d91398385612a79565b61132b60076128a0565b7fb0d2e44562b01041f350e199659bf77908fe18724640c374cc736d553a77311933838560405161135e93929190614744565b60405180910390a1505050565b61137c61137661298c565b82612b18565b6113bb576040517f08c379a00000000000000000000000000000000000000000000000000000000081526004016113b290614a4f565b60405180910390fd5b6113c6838383612bf6565b505050565b60606008805480602002602001604051908101604052809291908181526020016000905b828210156115ff5783829060005260206000209060080201604051806101000160405290816000820154815260200160018201805461142d90614e5e565b80601f016020809104026020016040519081016040528092919081815260200182805461145990614e5e565b80156114a65780601f1061147b576101008083540402835291602001916114a6565b820191906000526020600020905b81548152906001019060200180831161148957829003601f168201915b505050505081526020016002820180546114bf90614e5e565b80601f01602080910402602001604051908101604052809291908181526020018280546114eb90614e5e565b80156115385780601f1061150d57610100808354040283529160200191611538565b820191906000526020600020905b81548152906001019060200180831161151b57829003601f168201915b50505050508152602001600382015481526020016004820154815260200160058201548152602001600682015481526020016007820160009054906101000a900460ff1660038111156115b4577f4e487b7100000000000000000000000000000000000000000000000000000000600052602160045260246000fd5b60038111156115ec577f4e487b7100000000000000000000000000000000000000000000000000000000600052602160045260246000fd5b81525050815260200190600101906113ef565b50505050905090565b6116238383836040518060200160405280600081525061214d565b505050565b600b6020528060005260406000206000915090505481565b61164861298c565b73ffffffffffffffffffffffffffffffffffffffff1661166661207b565b73ffffffffffffffffffffffffffffffffffffffff16146116bc576040517f08c379a00000000000000000000000000000000000000000000000000000000081526004016116b3906149ef565b60405180910390fd5b6000600980549050905060096040518061010001604052808381526020018a8152602001898152602001888152602001878152602001868152602001858152602001846003811115611737577f4e487b7100000000000000000000000000000000000000000000000000000000600052602160045260246000fd5b81525090806001815401808255809150506001900390600052602060002090600802016000909190919091506000820151816000015560208201518160010190805190602001906117899291906138ca565b5060408201518160020190805190602001906117a69291906138ca565b50606082015181600301556080820151816004015560a0820151816005015560c0820151816006015560e08201518160070160006101000a81548160ff02191690836003811115611820577f4e487b7100000000000000000000000000000000000000000000000000000000600052602160045260246000fd5b02179055505050600060098281548110611863577f4e487b7100000000000000000000000000000000000000000000000000000000600052603260045260246000fd5b9060005260206000209060080201604051806101000160405290816000820154815260200160018201805461189790614e5e565b80601f01602080910402602001604051908101604052809291908181526020018280546118c390614e5e565b80156119105780601f106118e557610100808354040283529160200191611910565b820191906000526020600020905b8154815290600101906020018083116118f357829003601f168201915b5050505050815260200160028201805461192990614e5e565b80601f016020809104026020016040519081016040528092919081815260200182805461195590614e5e565b80156119a25780601f10611977576101008083540402835291602001916119a2565b820191906000526020600020905b81548152906001019060200180831161198557829003601f168201915b50505050508152602001600382015481526020016004820154815260200160058201548152602001600682015481526020016007820160009054906101000a900460ff166003811115611a1e577f4e487b7100000000000000000000000000000000000000000000000000000000600052602160045260246000fd5b6003811115611a56577f4e487b7100000000000000000000000000000000000000000000000000000000600052602160045260246000fd5b815250509050611a9f6040518060400160405280600f81526020017f4372656174656420626f737320257300000000000000000000000000000000008152508260200151612804565b505050505050505050565b60098181548110611aba57600080fd5b9060005260206000209060080201600091509050806000015490806001018054611ae390614e5e565b80601f0160208091040260200160405190810160405280929190818152602001828054611b0f90614e5e565b8015611b5c5780601f10611b3157610100808354040283529160200191611b5c565b820191906000526020600020905b815481529060010190602001808311611b3f57829003601f168201915b505050505090806002018054611b7190614e5e565b80601f0160208091040260200160405190810160405280929190818152602001828054611b9d90614e5e565b8015611bea5780601f10611bbf57610100808354040283529160200191611bea565b820191906000526020600020905b815481529060010190602001808311611bcd57829003601f168201915b5050505050908060030154908060040154908060050154908060060154908060070160009054906101000a900460ff16905088565b611c27613950565b6000600b60003373ffffffffffffffffffffffffffffffffffffffff1673ffffffffffffffffffffffffffffffffffffffff1681526020019081526020016000205490506000811115611e7857600a60008281526020019081526020016000206040518061010001604052908160008201548152602001600182018054611cad90614e5e565b80601f0160208091040260200160405190810160405280929190818152602001828054611cd990614e5e565b8015611d265780601f10611cfb57610100808354040283529160200191611d26565b820191906000526020600020905b815481529060010190602001808311611d0957829003601f168201915b50505050508152602001600282018054611d3f90614e5e565b80601f0160208091040260200160405190810160405280929190818152602001828054611d6b90614e5e565b8015611db85780601f10611d8d57610100808354040283529160200191611db8565b820191906000526020600020905b815481529060010190602001808311611d9b57829003601f168201915b50505050508152602001600382015481526020016004820154815260200160058201548152602001600682015481526020016007820160009054906101000a900460ff166003811115611e34577f4e487b7100000000000000000000000000000000000000000000000000000000600052602160045260246000fd5b6003811115611e6c577f4e487b7100000000000000000000000000000000000000000000000000000000600052602160045260246000fd5b81525050915050611e86565b611e80613950565b80925050505b90565b6000806002600084815260200190815260200160002060009054906101000a900473ffffffffffffffffffffffffffffffffffffffff169050600073ffffffffffffffffffffffffffffffffffffffff168173ffffffffffffffffffffffffffffffffffffffff161415611f32576040517f08c379a0000000000000000000000000000000000000000000000000000000008152600401611f299061498f565b60405180910390fd5b80915050919050565b60008073ffffffffffffffffffffffffffffffffffffffff168273ffffffffffffffffffffffffffffffffffffffff161415611fac576040517f08c379a0000000000000000000000000000000000000000000000000000000008152600401611fa39061496f565b60405180910390fd5b600360008373ffffffffffffffffffffffffffffffffffffffff1673ffffffffffffffffffffffffffffffffffffffff168152602001908152602001600020549050919050565b611ffb61298c565b73ffffffffffffffffffffffffffffffffffffffff1661201961207b565b73ffffffffffffffffffffffffffffffffffffffff161461206f576040517f08c379a0000000000000000000000000000000000000000000000000000000008152600401612066906149ef565b60405180910390fd5b6120796000612e52565b565b6000600660009054906101000a900473ffffffffffffffffffffffffffffffffffffffff16905090565b6060600180546120b490614e5e565b80601f01602080910402602001604051908101604052809291908181526020018280546120e090614e5e565b801561212d5780601f106121025761010080835404028352916020019161212d565b820191906000526020600020905b81548152906001019060200180831161211057829003601f168201915b5050505050905090565b61214961214261298c565b8383612f18565b5050565b61215e61215861298c565b83612b18565b61219d576040517f08c379a000000000000000000000000000000000000000000000000000000000815260040161219490614a4f565b60405180910390fd5b6121a984848484613085565b50505050565b6060600060038111156121eb577f4e487b7100000000000000000000000000000000000000000000000000000000600052602160045260246000fd5b826003811115612224577f4e487b7100000000000000000000000000000000000000000000000000000000600052602160045260246000fd5b141561224a576040518060600160405280603f81526020016158e4603f91399050612398565b60016003811115612284577f4e487b7100000000000000000000000000000000000000000000000000000000600052602160045260246000fd5b8260038111156122bd577f4e487b7100000000000000000000000000000000000000000000000000000000600052602160045260246000fd5b14156122e3576040518060600160405280603e81526020016157b7603e91399050612398565b6002600381111561231d577f4e487b7100000000000000000000000000000000000000000000000000000000600052602160045260246000fd5b826003811115612356577f4e487b7100000000000000000000000000000000000000000000000000000000600052602160045260246000fd5b141561237c576040518060600160405280603f81526020016158a5603f91399050612398565b6040518060800160405280604381526020016158626043913990505b919050565b60606000600a600084815260200190815260200160002060405180610100016040529081600082015481526020016001820180546123da90614e5e565b80601f016020809104026020016040519081016040528092919081815260200182805461240690614e5e565b80156124535780601f1061242857610100808354040283529160200191612453565b820191906000526020600020905b81548152906001019060200180831161243657829003601f168201915b5050505050815260200160028201805461246c90614e5e565b80601f016020809104026020016040519081016040528092919081815260200182805461249890614e5e565b80156124e55780601f106124ba576101008083540402835291602001916124e5565b820191906000526020600020905b8154815290600101906020018083116124c857829003601f168201915b50505050508152602001600382015481526020016004820154815260200160058201548152602001600682015481526020016007820160009054906101000a900460ff166003811115612561577f4e487b7100000000000000000000000000000000000000000000000000000000600052602160045260246000fd5b6003811115612599577f4e487b7100000000000000000000000000000000000000000000000000000000600052602160045260246000fd5b81525050905060006125aa846130e1565b905060006125bb83606001516130e1565b905060006125cc84608001516130e1565b905060006125dd8560a001516130e1565b905060006125ee8660c001516130e1565b905060006125ff8760e00151610c5e565b905060006126418860200151888a60400151898989898960405160200161262d9897969594939291906145e6565b60405160208183030381529060405261328e565b905060008160405160200161265691906146bb565b6040516020818303038152906040529050809950505050505050505050919050565b6000600560008473ffffffffffffffffffffffffffffffffffffffff1673ffffffffffffffffffffffffffffffffffffffff16815260200190815260200160002060008373ffffffffffffffffffffffffffffffffffffffff1673ffffffffffffffffffffffffffffffffffffffff16815260200190815260200160002060009054906101000a900460ff16905092915050565b61271461298c565b73ffffffffffffffffffffffffffffffffffffffff1661273261207b565b73ffffffffffffffffffffffffffffffffffffffff1614612788576040517f08c379a000000000000000000000000000000000000000000000000000000000815260040161277f906149ef565b60405180910390fd5b600073ffffffffffffffffffffffffffffffffffffffff168173ffffffffffffffffffffffffffffffffffffffff1614156127f8576040517f08c379a00000000000000000000000000000000000000000000000000000000081526004016127ef9061486f565b60405180910390fd5b61280181612e52565b50565b61289c828260405160240161281a9291906147da565b6040516020818303038152906040527f4b5c4277000000000000000000000000000000000000000000000000000000007bffffffffffffffffffffffffffffffffffffffffffffffffffffffff19166020820180517bffffffffffffffffffffffffffffffffffffffffffffffffffffffff838183161783525050505061344c565b5050565b6001816000016000828254019250508190555050565b60007f01ffc9a7000000000000000000000000000000000000000000000000000000007bffffffffffffffffffffffffffffffffffffffffffffffffffffffff1916827bffffffffffffffffffffffffffffffffffffffffffffffffffffffff1916149050919050565b60008073ffffffffffffffffffffffffffffffffffffffff166002600084815260200190815260200160002060009054906101000a900473ffffffffffffffffffffffffffffffffffffffff1673ffffffffffffffffffffffffffffffffffffffff1614159050919050565b600033905090565b816004600083815260200190815260200160002060006101000a81548173ffffffffffffffffffffffffffffffffffffffff021916908373ffffffffffffffffffffffffffffffffffffffff160217905550808273ffffffffffffffffffffffffffffffffffffffff16612a0783611e89565b73ffffffffffffffffffffffffffffffffffffffff167f8c5be1e5ebec7d5bd14f71427d1e84f3dd0314c0f7b2291e5b200ac8c7c3b92560405160405180910390a45050565b600081600001549050919050565b612a75828260405180602001604052806000815250613475565b5050565b612b13838383604051602401612a9193929190614811565b6040516020818303038152906040527f969cdd03000000000000000000000000000000000000000000000000000000007bffffffffffffffffffffffffffffffffffffffffffffffffffffffff19166020820180517bffffffffffffffffffffffffffffffffffffffffffffffffffffffff838183161783525050505061344c565b505050565b6000612b2382612920565b612b62576040517f08c379a0000000000000000000000000000000000000000000000000000000008152600401612b599061490f565b60405180910390fd5b6000612b6d83611e89565b90508073ffffffffffffffffffffffffffffffffffffffff168473ffffffffffffffffffffffffffffffffffffffff161480612bdc57508373ffffffffffffffffffffffffffffffffffffffff16612bc4846106d5565b73ffffffffffffffffffffffffffffffffffffffff16145b80612bed5750612bec8185612678565b5b91505092915050565b8273ffffffffffffffffffffffffffffffffffffffff16612c1682611e89565b73ffffffffffffffffffffffffffffffffffffffff1614612c6c576040517f08c379a0000000000000000000000000000000000000000000000000000000008152600401612c6390614a0f565b60405180910390fd5b600073ffffffffffffffffffffffffffffffffffffffff168273ffffffffffffffffffffffffffffffffffffffff161415612cdc576040517f08c379a0000000000000000000000000000000000000000000000000000000008152600401612cd3906148af565b60405180910390fd5b612ce78383836134d0565b612cf2600082612994565b6001600360008573ffffffffffffffffffffffffffffffffffffffff1673ffffffffffffffffffffffffffffffffffffffff1681526020019081526020016000206000828254612d429190614d4f565b925050819055506001600360008473ffffffffffffffffffffffffffffffffffffffff1673ffffffffffffffffffffffffffffffffffffffff1681526020019081526020016000206000828254612d999190614c6e565b92505081905550816002600083815260200190815260200160002060006101000a81548173ffffffffffffffffffffffffffffffffffffffff021916908373ffffffffffffffffffffffffffffffffffffffff160217905550808273ffffffffffffffffffffffffffffffffffffffff168473ffffffffffffffffffffffffffffffffffffffff167fddf252ad1be2c89b69c2b068fc378daa952ba7f163c4a11628f55a4df523b3ef60405160405180910390a4505050565b6000600660009054906101000a900473ffffffffffffffffffffffffffffffffffffffff16905081600660006101000a81548173ffffffffffffffffffffffffffffffffffffffff021916908373ffffffffffffffffffffffffffffffffffffffff1602179055508173ffffffffffffffffffffffffffffffffffffffff168173ffffffffffffffffffffffffffffffffffffffff167f8be0079c531659141344cd1fd0a4f28419497f9722a3daafe3b4186f6b6457e060405160405180910390a35050565b8173ffffffffffffffffffffffffffffffffffffffff168373ffffffffffffffffffffffffffffffffffffffff161415612f87576040517f08c379a0000000000000000000000000000000000000000000000000000000008152600401612f7e906148cf565b60405180910390fd5b80600560008573ffffffffffffffffffffffffffffffffffffffff1673ffffffffffffffffffffffffffffffffffffffff16815260200190815260200160002060008473ffffffffffffffffffffffffffffffffffffffff1673ffffffffffffffffffffffffffffffffffffffff16815260200190815260200160002060006101000a81548160ff0219169083151502179055508173ffffffffffffffffffffffffffffffffffffffff168373ffffffffffffffffffffffffffffffffffffffff167f17307eab39ab6107e8899845ad3d59bd9653f200f220920489ca2b5937696c3183604051613078919061479d565b60405180910390a3505050565b613090848484612bf6565b61309c848484846134d5565b6130db576040517f08c379a00000000000000000000000000000000000000000000000000000000081526004016130d29061484f565b60405180910390fd5b50505050565b60606000821415613129576040518060400160405280600181526020017f30000000000000000000000000000000000000000000000000000000000000008152509050613289565b600082905060005b6000821461315b57808061314490614ec1565b915050600a826131549190614cc4565b9150613131565b60008167ffffffffffffffff81111561319d577f4e487b7100000000000000000000000000000000000000000000000000000000600052604160045260246000fd5b6040519080825280601f01601f1916602001820160405280156131cf5781602001600182028036833780820191505090505b5090505b60008514613282576001826131e89190614d4f565b9150600a856131f79190614f0a565b60306132039190614c6e565b60f81b81838151811061323f577f4e487b7100000000000000000000000000000000000000000000000000000000600052603260045260246000fd5b60200101907effffffffffffffffffffffffffffffffffffffffffffffffffffffffffffff1916908160001a905350600a8561327b9190614cc4565b94506131d3565b8093505050505b919050565b606060008251905060008114156132b75760405180602001604052806000815250915050613447565b600060036002836132c89190614c6e565b6132d29190614cc4565b60046132de9190614cf5565b905060006020826132ef9190614c6e565b67ffffffffffffffff81111561332e577f4e487b7100000000000000000000000000000000000000000000000000000000600052604160045260246000fd5b6040519080825280601f01601f1916602001820160405280156133605781602001600182028036833780820191505090505b5090506000604051806060016040528060408152602001615822604091399050600181016020830160005b868110156134045760038101905062ffffff818a015116603f8160121c168401518060081b905060ff603f83600c1c1686015116810190508060081b905060ff603f8360061c1686015116810190508060081b905060ff603f831686015116810190508060e01b9050808452600484019350505061338b565b50600386066001811461341e576002811461342e57613439565b613d3d60f01b6002830352613439565b603d60f81b60018303525b508484525050819450505050505b919050565b60008151905060006a636f6e736f6c652e6c6f679050602083016000808483855afa5050505050565b61347f838361366c565b61348c60008484846134d5565b6134cb576040517f08c379a00000000000000000000000000000000000000000000000000000000081526004016134c29061484f565b60405180910390fd5b505050565b505050565b60006134f68473ffffffffffffffffffffffffffffffffffffffff1661383a565b1561365f578373ffffffffffffffffffffffffffffffffffffffff1663150b7a0261351f61298c565b8786866040518563ffffffff1660e01b815260040161354194939291906146f8565b602060405180830381600087803b15801561355b57600080fd5b505af192505050801561358c57506040513d601f19601f820116820180604052508101906135899190613d08565b60015b61360f573d80600081146135bc576040519150601f19603f3d011682016040523d82523d6000602084013e6135c1565b606091505b50600081511415613607576040517f08c379a00000000000000000000000000000000000000000000000000000000081526004016135fe9061484f565b60405180910390fd5b805181602001fd5b63150b7a0260e01b7bffffffffffffffffffffffffffffffffffffffffffffffffffffffff1916817bffffffffffffffffffffffffffffffffffffffffffffffffffffffff191614915050613664565b600190505b949350505050565b600073ffffffffffffffffffffffffffffffffffffffff168273ffffffffffffffffffffffffffffffffffffffff1614156136dc576040517f08c379a00000000000000000000000000000000000000000000000000000000081526004016136d3906149af565b60405180910390fd5b6136e581612920565b15613725576040517f08c379a000000000000000000000000000000000000000000000000000000000815260040161371c9061488f565b60405180910390fd5b613731600083836134d0565b6001600360008473ffffffffffffffffffffffffffffffffffffffff1673ffffffffffffffffffffffffffffffffffffffff16815260200190815260200160002060008282546137819190614c6e565b92505081905550816002600083815260200190815260200160002060006101000a81548173ffffffffffffffffffffffffffffffffffffffff021916908373ffffffffffffffffffffffffffffffffffffffff160217905550808273ffffffffffffffffffffffffffffffffffffffff16600073ffffffffffffffffffffffffffffffffffffffff167fddf252ad1be2c89b69c2b068fc378daa952ba7f163c4a11628f55a4df523b3ef60405160405180910390a45050565b600080823b905060008111915050919050565b60405180610100016040528060008152602001606081526020016060815260200160008152602001600081526020016000815260200160008152602001600060038111156138c4577f4e487b7100000000000000000000000000000000000000000000000000000000600052602160045260246000fd5b81525090565b8280546138d690614e5e565b90600052602060002090601f0160209004810192826138f8576000855561393f565b82601f1061391157805160ff191683800117855561393f565b8280016001018555821561393f579182015b8281111561393e578251825591602001919060010190613923565b5b50905061394c91906139cd565b5090565b60405180610100016040528060008152602001606081526020016060815260200160008152602001600081526020016000815260200160008152602001600060038111156139c7577f4e487b7100000000000000000000000000000000000000000000000000000000600052602160045260246000fd5b81525090565b5b808211156139e65760008160009055506001016139ce565b5090565b60006139fd6139f884614b7f565b614b5a565b905082815260208101848484011115613a1557600080fd5b613a20848285614e1c565b509392505050565b6000613a3b613a3684614bb0565b614b5a565b905082815260208101848484011115613a5357600080fd5b613a5e848285614e1c565b509392505050565b600081359050613a758161574a565b92915050565b600081359050613a8a81615761565b92915050565b600081359050613a9f81615778565b92915050565b600081519050613ab481615778565b92915050565b600082601f830112613acb57600080fd5b8135613adb8482602086016139ea565b91505092915050565b600081359050613af38161578f565b92915050565b600082601f830112613b0a57600080fd5b8135613b1a848260208601613a28565b91505092915050565b600081359050613b328161579f565b92915050565b600060208284031215613b4a57600080fd5b6000613b5884828501613a66565b91505092915050565b60008060408385031215613b7457600080fd5b6000613b8285828601613a66565b9250506020613b9385828601613a66565b9150509250929050565b600080600060608486031215613bb257600080fd5b6000613bc086828701613a66565b9350506020613bd186828701613a66565b9250506040613be286828701613b23565b9150509250925092565b60008060008060808587031215613c0257600080fd5b6000613c1087828801613a66565b9450506020613c2187828801613a66565b9350506040613c3287828801613b23565b925050606085013567ffffffffffffffff811115613c4f57600080fd5b613c5b87828801613aba565b91505092959194509250565b60008060408385031215613c7a57600080fd5b6000613c8885828601613a66565b9250506020613c9985828601613a7b565b9150509250929050565b60008060408385031215613cb657600080fd5b6000613cc485828601613a66565b9250506020613cd585828601613b23565b9150509250929050565b600060208284031215613cf157600080fd5b6000613cff84828501613a90565b91505092915050565b600060208284031215613d1a57600080fd5b6000613d2884828501613aa5565b91505092915050565b600060208284031215613d4357600080fd5b6000613d5184828501613ae4565b91505092915050565b600080600080600080600060e0888a031215613d7557600080fd5b600088013567ffffffffffffffff811115613d8f57600080fd5b613d9b8a828b01613af9565b975050602088013567ffffffffffffffff811115613db857600080fd5b613dc48a828b01613af9565b9650506040613dd58a828b01613b23565b9550506060613de68a828b01613b23565b9450506080613df78a828b01613b23565b93505060a0613e088a828b01613b23565b92505060c0613e198a828b01613ae4565b91505092959891949750929550565b600060208284031215613e3a57600080fd5b6000613e4884828501613b23565b91505092915050565b6000613e5d838361445a565b905092915050565b613e6e81614d83565b82525050565b6000613e7f82614bf1565b613e898185614c1f565b935083602082028501613e9b85614be1565b8060005b85811015613ed75784840389528151613eb88582613e51565b9450613ec383614c12565b925060208a01995050600181019050613e9f565b50829750879550505050505092915050565b613ef281614d95565b82525050565b6000613f0382614bfc565b613f0d8185614c30565b9350613f1d818560208601614e2b565b613f2681615026565b840191505092915050565b613f3a81614e0a565b82525050565b613f4981614e0a565b82525050565b6000613f5a82614c07565b613f648185614c41565b9350613f74818560208601614e2b565b613f7d81615026565b840191505092915050565b6000613f9382614c07565b613f9d8185614c52565b9350613fad818560208601614e2b565b613fb681615026565b840191505092915050565b6000613fcc82614c07565b613fd68185614c63565b9350613fe6818560208601614e2b565b80840191505092915050565b6000613fff602d83614c63565b915061400a82615037565b602d82019050919050565b6000614022600583614c63565b915061402d82615086565b600582019050919050565b6000614045602683614c63565b9150614050826150af565b602682019050919050565b6000614068603283614c52565b9150614073826150fe565b604082019050919050565b600061408b602683614c52565b91506140968261514d565b604082019050919050565b60006140ae601c83614c52565b91506140b98261519c565b602082019050919050565b60006140d1602483614c52565b91506140dc826151c5565b604082019050919050565b60006140f4601983614c52565b91506140ff82615214565b602082019050919050565b6000614117601883614c52565b91506141228261523d565b602082019050919050565b600061413a602683614c63565b915061414582615266565b602682019050919050565b600061415d602c83614c52565b9150614168826152b5565b604082019050919050565b6000614180600383614c63565b915061418b82615304565b600382019050919050565b60006141a3601b83614c52565b91506141ae8261532d565b602082019050919050565b60006141c6603883614c63565b91506141d182615356565b603882019050919050565b60006141e9603883614c52565b91506141f4826153a5565b604082019050919050565b600061420c604b83614c63565b9150614217826153f4565b604b82019050919050565b600061422f602a83614c52565b915061423a82615469565b604082019050919050565b6000614252602983614c52565b915061425d826154b8565b604082019050919050565b6000614275602083614c52565b915061428082615507565b602082019050919050565b6000614298602c83614c52565b91506142a382615530565b604082019050919050565b60006142bb602083614c52565b91506142c68261557f565b602082019050919050565b60006142de602983614c52565b91506142e9826155a8565b604082019050919050565b6000614301600a83614c63565b915061430c826155f7565b600a82019050919050565b6000614324602183614c52565b915061432f82615620565b604082019050919050565b6000614347601d83614c63565b91506143528261566f565b601d82019050919050565b600061436a603383614c63565b915061437582615698565b603382019050919050565b600061438d603183614c52565b9150614398826156e7565b604082019050919050565b6000610100830160008301516143bc60008601826145c8565b50602083015184820360208601526143d48282613f4f565b915050604083015184820360408601526143ee8282613f4f565b915050606083015161440360608601826145c8565b50608083015161441660808601826145c8565b5060a083015161442960a08601826145c8565b5060c083015161443c60c08601826145c8565b5060e083015161444f60e0860182613f31565b508091505092915050565b60006101008301600083015161447360008601826145c8565b506020830151848203602086015261448b8282613f4f565b915050604083015184820360408601526144a58282613f4f565b91505060608301516144ba60608601826145c8565b5060808301516144cd60808601826145c8565b5060a08301516144e060a08601826145c8565b5060c08301516144f360c08601826145c8565b5060e083015161450660e0860182613f31565b508091505092915050565b60006101008301600083015161452a60008601826145c8565b50602083015184820360208601526145428282613f4f565b9150506040830151848203604086015261455c8282613f4f565b915050606083015161457160608601826145c8565b50608083015161458460808601826145c8565b5060a083015161459760a08601826145c8565b5060c08301516145aa60c08601826145c8565b5060e08301516145bd60e0860182613f31565b508091505092915050565b6145d181614e00565b82525050565b6145e081614e00565b82525050565b60006145f1826142f4565b91506145fd828b613fc1565b915061460882614173565b9150614614828a613fc1565b915061461f826141ff565b915061462b8289613fc1565b9150614636826141b9565b91506146428288613fc1565b915061464d82614038565b91506146598287613fc1565b91506146648261412d565b91506146708286613fc1565b915061467b8261435d565b91506146878285613fc1565b915061469282613ff2565b915061469e8284613fc1565b91506146a982614015565b91508190509998505050505050505050565b60006146c68261433a565b91506146d28284613fc1565b915081905092915050565b60006020820190506146f26000830184613e65565b92915050565b600060808201905061470d6000830187613e65565b61471a6020830186613e65565b61472760408301856145d7565b81810360608301526147398184613ef8565b905095945050505050565b60006060820190506147596000830186613e65565b61476660208301856145d7565b61477360408301846145d7565b949350505050565b600060208201905081810360008301526147958184613e74565b905092915050565b60006020820190506147b26000830184613ee9565b92915050565b600060208201905081810360008301526147d28184613f88565b905092915050565b600060408201905081810360008301526147f48185613f88565b905081810360208301526148088184613f88565b90509392505050565b6000606082019050818103600083015261482b8186613f88565b905061483a60208301856145d7565b61484760408301846145d7565b949350505050565b600060208201905081810360008301526148688161405b565b9050919050565b600060208201905081810360008301526148888161407e565b9050919050565b600060208201905081810360008301526148a8816140a1565b9050919050565b600060208201905081810360008301526148c8816140c4565b9050919050565b600060208201905081810360008301526148e8816140e7565b9050919050565b600060208201905081810360008301526149088161410a565b9050919050565b6000602082019050818103600083015261492881614150565b9050919050565b6000602082019050818103600083015261494881614196565b9050919050565b60006020820190508181036000830152614968816141dc565b9050919050565b6000602082019050818103600083015261498881614222565b9050919050565b600060208201905081810360008301526149a881614245565b9050919050565b600060208201905081810360008301526149c881614268565b9050919050565b600060208201905081810360008301526149e88161428b565b9050919050565b60006020820190508181036000830152614a08816142ae565b9050919050565b60006020820190508181036000830152614a28816142d1565b9050919050565b60006020820190508181036000830152614a4881614317565b9050919050565b60006020820190508181036000830152614a6881614380565b9050919050565b60006020820190508181036000830152614a8981846143a3565b905092915050565b60006020820190508181036000830152614aab8184614511565b905092915050565b6000602082019050614ac860008301846145d7565b92915050565b600061010082019050614ae4600083018b6145d7565b8181036020830152614af6818a613f88565b90508181036040830152614b0a8189613f88565b9050614b1960608301886145d7565b614b2660808301876145d7565b614b3360a08301866145d7565b614b4060c08301856145d7565b614b4d60e0830184613f40565b9998505050505050505050565b6000614b64614b75565b9050614b708282614e90565b919050565b6000604051905090565b600067ffffffffffffffff821115614b9a57614b99614ff7565b5b614ba382615026565b9050602081019050919050565b600067ffffffffffffffff821115614bcb57614bca614ff7565b5b614bd482615026565b9050602081019050919050565b6000819050602082019050919050565b600081519050919050565b600081519050919050565b600081519050919050565b6000602082019050919050565b600082825260208201905092915050565b600082825260208201905092915050565b600082825260208201905092915050565b600082825260208201905092915050565b600081905092915050565b6000614c7982614e00565b9150614c8483614e00565b9250827fffffffffffffffffffffffffffffffffffffffffffffffffffffffffffffffff03821115614cb957614cb8614f3b565b5b828201905092915050565b6000614ccf82614e00565b9150614cda83614e00565b925082614cea57614ce9614f6a565b5b828204905092915050565b6000614d0082614e00565b9150614d0b83614e00565b9250817fffffffffffffffffffffffffffffffffffffffffffffffffffffffffffffffff0483118215151615614d4457614d43614f3b565b5b828202905092915050565b6000614d5a82614e00565b9150614d6583614e00565b925082821015614d7857614d77614f3b565b5b828203905092915050565b6000614d8e82614de0565b9050919050565b60008115159050919050565b60007fffffffff0000000000000000000000000000000000000000000000000000000082169050919050565b6000819050614ddb82615736565b919050565b600073ffffffffffffffffffffffffffffffffffffffff82169050919050565b6000819050919050565b6000614e1582614dcd565b9050919050565b82818337600083830152505050565b60005b83811015614e49578082015181840152602081019050614e2e565b83811115614e58576000848401525b50505050565b60006002820490506001821680614e7657607f821691505b60208210811415614e8a57614e89614fc8565b5b50919050565b614e9982615026565b810181811067ffffffffffffffff82111715614eb857614eb7614ff7565b5b80604052505050565b6000614ecc82614e00565b91507fffffffffffffffffffffffffffffffffffffffffffffffffffffffffffffffff821415614eff57614efe614f3b565b5b600182019050919050565b6000614f1582614e00565b9150614f2083614e00565b925082614f3057614f2f614f6a565b5b828206905092915050565b7f4e487b7100000000000000000000000000000000000000000000000000000000600052601160045260246000fd5b7f4e487b7100000000000000000000000000000000000000000000000000000000600052601260045260246000fd5b7f4e487b7100000000000000000000000000000000000000000000000000000000600052602160045260246000fd5b7f4e487b7100000000000000000000000000000000000000000000000000000000600052602260045260246000fd5b7f4e487b7100000000000000000000000000000000000000000000000000000000600052604160045260246000fd5b6000601f19601f8301169050919050565b7f7d2c20207b2274726169745f74797065223a20225370656369616c204d6f766560008201527f222c202276616c7565223a202200000000000000000000000000000000000000602082015250565b7f227d205d7d000000000000000000000000000000000000000000000000000000600082015250565b7f7d2c207b202274726169745f74797065223a202244616d616765222c2022766160008201527f6c7565223a200000000000000000000000000000000000000000000000000000602082015250565b7f4552433732313a207472616e7366657220746f206e6f6e20455243373231526560008201527f63656976657220696d706c656d656e7465720000000000000000000000000000602082015250565b7f4f776e61626c653a206e6577206f776e657220697320746865207a65726f206160008201527f6464726573730000000000000000000000000000000000000000000000000000602082015250565b7f4552433732313a20746f6b656e20616c7265616479206d696e74656400000000600082015250565b7f4552433732313a207472616e7366657220746f20746865207a65726f2061646460008201527f7265737300000000000000000000000000000000000000000000000000000000602082015250565b7f4552433732313a20617070726f766520746f2063616c6c657200000000000000600082015250565b7f426f7373207479706520646f6573206e6f742065786973740000000000000000600082015250565b7f7d2c207b2274726169745f74797065223a2022446566656e6365222c2022766160008201527f6c7565223a200000000000000000000000000000000000000000000000000000602082015250565b7f4552433732313a206f70657261746f7220717565727920666f72206e6f6e657860008201527f697374656e7420746f6b656e0000000000000000000000000000000000000000602082015250565b7f2020230000000000000000000000000000000000000000000000000000000000600082015250565b7f427261776c6572207479706520646f6573206e6f742065786973740000000000600082015250565b7f222c202261747472696275746573223a205b207b202274726169745f7479706560008201527f223a2022546f74616c5f4850222c202276616c7565223a200000000000000000602082015250565b7f4552433732313a20617070726f76652063616c6c6572206973206e6f74206f7760008201527f6e6572206e6f7220617070726f76656420666f7220616c6c0000000000000000602082015250565b7f222c20226465736372697074696f6e223a20225468652066697273742067656e60008201527f65726174696f6e206f6620626c6f636b636861696e20627261776c657273222c60208201527f2022696d616765223a2022000000000000000000000000000000000000000000604082015250565b7f4552433732313a2062616c616e636520717565727920666f7220746865207a6560008201527f726f206164647265737300000000000000000000000000000000000000000000602082015250565b7f4552433732313a206f776e657220717565727920666f72206e6f6e657869737460008201527f656e7420746f6b656e0000000000000000000000000000000000000000000000602082015250565b7f4552433732313a206d696e7420746f20746865207a65726f2061646472657373600082015250565b7f4552433732313a20617070726f76656420717565727920666f72206e6f6e657860008201527f697374656e7420746f6b656e0000000000000000000000000000000000000000602082015250565b7f4f776e61626c653a2063616c6c6572206973206e6f7420746865206f776e6572600082015250565b7f4552433732313a207472616e73666572206f6620746f6b656e2074686174206960008201527f73206e6f74206f776e0000000000000000000000000000000000000000000000602082015250565b7f7b226e616d65223a202200000000000000000000000000000000000000000000600082015250565b7f4552433732313a20617070726f76616c20746f2063757272656e74206f776e6560008201527f7200000000000000000000000000000000000000000000000000000000000000602082015250565b7f646174613a6170706c69636174696f6e2f6a736f6e3b6261736536342c000000600082015250565b7f7d2c20207b2274726169745f74797065223a2022437269746963616c2048697460008201527f204368616e6365222c202276616c7565223a2000000000000000000000000000602082015250565b7f4552433732313a207472616e736665722063616c6c6572206973206e6f74206f60008201527f776e6572206e6f7220617070726f766564000000000000000000000000000000602082015250565b6004811061574757615746614f99565b5b50565b61575381614d83565b811461575e57600080fd5b50565b61576a81614d95565b811461577557600080fd5b50565b61578181614da1565b811461578c57600080fd5b50565b6004811061579c57600080fd5b50565b6157a881614e00565b81146157b357600080fd5b5056fe7b4174747269627574653a2064616d6167652c2076616c75655f696e6372656173653a203235252c20776169743a20322c20636f6f6c646f776e3a20327d4d696e74656420627261776c6572206e756d6265723a25732c207768696368206973206f6620747970652025734142434445464748494a4b4c4d4e4f505152535455565758595a6162636465666768696a6b6c6d6e6f707172737475767778797a303132333435363738392b2f7b4174747269627574653a20637269744368616e63652c2076616c75655f696e6372656173653a20313030252c20776169743a20322c20636f6f6c646f776e3a20327d7b4174747269627574653a20646566656e63652c2076616c75655f696e6372656173653a203235252c20776169743a20322c20636f6f6c646f776e3a20327d7b4174747269627574653a20746f74616c48502c2076616c75655f696e6372656173653a203530252c20776169743a20312c20636f6f6c646f776e3a20337da26469706673582212201d355cd73c999b77c6769f8f7c8e1215e60199dd2db545488d760e142a12d40164736f6c63430008040033",
  "linkReferences": {},
  "deployedLinkReferences": {}
}