{
    "_format": "hh-sol-artifact-1",
    "contractName": "BlockchainBrawlers",
    "sourceName": "contracts/BlockchainBrawlers.sol",
    "abi": [
        {
            "inputs": [
                {
                    "internalType": "string[]",
                    "name": "_brawlerName",
                    "type": "string[]"
                },
                {
                    "internalType": "string[]",
                    "name": "_brawlerImageURI",
                    "type": "string[]"
                },
                {
                    "internalType": "uint256[]",
                    "name": "_brawlerTotalHP",
                    "type": "uint256[]"
                },
                {
                    "internalType": "uint256[]",
                    "name": "_brawlerDamage",
                    "type": "uint256[]"
                },
                {
                    "internalType": "uint256[]",
                    "name": "_brawlerDefence",
                    "type": "uint256[]"
                },
                {
                    "internalType": "uint256[]",
                    "name": "_brawlerCritChance",
                    "type": "uint256[]"
                },
                {
                    "internalType": "enum BlockchainBrawlers.SpecialMoveTypes[]",
                    "name": "_brawlerSpecialMove",
                    "type": "uint8[]"
                }
            ],
            "stateMutability": "nonpayable",
            "type": "constructor"
        },
        {
            "anonymous": false,
            "inputs": [
                {
                    "indexed": true,
                    "internalType": "address",
                    "name": "owner",
                    "type": "address"
                },
                {
                    "indexed": true,
                    "internalType": "address",
                    "name": "approved",
                    "type": "address"
                },
                {
                    "indexed": true,
                    "internalType": "uint256",
                    "name": "tokenId",
                    "type": "uint256"
                }
            ],
            "name": "Approval",
            "type": "event"
        },
        {
            "anonymous": false,
            "inputs": [
                {
                    "indexed": true,
                    "internalType": "address",
                    "name": "owner",
                    "type": "address"
                },
                {
                    "indexed": true,
                    "internalType": "address",
                    "name": "operator",
                    "type": "address"
                },
                {
                    "indexed": false,
                    "internalType": "bool",
                    "name": "approved",
                    "type": "bool"
                }
            ],
            "name": "ApprovalForAll",
            "type": "event"
        },
        {
            "anonymous": false,
            "inputs": [
                {
                    "indexed": false,
                    "internalType": "address",
                    "name": "sender",
                    "type": "address"
                },
                {
                    "indexed": false,
                    "internalType": "uint256",
                    "name": "newBrawlerId",
                    "type": "uint256"
                },
                {
                    "indexed": false,
                    "internalType": "uint256",
                    "name": "brawlerType",
                    "type": "uint256"
                }
            ],
            "name": "BrawlerMinted",
            "type": "event"
        },
        {
            "anonymous": false,
            "inputs": [
                {
                    "indexed": true,
                    "internalType": "address",
                    "name": "previousOwner",
                    "type": "address"
                },
                {
                    "indexed": true,
                    "internalType": "address",
                    "name": "newOwner",
                    "type": "address"
                }
            ],
            "name": "OwnershipTransferred",
            "type": "event"
        },
        {
            "anonymous": false,
            "inputs": [
                {
                    "indexed": true,
                    "internalType": "address",
                    "name": "from",
                    "type": "address"
                },
                {
                    "indexed": true,
                    "internalType": "address",
                    "name": "to",
                    "type": "address"
                },
                {
                    "indexed": true,
                    "internalType": "uint256",
                    "name": "tokenId",
                    "type": "uint256"
                }
            ],
            "name": "Transfer",
            "type": "event"
        },
        {
            "inputs": [
                {
                    "internalType": "string",
                    "name": "_bossName",
                    "type": "string"
                },
                {
                    "internalType": "string",
                    "name": "_bossImageURI",
                    "type": "string"
                },
                {
                    "internalType": "uint256",
                    "name": "_bossTotalHP",
                    "type": "uint256"
                },
                {
                    "internalType": "uint256",
                    "name": "_bossDamage",
                    "type": "uint256"
                },
                {
                    "internalType": "uint256",
                    "name": "_bossDefence",
                    "type": "uint256"
                },
                {
                    "internalType": "uint256",
                    "name": "_bossCritChance",
                    "type": "uint256"
                },
                {
                    "internalType": "enum BlockchainBrawlers.SpecialMoveTypes",
                    "name": "_bossSpecialMove",
                    "type": "uint8"
                }
            ],
            "name": "addBoss",
            "outputs": [],
            "stateMutability": "nonpayable",
            "type": "function"
        },
        {
            "inputs": [
                {
                    "internalType": "address",
                    "name": "to",
                    "type": "address"
                },
                {
                    "internalType": "uint256",
                    "name": "tokenId",
                    "type": "uint256"
                }
            ],
            "name": "approve",
            "outputs": [],
            "stateMutability": "nonpayable",
            "type": "function"
        },
        {
            "inputs": [
                {
                    "internalType": "address",
                    "name": "owner",
                    "type": "address"
                }
            ],
            "name": "balanceOf",
            "outputs": [
                {
                    "internalType": "uint256",
                    "name": "",
                    "type": "uint256"
                }
            ],
            "stateMutability": "view",
            "type": "function"
        },
        {
            "inputs": [
                {
                    "internalType": "uint256",
                    "name": "",
                    "type": "uint256"
                }
            ],
            "name": "bossTypes",
            "outputs": [
                {
                    "internalType": "uint256",
                    "name": "bossType",
                    "type": "uint256"
                },
                {
                    "internalType": "string",
                    "name": "name",
                    "type": "string"
                },
                {
                    "internalType": "string",
                    "name": "imageURI",
                    "type": "string"
                },
                {
                    "internalType": "uint256",
                    "name": "totalHP",
                    "type": "uint256"
                },
                {
                    "internalType": "uint256",
                    "name": "damage",
                    "type": "uint256"
                },
                {
                    "internalType": "uint256",
                    "name": "defence",
                    "type": "uint256"
                },
                {
                    "internalType": "uint256",
                    "name": "critChance",
                    "type": "uint256"
                },
                {
                    "internalType": "enum BlockchainBrawlers.SpecialMoveTypes",
                    "name": "specialMove",
                    "type": "uint8"
                }
            ],
            "stateMutability": "view",
            "type": "function"
        },
        {
            "inputs": [],
            "name": "checkOwnsBrawler",
            "outputs": [
                {
                    "components": [
                        {
                            "internalType": "uint256",
                            "name": "brawlerType",
                            "type": "uint256"
                        },
                        {
                            "internalType": "string",
                            "name": "name",
                            "type": "string"
                        },
                        {
                            "internalType": "string",
                            "name": "imageURI",
                            "type": "string"
                        },
                        {
                            "internalType": "uint256",
                            "name": "totalHP",
                            "type": "uint256"
                        },
                        {
                            "internalType": "uint256",
                            "name": "damage",
                            "type": "uint256"
                        },
                        {
                            "internalType": "uint256",
                            "name": "defence",
                            "type": "uint256"
                        },
                        {
                            "internalType": "uint256",
                            "name": "critChance",
                            "type": "uint256"
                        },
                        {
                            "internalType": "enum BlockchainBrawlers.SpecialMoveTypes",
                            "name": "specialMove",
                            "type": "uint8"
                        }
                    ],
                    "internalType": "struct BlockchainBrawlers.BrawlerAttributes",
                    "name": "",
                    "type": "tuple"
                }
            ],
            "stateMutability": "view",
            "type": "function"
        },
        {
            "inputs": [
                {
                    "internalType": "uint256",
                    "name": "tokenId",
                    "type": "uint256"
                }
            ],
            "name": "getApproved",
            "outputs": [
                {
                    "internalType": "address",
                    "name": "",
                    "type": "address"
                }
            ],
            "stateMutability": "view",
            "type": "function"
        },
        {
            "inputs": [
                {
                    "internalType": "uint256",
                    "name": "_bossType",
                    "type": "uint256"
                }
            ],
            "name": "getBoss",
            "outputs": [
                {
                    "components": [
                        {
                            "internalType": "uint256",
                            "name": "bossType",
                            "type": "uint256"
                        },
                        {
                            "internalType": "string",
                            "name": "name",
                            "type": "string"
                        },
                        {
                            "internalType": "string",
                            "name": "imageURI",
                            "type": "string"
                        },
                        {
                            "internalType": "uint256",
                            "name": "totalHP",
                            "type": "uint256"
                        },
                        {
                            "internalType": "uint256",
                            "name": "damage",
                            "type": "uint256"
                        },
                        {
                            "internalType": "uint256",
                            "name": "defence",
                            "type": "uint256"
                        },
                        {
                            "internalType": "uint256",
                            "name": "critChance",
                            "type": "uint256"
                        },
                        {
                            "internalType": "enum BlockchainBrawlers.SpecialMoveTypes",
                            "name": "specialMove",
                            "type": "uint8"
                        }
                    ],
                    "internalType": "struct BlockchainBrawlers.BossAttributes",
                    "name": "",
                    "type": "tuple"
                }
            ],
            "stateMutability": "view",
            "type": "function"
        },
        {
            "inputs": [],
            "name": "getBrawlerTypes",
            "outputs": [
                {
                    "components": [
                        {
                            "internalType": "uint256",
                            "name": "brawlerType",
                            "type": "uint256"
                        },
                        {
                            "internalType": "string",
                            "name": "name",
                            "type": "string"
                        },
                        {
                            "internalType": "string",
                            "name": "imageURI",
                            "type": "string"
                        },
                        {
                            "internalType": "uint256",
                            "name": "totalHP",
                            "type": "uint256"
                        },
                        {
                            "internalType": "uint256",
                            "name": "damage",
                            "type": "uint256"
                        },
                        {
                            "internalType": "uint256",
                            "name": "defence",
                            "type": "uint256"
                        },
                        {
                            "internalType": "uint256",
                            "name": "critChance",
                            "type": "uint256"
                        },
                        {
                            "internalType": "enum BlockchainBrawlers.SpecialMoveTypes",
                            "name": "specialMove",
                            "type": "uint8"
                        }
                    ],
                    "internalType": "struct BlockchainBrawlers.BrawlerAttributes[]",
                    "name": "",
                    "type": "tuple[]"
                }
            ],
            "stateMutability": "view",
            "type": "function"
        },
        {
            "inputs": [
                {
                    "internalType": "address",
                    "name": "owner",
                    "type": "address"
                },
                {
                    "internalType": "address",
                    "name": "operator",
                    "type": "address"
                }
            ],
            "name": "isApprovedForAll",
            "outputs": [
                {
                    "internalType": "bool",
                    "name": "",
                    "type": "bool"
                }
            ],
            "stateMutability": "view",
            "type": "function"
        },
        {
            "inputs": [
                {
                    "internalType": "uint256",
                    "name": "_brawlerType",
                    "type": "uint256"
                }
            ],
            "name": "mintBrawler",
            "outputs": [],
            "stateMutability": "nonpayable",
            "type": "function"
        },
        {
            "inputs": [],
            "name": "name",
            "outputs": [
                {
                    "internalType": "string",
                    "name": "",
                    "type": "string"
                }
            ],
            "stateMutability": "view",
            "type": "function"
        },
        {
            "inputs": [],
            "name": "owner",
            "outputs": [
                {
                    "internalType": "address",
                    "name": "",
                    "type": "address"
                }
            ],
            "stateMutability": "view",
            "type": "function"
        },
        {
            "inputs": [
                {
                    "internalType": "uint256",
                    "name": "tokenId",
                    "type": "uint256"
                }
            ],
            "name": "ownerOf",
            "outputs": [
                {
                    "internalType": "address",
                    "name": "",
                    "type": "address"
                }
            ],
            "stateMutability": "view",
            "type": "function"
        },
        {
            "inputs": [
                {
                    "internalType": "address",
                    "name": "",
                    "type": "address"
                }
            ],
            "name": "ownerToTokenId",
            "outputs": [
                {
                    "internalType": "uint256",
                    "name": "",
                    "type": "uint256"
                }
            ],
            "stateMutability": "view",
            "type": "function"
        },
        {
            "inputs": [],
            "name": "renounceOwnership",
            "outputs": [],
            "stateMutability": "nonpayable",
            "type": "function"
        },
        {
            "inputs": [
                {
                    "internalType": "address",
                    "name": "from",
                    "type": "address"
                },
                {
                    "internalType": "address",
                    "name": "to",
                    "type": "address"
                },
                {
                    "internalType": "uint256",
                    "name": "tokenId",
                    "type": "uint256"
                }
            ],
            "name": "safeTransferFrom",
            "outputs": [],
            "stateMutability": "nonpayable",
            "type": "function"
        },
        {
            "inputs": [
                {
                    "internalType": "address",
                    "name": "from",
                    "type": "address"
                },
                {
                    "internalType": "address",
                    "name": "to",
                    "type": "address"
                },
                {
                    "internalType": "uint256",
                    "name": "tokenId",
                    "type": "uint256"
                },
                {
                    "internalType": "bytes",
                    "name": "_data",
                    "type": "bytes"
                }
            ],
            "name": "safeTransferFrom",
            "outputs": [],
            "stateMutability": "nonpayable",
            "type": "function"
        },
        {
            "inputs": [
                {
                    "internalType": "address",
                    "name": "operator",
                    "type": "address"
                },
                {
                    "internalType": "bool",
                    "name": "approved",
                    "type": "bool"
                }
            ],
            "name": "setApprovalForAll",
            "outputs": [],
            "stateMutability": "nonpayable",
            "type": "function"
        },
        {
            "inputs": [
                {
                    "internalType": "bytes4",
                    "name": "interfaceId",
                    "type": "bytes4"
                }
            ],
            "name": "supportsInterface",
            "outputs": [
                {
                    "internalType": "bool",
                    "name": "",
                    "type": "bool"
                }
            ],
            "stateMutability": "view",
            "type": "function"
        },
        {
            "inputs": [],
            "name": "symbol",
            "outputs": [
                {
                    "internalType": "string",
                    "name": "",
                    "type": "string"
                }
            ],
            "stateMutability": "view",
            "type": "function"
        },
        {
            "inputs": [
                {
                    "internalType": "uint256",
                    "name": "",
                    "type": "uint256"
                }
            ],
            "name": "tokenIdToAttributes",
            "outputs": [
                {
                    "internalType": "uint256",
                    "name": "brawlerType",
                    "type": "uint256"
                },
                {
                    "internalType": "string",
                    "name": "name",
                    "type": "string"
                },
                {
                    "internalType": "string",
                    "name": "imageURI",
                    "type": "string"
                },
                {
                    "internalType": "uint256",
                    "name": "totalHP",
                    "type": "uint256"
                },
                {
                    "internalType": "uint256",
                    "name": "damage",
                    "type": "uint256"
                },
                {
                    "internalType": "uint256",
                    "name": "defence",
                    "type": "uint256"
                },
                {
                    "internalType": "uint256",
                    "name": "critChance",
                    "type": "uint256"
                },
                {
                    "internalType": "enum BlockchainBrawlers.SpecialMoveTypes",
                    "name": "specialMove",
                    "type": "uint8"
                }
            ],
            "stateMutability": "view",
            "type": "function"
        },
        {
            "inputs": [
                {
                    "internalType": "uint256",
                    "name": "_tokenId",
                    "type": "uint256"
                }
            ],
            "name": "tokenURI",
            "outputs": [
                {
                    "internalType": "string",
                    "name": "",
                    "type": "string"
                }
            ],
            "stateMutability": "view",
            "type": "function"
        },
        {
            "inputs": [
                {
                    "internalType": "address",
                    "name": "from",
                    "type": "address"
                },
                {
                    "internalType": "address",
                    "name": "to",
                    "type": "address"
                },
                {
                    "internalType": "uint256",
                    "name": "tokenId",
                    "type": "uint256"
                }
            ],
            "name": "transferFrom",
            "outputs": [],
            "stateMutability": "nonpayable",
            "type": "function"
        },
        {
            "inputs": [
                {
                    "internalType": "address",
                    "name": "newOwner",
                    "type": "address"
                }
            ],
            "name": "transferOwnership",
            "outputs": [],
            "stateMutability": "nonpayable",
            "type": "function"
        }
    ],
    "bytecode": "0x60806040523480156200001157600080fd5b50604051620065b6380380620065b6833981810160405281019062000037919062000c0a565b6040518060400160405280601381526020017f426c6f636b636861696e20427261776c657273000000000000000000000000008152506040518060400160405280600581526020017f427261776c0000000000000000000000000000000000000000000000000000008152508160009080519060200190620000bb929190620008b9565b508060019080519060200190620000d4929190620008b9565b505050620000f7620000eb6200070660201b60201c565b6200070e60201b60201c565b60005b8751811015620006e15760086040518061010001604052808381526020018a848151811062000152577f4e487b7100000000000000000000000000000000000000000000000000000000600052603260045260246000fd5b6020026020010151815260200189848151811062000199577f4e487b7100000000000000000000000000000000000000000000000000000000600052603260045260246000fd5b60200260200101518152602001888481518110620001e0577f4e487b7100000000000000000000000000000000000000000000000000000000600052603260045260246000fd5b6020026020010151815260200187848151811062000227577f4e487b7100000000000000000000000000000000000000000000000000000000600052603260045260246000fd5b602002602001015181526020018684815181106200026e577f4e487b7100000000000000000000000000000000000000000000000000000000600052603260045260246000fd5b60200260200101518152602001858481518110620002b5577f4e487b7100000000000000000000000000000000000000000000000000000000600052603260045260246000fd5b60200260200101518152602001848481518110620002fc577f4e487b7100000000000000000000000000000000000000000000000000000000600052603260045260246000fd5b602002602001015160038111156200033d577f4e487b7100000000000000000000000000000000000000000000000000000000600052602160045260246000fd5b815250908060018154018082558091505060019003906000526020600020906008020160009091909190915060008201518160000155602082015181600101908051906020019062000391929190620008b9565b506040820151816002019080519060200190620003b0929190620008b9565b50606082015181600301556080820151816004015560a0820151816005015560c0820151816006015560e08201518160070160006101000a81548160ff021916908360038111156200042b577f4e487b7100000000000000000000000000000000000000000000000000000000600052602160045260246000fd5b021790555050506000600882815481106200046f577f4e487b7100000000000000000000000000000000000000000000000000000000600052603260045260246000fd5b90600052602060002090600802016040518061010001604052908160008201548152602001600182018054620004a59062000f2a565b80601f0160208091040260200160405190810160405280929190818152602001828054620004d39062000f2a565b8015620005245780601f10620004f85761010080835404028352916020019162000524565b820191906000526020600020905b8154815290600101906020018083116200050657829003601f168201915b505050505081526020016002820180546200053f9062000f2a565b80601f01602080910402602001604051908101604052809291908181526020018280546200056d9062000f2a565b8015620005be5780601f106200059257610100808354040283529160200191620005be565b820191906000526020600020905b815481529060010190602001808311620005a057829003601f168201915b50505050508152602001600382015481526020016004820154815260200160058201548152602001600682015481526020016007820160009054906101000a900460ff1660038111156200063b577f4e487b7100000000000000000000000000000000000000000000000000000000600052602160045260246000fd5b600381111562000674577f4e487b7100000000000000000000000000000000000000000000000000000000600052602160045260246000fd5b815250509050620006ca6040518060400160405280601281526020017f4372656174656420627261776c657220257300000000000000000000000000008152508260200151620007d460201b620022d71760201c565b508080620006d89062000f96565b915050620000fa565b620006f860076200087a60201b620023731760201c565b5050505050505050620010ad565b600033905090565b6000600660009054906101000a900473ffffffffffffffffffffffffffffffffffffffff16905081600660006101000a81548173ffffffffffffffffffffffffffffffffffffffff021916908373ffffffffffffffffffffffffffffffffffffffff1602179055508173ffffffffffffffffffffffffffffffffffffffff168173ffffffffffffffffffffffffffffffffffffffff167f8be0079c531659141344cd1fd0a4f28419497f9722a3daafe3b4186f6b6457e060405160405180910390a35050565b620008768282604051602401620007ed92919062000da7565b6040516020818303038152906040527f4b5c4277000000000000000000000000000000000000000000000000000000007bffffffffffffffffffffffffffffffffffffffffffffffffffffffff19166020820180517bffffffffffffffffffffffffffffffffffffffffffffffffffffffff83818316178352505050506200089060201b60201c565b5050565b6001816000016000828254019250508190555050565b60008151905060006a636f6e736f6c652e6c6f679050602083016000808483855afa5050505050565b828054620008c79062000f2a565b90600052602060002090601f016020900481019282620008eb576000855562000937565b82601f106200090657805160ff191683800117855562000937565b8280016001018555821562000937579182015b828111156200093657825182559160200191906001019062000919565b5b5090506200094691906200094a565b5090565b5b80821115620009655760008160009055506001016200094b565b5090565b6000620009806200097a8462000e0b565b62000de2565b90508083825260208201905082856020860282011115620009a057600080fd5b60005b85811015620009d45781620009b9888262000baf565b845260208401935060208301925050600181019050620009a3565b5050509392505050565b6000620009f5620009ef8462000e3a565b62000de2565b9050808382526020820190508285602086028201111562000a1557600080fd5b60005b8581101562000a6457815167ffffffffffffffff81111562000a3957600080fd5b80860162000a48898262000bc6565b8552602085019450602084019350505060018101905062000a18565b5050509392505050565b600062000a8562000a7f8462000e69565b62000de2565b9050808382526020820190508285602086028201111562000aa557600080fd5b60005b8581101562000ad9578162000abe888262000bf3565b84526020840193506020830192505060018101905062000aa8565b5050509392505050565b600062000afa62000af48462000e98565b62000de2565b90508281526020810184848401111562000b1357600080fd5b62000b2084828562000ef4565b509392505050565b600082601f83011262000b3a57600080fd5b815162000b4c84826020860162000969565b91505092915050565b600082601f83011262000b6757600080fd5b815162000b79848260208601620009de565b91505092915050565b600082601f83011262000b9457600080fd5b815162000ba684826020860162000a6e565b91505092915050565b60008151905062000bc08162001082565b92915050565b600082601f83011262000bd857600080fd5b815162000bea84826020860162000ae3565b91505092915050565b60008151905062000c048162001093565b92915050565b600080600080600080600060e0888a03121562000c2657600080fd5b600088015167ffffffffffffffff81111562000c4157600080fd5b62000c4f8a828b0162000b55565b975050602088015167ffffffffffffffff81111562000c6d57600080fd5b62000c7b8a828b0162000b55565b965050604088015167ffffffffffffffff81111562000c9957600080fd5b62000ca78a828b0162000b82565b955050606088015167ffffffffffffffff81111562000cc557600080fd5b62000cd38a828b0162000b82565b945050608088015167ffffffffffffffff81111562000cf157600080fd5b62000cff8a828b0162000b82565b93505060a088015167ffffffffffffffff81111562000d1d57600080fd5b62000d2b8a828b0162000b82565b92505060c088015167ffffffffffffffff81111562000d4957600080fd5b62000d578a828b0162000b28565b91505092959891949750929550565b600062000d738262000ece565b62000d7f818562000ed9565b935062000d9181856020860162000ef4565b62000d9c8162001071565b840191505092915050565b6000604082019050818103600083015262000dc3818562000d66565b9050818103602083015262000dd9818462000d66565b90509392505050565b600062000dee62000e01565b905062000dfc828262000f60565b919050565b6000604051905090565b600067ffffffffffffffff82111562000e295762000e2862001042565b5b602082029050602081019050919050565b600067ffffffffffffffff82111562000e585762000e5762001042565b5b602082029050602081019050919050565b600067ffffffffffffffff82111562000e875762000e8662001042565b5b602082029050602081019050919050565b600067ffffffffffffffff82111562000eb65762000eb562001042565b5b62000ec18262001071565b9050602081019050919050565b600081519050919050565b600082825260208201905092915050565b6000819050919050565b60005b8381101562000f1457808201518184015260208101905062000ef7565b8381111562000f24576000848401525b50505050565b6000600282049050600182168062000f4357607f821691505b6020821081141562000f5a5762000f5962001013565b5b50919050565b62000f6b8262001071565b810181811067ffffffffffffffff8211171562000f8d5762000f8c62001042565b5b80604052505050565b600062000fa38262000eea565b91507fffffffffffffffffffffffffffffffffffffffffffffffffffffffffffffffff82141562000fd95762000fd862000fe4565b5b600182019050919050565b7f4e487b7100000000000000000000000000000000000000000000000000000000600052601160045260246000fd5b7f4e487b7100000000000000000000000000000000000000000000000000000000600052602260045260246000fd5b7f4e487b7100000000000000000000000000000000000000000000000000000000600052604160045260246000fd5b6000601f19601f8301169050919050565b600481106200109057600080fd5b50565b6200109e8162000eea565b8114620010aa57600080fd5b50565b6154f980620010bd6000396000f3fe608060405234801561001057600080fd5b50600436106101585760003560e01c80635bf17182116100c357806395d89b411161007c57806395d89b41146103f9578063a22cb46514610417578063b88d4fde14610433578063c87b56dd1461044f578063e985e9c51461047f578063f2fde38b146104af57610158565b80635bf171821461031c5780635dff3a77146103535780636352211e1461037157806370a08231146103a1578063715018a6146103d15780638da5cb5b146103db57610158565b80631f600bfc116101155780631f600bfc1461025e57806323b872dd1461027a57806325a1b2a01461029657806342842e0e146102b45780634814f035146102d0578063561f76811461030057610158565b806301ffc9a71461015d57806306fdde031461018d578063081812fc146101ab578063095ea7b3146101db5780630e63c7ad146101f75780631177f37914610227575b600080fd5b61017760048036038101906101729190613a14565b6104cb565b6040516101849190614486565b60405180910390f35b6101956105ad565b6040516101a291906144a1565b60405180910390f35b6101c560048036038101906101c09190613b34565b61063f565b6040516101d291906143c6565b60405180910390f35b6101f560048036038101906101f091906139d8565b6106c4565b005b610211600480360381019061020c9190613b34565b6107dc565b60405161021e9190614738565b60405180910390f35b610241600480360381019061023c9190613b34565b610a1c565b604051610255989796959493929190614797565b60405180910390f35b61027860048036038101906102739190613b34565b610b81565b005b610294600480360381019061028f91906138d2565b61102c565b005b61029e61108c565b6040516102ab9190614464565b60405180910390f35b6102ce60048036038101906102c991906138d2565b6112c9565b005b6102ea60048036038101906102e5919061386d565b6112e9565b6040516102f7919061477c565b60405180910390f35b61031a60048036038101906103159190613a66565b611301565b005b61033660048036038101906103319190613b34565b61176b565b60405161034a989796959493929190614797565b60405180910390f35b61035b6118e0565b604051610368919061475a565b60405180910390f35b61038b60048036038101906103869190613b34565b611b4a565b60405161039891906143c6565b60405180910390f35b6103bb60048036038101906103b6919061386d565b611bfc565b6040516103c8919061477c565b60405180910390f35b6103d9611cb4565b005b6103e3611d3c565b6040516103f091906143c6565b60405180910390f35b610401611d66565b60405161040e91906144a1565b60405180910390f35b610431600480360381019061042c919061399c565b611df8565b005b61044d60048036038101906104489190613921565b611e0e565b005b61046960048036038101906104649190613b34565b611e70565b60405161047691906144a1565b60405180910390f35b61049960048036038101906104949190613896565b61214b565b6040516104a69190614486565b60405180910390f35b6104c960048036038101906104c4919061386d565b6121df565b005b60007f80ac58cd000000000000000000000000000000000000000000000000000000007bffffffffffffffffffffffffffffffffffffffffffffffffffffffff1916827bffffffffffffffffffffffffffffffffffffffffffffffffffffffff1916148061059657507f5b5e139f000000000000000000000000000000000000000000000000000000007bffffffffffffffffffffffffffffffffffffffffffffffffffffffff1916827bffffffffffffffffffffffffffffffffffffffffffffffffffffffff1916145b806105a657506105a582612389565b5b9050919050565b6060600080546105bc90614b27565b80601f01602080910402602001604051908101604052809291908181526020018280546105e890614b27565b80156106355780601f1061060a57610100808354040283529160200191610635565b820191906000526020600020905b81548152906001019060200180831161061857829003601f168201915b5050505050905090565b600061064a826123f3565b610689576040517f08c379a000000000000000000000000000000000000000000000000000000000815260040161068090614698565b60405180910390fd5b6004600083815260200190815260200160002060009054906101000a900473ffffffffffffffffffffffffffffffffffffffff169050919050565b60006106cf82611b4a565b90508073ffffffffffffffffffffffffffffffffffffffff168373ffffffffffffffffffffffffffffffffffffffff161415610740576040517f08c379a0000000000000000000000000000000000000000000000000000000008152600401610737906146f8565b60405180910390fd5b8073ffffffffffffffffffffffffffffffffffffffff1661075f61245f565b73ffffffffffffffffffffffffffffffffffffffff16148061078e575061078d8161078861245f565b61214b565b5b6107cd576040517f08c379a00000000000000000000000000000000000000000000000000000000081526004016107c490614618565b60405180910390fd5b6107d78383612467565b505050565b6107e4613582565b6009828154811061081e577f4e487b7100000000000000000000000000000000000000000000000000000000600052603260045260246000fd5b9060005260206000209060080201604051806101000160405290816000820154815260200160018201805461085290614b27565b80601f016020809104026020016040519081016040528092919081815260200182805461087e90614b27565b80156108cb5780601f106108a0576101008083540402835291602001916108cb565b820191906000526020600020905b8154815290600101906020018083116108ae57829003601f168201915b505050505081526020016002820180546108e490614b27565b80601f016020809104026020016040519081016040528092919081815260200182805461091090614b27565b801561095d5780601f106109325761010080835404028352916020019161095d565b820191906000526020600020905b81548152906001019060200180831161094057829003601f168201915b50505050508152602001600382015481526020016004820154815260200160058201548152602001600682015481526020016007820160009054906101000a900460ff1660038111156109d9577f4e487b7100000000000000000000000000000000000000000000000000000000600052602160045260246000fd5b6003811115610a11577f4e487b7100000000000000000000000000000000000000000000000000000000600052602160045260246000fd5b815250509050919050565b600a602052806000526040600020600091509050806000015490806001018054610a4590614b27565b80601f0160208091040260200160405190810160405280929190818152602001828054610a7190614b27565b8015610abe5780601f10610a9357610100808354040283529160200191610abe565b820191906000526020600020905b815481529060010190602001808311610aa157829003601f168201915b505050505090806002018054610ad390614b27565b80601f0160208091040260200160405190810160405280929190818152602001828054610aff90614b27565b8015610b4c5780601f10610b2157610100808354040283529160200191610b4c565b820191906000526020600020905b815481529060010190602001808311610b2f57829003601f168201915b5050505050908060030154908060040154908060050154908060060154908060070160009054906101000a900460ff16905088565b6008805490508110610bc8576040517f08c379a0000000000000000000000000000000000000000000000000000000008152600401610bbf906145f8565b60405180910390fd5b6000610bd46007612520565b9050610be0338261252e565b600060088381548110610c1c577f4e487b7100000000000000000000000000000000000000000000000000000000600052603260045260246000fd5b90600052602060002090600802016040518061010001604052908160008201548152602001600182018054610c5090614b27565b80601f0160208091040260200160405190810160405280929190818152602001828054610c7c90614b27565b8015610cc95780601f10610c9e57610100808354040283529160200191610cc9565b820191906000526020600020905b815481529060010190602001808311610cac57829003601f168201915b50505050508152602001600282018054610ce290614b27565b80601f0160208091040260200160405190810160405280929190818152602001828054610d0e90614b27565b8015610d5b5780601f10610d3057610100808354040283529160200191610d5b565b820191906000526020600020905b815481529060010190602001808311610d3e57829003601f168201915b50505050508152602001600382015481526020016004820154815260200160058201548152602001600682015481526020016007820160009054906101000a900460ff166003811115610dd7577f4e487b7100000000000000000000000000000000000000000000000000000000600052602160045260246000fd5b6003811115610e0f577f4e487b7100000000000000000000000000000000000000000000000000000000600052602160045260246000fd5b815250509050604051806101000160405280848152602001826020015181526020018260400151815260200182606001518152602001826080015181526020018260a0015181526020018260c0015181526020018260e001516003811115610ea0577f4e487b7100000000000000000000000000000000000000000000000000000000600052602160045260246000fd5b815250600a6000848152602001908152602001600020600082015181600001556020820151816001019080519060200190610edc9291906135ff565b506040820151816002019080519060200190610ef99291906135ff565b50606082015181600301556080820151816004015560a0820151816005015560c0820151816006015560e08201518160070160006101000a81548160ff02191690836003811115610f73577f4e487b7100000000000000000000000000000000000000000000000000000000600052602160045260246000fd5b021790555090505081600b60003373ffffffffffffffffffffffffffffffffffffffff1673ffffffffffffffffffffffffffffffffffffffff16815260200190815260200160002081905550610fe26040518060600160405280602d8152602001615457602d9139838561254c565b610fec6007612373565b7fb0d2e44562b01041f350e199659bf77908fe18724640c374cc736d553a77311933838560405161101f9392919061442d565b60405180910390a1505050565b61103d61103761245f565b826125eb565b61107c576040517f08c379a000000000000000000000000000000000000000000000000000000000815260040161107390614718565b60405180910390fd5b6110878383836126c9565b505050565b60606008805480602002602001604051908101604052809291908181526020016000905b828210156112c0578382906000526020600020906008020160405180610100016040529081600082015481526020016001820180546110ee90614b27565b80601f016020809104026020016040519081016040528092919081815260200182805461111a90614b27565b80156111675780601f1061113c57610100808354040283529160200191611167565b820191906000526020600020905b81548152906001019060200180831161114a57829003601f168201915b5050505050815260200160028201805461118090614b27565b80601f01602080910402602001604051908101604052809291908181526020018280546111ac90614b27565b80156111f95780601f106111ce576101008083540402835291602001916111f9565b820191906000526020600020905b8154815290600101906020018083116111dc57829003601f168201915b50505050508152602001600382015481526020016004820154815260200160058201548152602001600682015481526020016007820160009054906101000a900460ff166003811115611275577f4e487b7100000000000000000000000000000000000000000000000000000000600052602160045260246000fd5b60038111156112ad577f4e487b7100000000000000000000000000000000000000000000000000000000600052602160045260246000fd5b81525050815260200190600101906110b0565b50505050905090565b6112e483838360405180602001604052806000815250611e0e565b505050565b600b6020528060005260406000206000915090505481565b61130961245f565b73ffffffffffffffffffffffffffffffffffffffff16611327611d3c565b73ffffffffffffffffffffffffffffffffffffffff161461137d576040517f08c379a0000000000000000000000000000000000000000000000000000000008152600401611374906146b8565b60405180910390fd5b6000600980549050905060096040518061010001604052808381526020018a81526020018981526020018881526020018781526020018681526020018581526020018460038111156113f8577f4e487b7100000000000000000000000000000000000000000000000000000000600052602160045260246000fd5b815250908060018154018082558091505060019003906000526020600020906008020160009091909190915060008201518160000155602082015181600101908051906020019061144a9291906135ff565b5060408201518160020190805190602001906114679291906135ff565b50606082015181600301556080820151816004015560a0820151816005015560c0820151816006015560e08201518160070160006101000a81548160ff021916908360038111156114e1577f4e487b7100000000000000000000000000000000000000000000000000000000600052602160045260246000fd5b02179055505050600060098281548110611524577f4e487b7100000000000000000000000000000000000000000000000000000000600052603260045260246000fd5b9060005260206000209060080201604051806101000160405290816000820154815260200160018201805461155890614b27565b80601f016020809104026020016040519081016040528092919081815260200182805461158490614b27565b80156115d15780601f106115a6576101008083540402835291602001916115d1565b820191906000526020600020905b8154815290600101906020018083116115b457829003601f168201915b505050505081526020016002820180546115ea90614b27565b80601f016020809104026020016040519081016040528092919081815260200182805461161690614b27565b80156116635780601f1061163857610100808354040283529160200191611663565b820191906000526020600020905b81548152906001019060200180831161164657829003601f168201915b50505050508152602001600382015481526020016004820154815260200160058201548152602001600682015481526020016007820160009054906101000a900460ff1660038111156116df577f4e487b7100000000000000000000000000000000000000000000000000000000600052602160045260246000fd5b6003811115611717577f4e487b7100000000000000000000000000000000000000000000000000000000600052602160045260246000fd5b8152505090506117606040518060400160405280600f81526020017f4372656174656420626f7373202573000000000000000000000000000000000081525082602001516122d7565b505050505050505050565b6009818154811061177b57600080fd5b90600052602060002090600802016000915090508060000154908060010180546117a490614b27565b80601f01602080910402602001604051908101604052809291908181526020018280546117d090614b27565b801561181d5780601f106117f25761010080835404028352916020019161181d565b820191906000526020600020905b81548152906001019060200180831161180057829003601f168201915b50505050509080600201805461183290614b27565b80601f016020809104026020016040519081016040528092919081815260200182805461185e90614b27565b80156118ab5780601f10611880576101008083540402835291602001916118ab565b820191906000526020600020905b81548152906001019060200180831161188e57829003601f168201915b5050505050908060030154908060040154908060050154908060060154908060070160009054906101000a900460ff16905088565b6118e8613685565b6000600b60003373ffffffffffffffffffffffffffffffffffffffff1673ffffffffffffffffffffffffffffffffffffffff1681526020019081526020016000205490506000811115611b3957600a6000828152602001908152602001600020604051806101000160405290816000820154815260200160018201805461196e90614b27565b80601f016020809104026020016040519081016040528092919081815260200182805461199a90614b27565b80156119e75780601f106119bc576101008083540402835291602001916119e7565b820191906000526020600020905b8154815290600101906020018083116119ca57829003601f168201915b50505050508152602001600282018054611a0090614b27565b80601f0160208091040260200160405190810160405280929190818152602001828054611a2c90614b27565b8015611a795780601f10611a4e57610100808354040283529160200191611a79565b820191906000526020600020905b815481529060010190602001808311611a5c57829003601f168201915b50505050508152602001600382015481526020016004820154815260200160058201548152602001600682015481526020016007820160009054906101000a900460ff166003811115611af5577f4e487b7100000000000000000000000000000000000000000000000000000000600052602160045260246000fd5b6003811115611b2d577f4e487b7100000000000000000000000000000000000000000000000000000000600052602160045260246000fd5b81525050915050611b47565b611b41613685565b80925050505b90565b6000806002600084815260200190815260200160002060009054906101000a900473ffffffffffffffffffffffffffffffffffffffff169050600073ffffffffffffffffffffffffffffffffffffffff168173ffffffffffffffffffffffffffffffffffffffff161415611bf3576040517f08c379a0000000000000000000000000000000000000000000000000000000008152600401611bea90614658565b60405180910390fd5b80915050919050565b60008073ffffffffffffffffffffffffffffffffffffffff168273ffffffffffffffffffffffffffffffffffffffff161415611c6d576040517f08c379a0000000000000000000000000000000000000000000000000000000008152600401611c6490614638565b60405180910390fd5b600360008373ffffffffffffffffffffffffffffffffffffffff1673ffffffffffffffffffffffffffffffffffffffff168152602001908152602001600020549050919050565b611cbc61245f565b73ffffffffffffffffffffffffffffffffffffffff16611cda611d3c565b73ffffffffffffffffffffffffffffffffffffffff1614611d30576040517f08c379a0000000000000000000000000000000000000000000000000000000008152600401611d27906146b8565b60405180910390fd5b611d3a6000612925565b565b6000600660009054906101000a900473ffffffffffffffffffffffffffffffffffffffff16905090565b606060018054611d7590614b27565b80601f0160208091040260200160405190810160405280929190818152602001828054611da190614b27565b8015611dee5780601f10611dc357610100808354040283529160200191611dee565b820191906000526020600020905b815481529060010190602001808311611dd157829003601f168201915b5050505050905090565b611e0a611e0361245f565b83836129eb565b5050565b611e1f611e1961245f565b836125eb565b611e5e576040517f08c379a0000000000000000000000000000000000000000000000000000000008152600401611e5590614718565b60405180910390fd5b611e6a84848484612b58565b50505050565b60606000600a60008481526020019081526020016000206040518061010001604052908160008201548152602001600182018054611ead90614b27565b80601f0160208091040260200160405190810160405280929190818152602001828054611ed990614b27565b8015611f265780601f10611efb57610100808354040283529160200191611f26565b820191906000526020600020905b815481529060010190602001808311611f0957829003601f168201915b50505050508152602001600282018054611f3f90614b27565b80601f0160208091040260200160405190810160405280929190818152602001828054611f6b90614b27565b8015611fb85780601f10611f8d57610100808354040283529160200191611fb8565b820191906000526020600020905b815481529060010190602001808311611f9b57829003601f168201915b50505050508152602001600382015481526020016004820154815260200160058201548152602001600682015481526020016007820160009054906101000a900460ff166003811115612034577f4e487b7100000000000000000000000000000000000000000000000000000000600052602160045260246000fd5b600381111561206c577f4e487b7100000000000000000000000000000000000000000000000000000000600052602160045260246000fd5b815250509050600061207d84612bb4565b9050600061208e8360600151612bb4565b9050600061209f8460800151612bb4565b905060006120b08560a00151612bb4565b905060006120c18660c00151612bb4565b905060006120d28760e00151612d61565b905060006121148860200151888a6040015189898989896040516020016121009897969594939291906142cf565b604051602081830303815290604052612fc3565b905060008160405160200161212991906143a4565b6040516020818303038152906040529050809950505050505050505050919050565b6000600560008473ffffffffffffffffffffffffffffffffffffffff1673ffffffffffffffffffffffffffffffffffffffff16815260200190815260200160002060008373ffffffffffffffffffffffffffffffffffffffff1673ffffffffffffffffffffffffffffffffffffffff16815260200190815260200160002060009054906101000a900460ff16905092915050565b6121e761245f565b73ffffffffffffffffffffffffffffffffffffffff16612205611d3c565b73ffffffffffffffffffffffffffffffffffffffff161461225b576040517f08c379a0000000000000000000000000000000000000000000000000000000008152600401612252906146b8565b60405180910390fd5b600073ffffffffffffffffffffffffffffffffffffffff168173ffffffffffffffffffffffffffffffffffffffff1614156122cb576040517f08c379a00000000000000000000000000000000000000000000000000000000081526004016122c290614558565b60405180910390fd5b6122d481612925565b50565b61236f82826040516024016122ed9291906144c3565b6040516020818303038152906040527f4b5c4277000000000000000000000000000000000000000000000000000000007bffffffffffffffffffffffffffffffffffffffffffffffffffffffff19166020820180517bffffffffffffffffffffffffffffffffffffffffffffffffffffffff8381831617835250505050613181565b5050565b6001816000016000828254019250508190555050565b60007f01ffc9a7000000000000000000000000000000000000000000000000000000007bffffffffffffffffffffffffffffffffffffffffffffffffffffffff1916827bffffffffffffffffffffffffffffffffffffffffffffffffffffffff1916149050919050565b60008073ffffffffffffffffffffffffffffffffffffffff166002600084815260200190815260200160002060009054906101000a900473ffffffffffffffffffffffffffffffffffffffff1673ffffffffffffffffffffffffffffffffffffffff1614159050919050565b600033905090565b816004600083815260200190815260200160002060006101000a81548173ffffffffffffffffffffffffffffffffffffffff021916908373ffffffffffffffffffffffffffffffffffffffff160217905550808273ffffffffffffffffffffffffffffffffffffffff166124da83611b4a565b73ffffffffffffffffffffffffffffffffffffffff167f8c5be1e5ebec7d5bd14f71427d1e84f3dd0314c0f7b2291e5b200ac8c7c3b92560405160405180910390a45050565b600081600001549050919050565b6125488282604051806020016040528060008152506131aa565b5050565b6125e6838383604051602401612564939291906144fa565b6040516020818303038152906040527f969cdd03000000000000000000000000000000000000000000000000000000007bffffffffffffffffffffffffffffffffffffffffffffffffffffffff19166020820180517bffffffffffffffffffffffffffffffffffffffffffffffffffffffff8381831617835250505050613181565b505050565b60006125f6826123f3565b612635576040517f08c379a000000000000000000000000000000000000000000000000000000000815260040161262c906145d8565b60405180910390fd5b600061264083611b4a565b90508073ffffffffffffffffffffffffffffffffffffffff168473ffffffffffffffffffffffffffffffffffffffff1614806126af57508373ffffffffffffffffffffffffffffffffffffffff166126978461063f565b73ffffffffffffffffffffffffffffffffffffffff16145b806126c057506126bf818561214b565b5b91505092915050565b8273ffffffffffffffffffffffffffffffffffffffff166126e982611b4a565b73ffffffffffffffffffffffffffffffffffffffff161461273f576040517f08c379a0000000000000000000000000000000000000000000000000000000008152600401612736906146d8565b60405180910390fd5b600073ffffffffffffffffffffffffffffffffffffffff168273ffffffffffffffffffffffffffffffffffffffff1614156127af576040517f08c379a00000000000000000000000000000000000000000000000000000000081526004016127a690614598565b60405180910390fd5b6127ba838383613205565b6127c5600082612467565b6001600360008573ffffffffffffffffffffffffffffffffffffffff1673ffffffffffffffffffffffffffffffffffffffff16815260200190815260200160002060008282546128159190614a18565b925050819055506001600360008473ffffffffffffffffffffffffffffffffffffffff1673ffffffffffffffffffffffffffffffffffffffff168152602001908152602001600020600082825461286c9190614937565b92505081905550816002600083815260200190815260200160002060006101000a81548173ffffffffffffffffffffffffffffffffffffffff021916908373ffffffffffffffffffffffffffffffffffffffff160217905550808273ffffffffffffffffffffffffffffffffffffffff168473ffffffffffffffffffffffffffffffffffffffff167fddf252ad1be2c89b69c2b068fc378daa952ba7f163c4a11628f55a4df523b3ef60405160405180910390a4505050565b6000600660009054906101000a900473ffffffffffffffffffffffffffffffffffffffff16905081600660006101000a81548173ffffffffffffffffffffffffffffffffffffffff021916908373ffffffffffffffffffffffffffffffffffffffff1602179055508173ffffffffffffffffffffffffffffffffffffffff168173ffffffffffffffffffffffffffffffffffffffff167f8be0079c531659141344cd1fd0a4f28419497f9722a3daafe3b4186f6b6457e060405160405180910390a35050565b8173ffffffffffffffffffffffffffffffffffffffff168373ffffffffffffffffffffffffffffffffffffffff161415612a5a576040517f08c379a0000000000000000000000000000000000000000000000000000000008152600401612a51906145b8565b60405180910390fd5b80600560008573ffffffffffffffffffffffffffffffffffffffff1673ffffffffffffffffffffffffffffffffffffffff16815260200190815260200160002060008473ffffffffffffffffffffffffffffffffffffffff1673ffffffffffffffffffffffffffffffffffffffff16815260200190815260200160002060006101000a81548160ff0219169083151502179055508173ffffffffffffffffffffffffffffffffffffffff168373ffffffffffffffffffffffffffffffffffffffff167f17307eab39ab6107e8899845ad3d59bd9653f200f220920489ca2b5937696c3183604051612b4b9190614486565b60405180910390a3505050565b612b638484846126c9565b612b6f8484848461320a565b612bae576040517f08c379a0000000000000000000000000000000000000000000000000000000008152600401612ba590614538565b60405180910390fd5b50505050565b60606000821415612bfc576040518060400160405280600181526020017f30000000000000000000000000000000000000000000000000000000000000008152509050612d5c565b600082905060005b60008214612c2e578080612c1790614b8a565b915050600a82612c27919061498d565b9150612c04565b60008167ffffffffffffffff811115612c70577f4e487b7100000000000000000000000000000000000000000000000000000000600052604160045260246000fd5b6040519080825280601f01601f191660200182016040528015612ca25781602001600182028036833780820191505090505b5090505b60008514612d5557600182612cbb9190614a18565b9150600a85612cca9190614bd3565b6030612cd69190614937565b60f81b818381518110612d12577f4e487b7100000000000000000000000000000000000000000000000000000000600052603260045260246000fd5b60200101907effffffffffffffffffffffffffffffffffffffffffffffffffffffffffffff1916908160001a905350600a85612d4e919061498d565b9450612ca6565b8093505050505b919050565b606060006003811115612d9d577f4e487b7100000000000000000000000000000000000000000000000000000000600052602160045260246000fd5b826003811115612dd6577f4e487b7100000000000000000000000000000000000000000000000000000000600052602160045260246000fd5b1415612e19576040518060400160405280600481526020017f4865616c000000000000000000000000000000000000000000000000000000008152509050612fbe565b60016003811115612e53577f4e487b7100000000000000000000000000000000000000000000000000000000600052602160045260246000fd5b826003811115612e8c577f4e487b7100000000000000000000000000000000000000000000000000000000600052602160045260246000fd5b1415612ecf576040518060400160405280600f81526020017f496e6372656173652044616d61676500000000000000000000000000000000008152509050612fbe565b60026003811115612f09577f4e487b7100000000000000000000000000000000000000000000000000000000600052602160045260246000fd5b826003811115612f42577f4e487b7100000000000000000000000000000000000000000000000000000000600052602160045260246000fd5b1415612f85576040518060400160405280601081526020017f496e63726561736520446566656e6365000000000000000000000000000000008152509050612fbe565b6040518060400160405280601481526020017f496e6372656173652043726974204368616e636500000000000000000000000081525090505b919050565b60606000825190506000811415612fec576040518060200160405280600081525091505061317c565b60006003600283612ffd9190614937565b613007919061498d565b600461301391906149be565b905060006020826130249190614937565b67ffffffffffffffff811115613063577f4e487b7100000000000000000000000000000000000000000000000000000000600052604160045260246000fd5b6040519080825280601f01601f1916602001820160405280156130955781602001600182028036833780820191505090505b5090506000604051806060016040528060408152602001615484604091399050600181016020830160005b868110156131395760038101905062ffffff818a015116603f8160121c168401518060081b905060ff603f83600c1c1686015116810190508060081b905060ff603f8360061c1686015116810190508060081b905060ff603f831686015116810190508060e01b905080845260048401935050506130c0565b50600386066001811461315357600281146131635761316e565b613d3d60f01b600283035261316e565b603d60f81b60018303525b508484525050819450505050505b919050565b60008151905060006a636f6e736f6c652e6c6f679050602083016000808483855afa5050505050565b6131b483836133a1565b6131c1600084848461320a565b613200576040517f08c379a00000000000000000000000000000000000000000000000000000000081526004016131f790614538565b60405180910390fd5b505050565b505050565b600061322b8473ffffffffffffffffffffffffffffffffffffffff1661356f565b15613394578373ffffffffffffffffffffffffffffffffffffffff1663150b7a0261325461245f565b8786866040518563ffffffff1660e01b815260040161327694939291906143e1565b602060405180830381600087803b15801561329057600080fd5b505af19250505080156132c157506040513d601f19601f820116820180604052508101906132be9190613a3d565b60015b613344573d80600081146132f1576040519150601f19603f3d011682016040523d82523d6000602084013e6132f6565b606091505b5060008151141561333c576040517f08c379a000000000000000000000000000000000000000000000000000000000815260040161333390614538565b60405180910390fd5b805181602001fd5b63150b7a0260e01b7bffffffffffffffffffffffffffffffffffffffffffffffffffffffff1916817bffffffffffffffffffffffffffffffffffffffffffffffffffffffff191614915050613399565b600190505b949350505050565b600073ffffffffffffffffffffffffffffffffffffffff168273ffffffffffffffffffffffffffffffffffffffff161415613411576040517f08c379a000000000000000000000000000000000000000000000000000000000815260040161340890614678565b60405180910390fd5b61341a816123f3565b1561345a576040517f08c379a000000000000000000000000000000000000000000000000000000000815260040161345190614578565b60405180910390fd5b61346660008383613205565b6001600360008473ffffffffffffffffffffffffffffffffffffffff1673ffffffffffffffffffffffffffffffffffffffff16815260200190815260200160002060008282546134b69190614937565b92505081905550816002600083815260200190815260200160002060006101000a81548173ffffffffffffffffffffffffffffffffffffffff021916908373ffffffffffffffffffffffffffffffffffffffff160217905550808273ffffffffffffffffffffffffffffffffffffffff16600073ffffffffffffffffffffffffffffffffffffffff167fddf252ad1be2c89b69c2b068fc378daa952ba7f163c4a11628f55a4df523b3ef60405160405180910390a45050565b600080823b905060008111915050919050565b60405180610100016040528060008152602001606081526020016060815260200160008152602001600081526020016000815260200160008152602001600060038111156135f9577f4e487b7100000000000000000000000000000000000000000000000000000000600052602160045260246000fd5b81525090565b82805461360b90614b27565b90600052602060002090601f01602090048101928261362d5760008555613674565b82601f1061364657805160ff1916838001178555613674565b82800160010185558215613674579182015b82811115613673578251825591602001919060010190613658565b5b5090506136819190613702565b5090565b60405180610100016040528060008152602001606081526020016060815260200160008152602001600081526020016000815260200160008152602001600060038111156136fc577f4e487b7100000000000000000000000000000000000000000000000000000000600052602160045260246000fd5b81525090565b5b8082111561371b576000816000905550600101613703565b5090565b600061373261372d84614848565b614823565b90508281526020810184848401111561374a57600080fd5b613755848285614ae5565b509392505050565b600061377061376b84614879565b614823565b90508281526020810184848401111561378857600080fd5b613793848285614ae5565b509392505050565b6000813590506137aa816153ea565b92915050565b6000813590506137bf81615401565b92915050565b6000813590506137d481615418565b92915050565b6000815190506137e981615418565b92915050565b600082601f83011261380057600080fd5b813561381084826020860161371f565b91505092915050565b6000813590506138288161542f565b92915050565b600082601f83011261383f57600080fd5b813561384f84826020860161375d565b91505092915050565b6000813590506138678161543f565b92915050565b60006020828403121561387f57600080fd5b600061388d8482850161379b565b91505092915050565b600080604083850312156138a957600080fd5b60006138b78582860161379b565b92505060206138c88582860161379b565b9150509250929050565b6000806000606084860312156138e757600080fd5b60006138f58682870161379b565b93505060206139068682870161379b565b925050604061391786828701613858565b9150509250925092565b6000806000806080858703121561393757600080fd5b60006139458782880161379b565b94505060206139568782880161379b565b935050604061396787828801613858565b925050606085013567ffffffffffffffff81111561398457600080fd5b613990878288016137ef565b91505092959194509250565b600080604083850312156139af57600080fd5b60006139bd8582860161379b565b92505060206139ce858286016137b0565b9150509250929050565b600080604083850312156139eb57600080fd5b60006139f98582860161379b565b9250506020613a0a85828601613858565b9150509250929050565b600060208284031215613a2657600080fd5b6000613a34848285016137c5565b91505092915050565b600060208284031215613a4f57600080fd5b6000613a5d848285016137da565b91505092915050565b600080600080600080600060e0888a031215613a8157600080fd5b600088013567ffffffffffffffff811115613a9b57600080fd5b613aa78a828b0161382e565b975050602088013567ffffffffffffffff811115613ac457600080fd5b613ad08a828b0161382e565b9650506040613ae18a828b01613858565b9550506060613af28a828b01613858565b9450506080613b038a828b01613858565b93505060a0613b148a828b01613858565b92505060c0613b258a828b01613819565b91505092959891949750929550565b600060208284031215613b4657600080fd5b6000613b5484828501613858565b91505092915050565b6000613b698383614143565b905092915050565b613b7a81614a4c565b82525050565b6000613b8b826148ba565b613b9581856148e8565b935083602082028501613ba7856148aa565b8060005b85811015613be35784840389528151613bc48582613b5d565b9450613bcf836148db565b925060208a01995050600181019050613bab565b50829750879550505050505092915050565b613bfe81614a5e565b82525050565b6000613c0f826148c5565b613c1981856148f9565b9350613c29818560208601614af4565b613c3281614cef565b840191505092915050565b613c4681614ad3565b82525050565b613c5581614ad3565b82525050565b6000613c66826148d0565b613c70818561490a565b9350613c80818560208601614af4565b613c8981614cef565b840191505092915050565b6000613c9f826148d0565b613ca9818561491b565b9350613cb9818560208601614af4565b613cc281614cef565b840191505092915050565b6000613cd8826148d0565b613ce2818561492c565b9350613cf2818560208601614af4565b80840191505092915050565b6000613d0b602d8361492c565b9150613d1682614d00565b602d82019050919050565b6000613d2e60058361492c565b9150613d3982614d4f565b600582019050919050565b6000613d5160268361492c565b9150613d5c82614d78565b602682019050919050565b6000613d7460328361491b565b9150613d7f82614dc7565b604082019050919050565b6000613d9760268361491b565b9150613da282614e16565b604082019050919050565b6000613dba601c8361491b565b9150613dc582614e65565b602082019050919050565b6000613ddd60248361491b565b9150613de882614e8e565b604082019050919050565b6000613e0060198361491b565b9150613e0b82614edd565b602082019050919050565b6000613e2360268361492c565b9150613e2e82614f06565b602682019050919050565b6000613e46602c8361491b565b9150613e5182614f55565b604082019050919050565b6000613e6960038361492c565b9150613e7482614fa4565b600382019050919050565b6000613e8c601b8361491b565b9150613e9782614fcd565b602082019050919050565b6000613eaf60388361492c565b9150613eba82614ff6565b603882019050919050565b6000613ed260388361491b565b9150613edd82615045565b604082019050919050565b6000613ef5604b8361492c565b9150613f0082615094565b604b82019050919050565b6000613f18602a8361491b565b9150613f2382615109565b604082019050919050565b6000613f3b60298361491b565b9150613f4682615158565b604082019050919050565b6000613f5e60208361491b565b9150613f69826151a7565b602082019050919050565b6000613f81602c8361491b565b9150613f8c826151d0565b604082019050919050565b6000613fa460208361491b565b9150613faf8261521f565b602082019050919050565b6000613fc760298361491b565b9150613fd282615248565b604082019050919050565b6000613fea600a8361492c565b9150613ff582615297565b600a82019050919050565b600061400d60218361491b565b9150614018826152c0565b604082019050919050565b6000614030601d8361492c565b915061403b8261530f565b601d82019050919050565b600061405360338361492c565b915061405e82615338565b603382019050919050565b600061407660318361491b565b915061408182615387565b604082019050919050565b6000610100830160008301516140a560008601826142b1565b50602083015184820360208601526140bd8282613c5b565b915050604083015184820360408601526140d78282613c5b565b91505060608301516140ec60608601826142b1565b5060808301516140ff60808601826142b1565b5060a083015161411260a08601826142b1565b5060c083015161412560c08601826142b1565b5060e083015161413860e0860182613c3d565b508091505092915050565b60006101008301600083015161415c60008601826142b1565b50602083015184820360208601526141748282613c5b565b9150506040830151848203604086015261418e8282613c5b565b91505060608301516141a360608601826142b1565b5060808301516141b660808601826142b1565b5060a08301516141c960a08601826142b1565b5060c08301516141dc60c08601826142b1565b5060e08301516141ef60e0860182613c3d565b508091505092915050565b60006101008301600083015161421360008601826142b1565b506020830151848203602086015261422b8282613c5b565b915050604083015184820360408601526142458282613c5b565b915050606083015161425a60608601826142b1565b50608083015161426d60808601826142b1565b5060a083015161428060a08601826142b1565b5060c083015161429360c08601826142b1565b5060e08301516142a660e0860182613c3d565b508091505092915050565b6142ba81614ac9565b82525050565b6142c981614ac9565b82525050565b60006142da82613fdd565b91506142e6828b613ccd565b91506142f182613e5c565b91506142fd828a613ccd565b915061430882613ee8565b91506143148289613ccd565b915061431f82613ea2565b915061432b8288613ccd565b915061433682613d44565b91506143428287613ccd565b915061434d82613e16565b91506143598286613ccd565b915061436482614046565b91506143708285613ccd565b915061437b82613cfe565b91506143878284613ccd565b915061439282613d21565b91508190509998505050505050505050565b60006143af82614023565b91506143bb8284613ccd565b915081905092915050565b60006020820190506143db6000830184613b71565b92915050565b60006080820190506143f66000830187613b71565b6144036020830186613b71565b61441060408301856142c0565b81810360608301526144228184613c04565b905095945050505050565b60006060820190506144426000830186613b71565b61444f60208301856142c0565b61445c60408301846142c0565b949350505050565b6000602082019050818103600083015261447e8184613b80565b905092915050565b600060208201905061449b6000830184613bf5565b92915050565b600060208201905081810360008301526144bb8184613c94565b905092915050565b600060408201905081810360008301526144dd8185613c94565b905081810360208301526144f18184613c94565b90509392505050565b600060608201905081810360008301526145148186613c94565b905061452360208301856142c0565b61453060408301846142c0565b949350505050565b6000602082019050818103600083015261455181613d67565b9050919050565b6000602082019050818103600083015261457181613d8a565b9050919050565b6000602082019050818103600083015261459181613dad565b9050919050565b600060208201905081810360008301526145b181613dd0565b9050919050565b600060208201905081810360008301526145d181613df3565b9050919050565b600060208201905081810360008301526145f181613e39565b9050919050565b6000602082019050818103600083015261461181613e7f565b9050919050565b6000602082019050818103600083015261463181613ec5565b9050919050565b6000602082019050818103600083015261465181613f0b565b9050919050565b6000602082019050818103600083015261467181613f2e565b9050919050565b6000602082019050818103600083015261469181613f51565b9050919050565b600060208201905081810360008301526146b181613f74565b9050919050565b600060208201905081810360008301526146d181613f97565b9050919050565b600060208201905081810360008301526146f181613fba565b9050919050565b6000602082019050818103600083015261471181614000565b9050919050565b6000602082019050818103600083015261473181614069565b9050919050565b60006020820190508181036000830152614752818461408c565b905092915050565b6000602082019050818103600083015261477481846141fa565b905092915050565b600060208201905061479160008301846142c0565b92915050565b6000610100820190506147ad600083018b6142c0565b81810360208301526147bf818a613c94565b905081810360408301526147d38189613c94565b90506147e260608301886142c0565b6147ef60808301876142c0565b6147fc60a08301866142c0565b61480960c08301856142c0565b61481660e0830184613c4c565b9998505050505050505050565b600061482d61483e565b90506148398282614b59565b919050565b6000604051905090565b600067ffffffffffffffff82111561486357614862614cc0565b5b61486c82614cef565b9050602081019050919050565b600067ffffffffffffffff82111561489457614893614cc0565b5b61489d82614cef565b9050602081019050919050565b6000819050602082019050919050565b600081519050919050565b600081519050919050565b600081519050919050565b6000602082019050919050565b600082825260208201905092915050565b600082825260208201905092915050565b600082825260208201905092915050565b600082825260208201905092915050565b600081905092915050565b600061494282614ac9565b915061494d83614ac9565b9250827fffffffffffffffffffffffffffffffffffffffffffffffffffffffffffffffff0382111561498257614981614c04565b5b828201905092915050565b600061499882614ac9565b91506149a383614ac9565b9250826149b3576149b2614c33565b5b828204905092915050565b60006149c982614ac9565b91506149d483614ac9565b9250817fffffffffffffffffffffffffffffffffffffffffffffffffffffffffffffffff0483118215151615614a0d57614a0c614c04565b5b828202905092915050565b6000614a2382614ac9565b9150614a2e83614ac9565b925082821015614a4157614a40614c04565b5b828203905092915050565b6000614a5782614aa9565b9050919050565b60008115159050919050565b60007fffffffff0000000000000000000000000000000000000000000000000000000082169050919050565b6000819050614aa4826153d6565b919050565b600073ffffffffffffffffffffffffffffffffffffffff82169050919050565b6000819050919050565b6000614ade82614a96565b9050919050565b82818337600083830152505050565b60005b83811015614b12578082015181840152602081019050614af7565b83811115614b21576000848401525b50505050565b60006002820490506001821680614b3f57607f821691505b60208210811415614b5357614b52614c91565b5b50919050565b614b6282614cef565b810181811067ffffffffffffffff82111715614b8157614b80614cc0565b5b80604052505050565b6000614b9582614ac9565b91507fffffffffffffffffffffffffffffffffffffffffffffffffffffffffffffffff821415614bc857614bc7614c04565b5b600182019050919050565b6000614bde82614ac9565b9150614be983614ac9565b925082614bf957614bf8614c33565b5b828206905092915050565b7f4e487b7100000000000000000000000000000000000000000000000000000000600052601160045260246000fd5b7f4e487b7100000000000000000000000000000000000000000000000000000000600052601260045260246000fd5b7f4e487b7100000000000000000000000000000000000000000000000000000000600052602160045260246000fd5b7f4e487b7100000000000000000000000000000000000000000000000000000000600052602260045260246000fd5b7f4e487b7100000000000000000000000000000000000000000000000000000000600052604160045260246000fd5b6000601f19601f8301169050919050565b7f7d2c20207b2274726169745f74797065223a20225370656369616c204d6f766560008201527f222c202276616c7565223a202200000000000000000000000000000000000000602082015250565b7f227d205d7d000000000000000000000000000000000000000000000000000000600082015250565b7f7d2c207b202274726169745f74797065223a202244616d616765222c2022766160008201527f6c7565223a200000000000000000000000000000000000000000000000000000602082015250565b7f4552433732313a207472616e7366657220746f206e6f6e20455243373231526560008201527f63656976657220696d706c656d656e7465720000000000000000000000000000602082015250565b7f4f776e61626c653a206e6577206f776e657220697320746865207a65726f206160008201527f6464726573730000000000000000000000000000000000000000000000000000602082015250565b7f4552433732313a20746f6b656e20616c7265616479206d696e74656400000000600082015250565b7f4552433732313a207472616e7366657220746f20746865207a65726f2061646460008201527f7265737300000000000000000000000000000000000000000000000000000000602082015250565b7f4552433732313a20617070726f766520746f2063616c6c657200000000000000600082015250565b7f7d2c207b2274726169745f74797065223a2022446566656e6365222c2022766160008201527f6c7565223a200000000000000000000000000000000000000000000000000000602082015250565b7f4552433732313a206f70657261746f7220717565727920666f72206e6f6e657860008201527f697374656e7420746f6b656e0000000000000000000000000000000000000000602082015250565b7f2020230000000000000000000000000000000000000000000000000000000000600082015250565b7f427261776c6572207479706520646f6573206e6f742065786973740000000000600082015250565b7f222c202261747472696275746573223a205b207b202274726169745f7479706560008201527f223a2022546f74616c5f4850222c202276616c7565223a200000000000000000602082015250565b7f4552433732313a20617070726f76652063616c6c6572206973206e6f74206f7760008201527f6e6572206e6f7220617070726f76656420666f7220616c6c0000000000000000602082015250565b7f222c20226465736372697074696f6e223a20225468652066697273742067656e60008201527f65726174696f6e206f6620626c6f636b636861696e20627261776c657273222c60208201527f2022696d616765223a2022000000000000000000000000000000000000000000604082015250565b7f4552433732313a2062616c616e636520717565727920666f7220746865207a6560008201527f726f206164647265737300000000000000000000000000000000000000000000602082015250565b7f4552433732313a206f776e657220717565727920666f72206e6f6e657869737460008201527f656e7420746f6b656e0000000000000000000000000000000000000000000000602082015250565b7f4552433732313a206d696e7420746f20746865207a65726f2061646472657373600082015250565b7f4552433732313a20617070726f76656420717565727920666f72206e6f6e657860008201527f697374656e7420746f6b656e0000000000000000000000000000000000000000602082015250565b7f4f776e61626c653a2063616c6c6572206973206e6f7420746865206f776e6572600082015250565b7f4552433732313a207472616e73666572206f6620746f6b656e2074686174206960008201527f73206e6f74206f776e0000000000000000000000000000000000000000000000602082015250565b7f7b226e616d65223a202200000000000000000000000000000000000000000000600082015250565b7f4552433732313a20617070726f76616c20746f2063757272656e74206f776e6560008201527f7200000000000000000000000000000000000000000000000000000000000000602082015250565b7f646174613a6170706c69636174696f6e2f6a736f6e3b6261736536342c000000600082015250565b7f7d2c20207b2274726169745f74797065223a2022437269746963616c2048697460008201527f204368616e6365222c202276616c7565223a2000000000000000000000000000602082015250565b7f4552433732313a207472616e736665722063616c6c6572206973206e6f74206f60008201527f776e6572206e6f7220617070726f766564000000000000000000000000000000602082015250565b600481106153e7576153e6614c62565b5b50565b6153f381614a4c565b81146153fe57600080fd5b50565b61540a81614a5e565b811461541557600080fd5b50565b61542181614a6a565b811461542c57600080fd5b50565b6004811061543c57600080fd5b50565b61544881614ac9565b811461545357600080fd5b5056fe4d696e74656420627261776c6572206e756d6265723a25732c207768696368206973206f6620747970652025734142434445464748494a4b4c4d4e4f505152535455565758595a6162636465666768696a6b6c6d6e6f707172737475767778797a303132333435363738392b2fa2646970667358221220e4decf76573f1acae820a54c5aed2c5916409d072a5706a5904bda25f7774f8f64736f6c63430008040033",
    "linkReferences": {},
    "deployedLinkReferences": {}
}