{
  "_format": "hh-sol-artifact-1",
  "contractName": "BlockchainBrawlers",
  "sourceName": "contracts/BlockchainBrawlers.sol",
  "abi": [
    {
      "inputs": [
        {
          "internalType": "string[]",
          "name": "_brawlerName",
          "type": "string[]"
        },
        {
          "internalType": "string[]",
          "name": "_brawlerImageURI",
          "type": "string[]"
        },
        {
          "internalType": "uint256[]",
          "name": "_brawlerTotalHP",
          "type": "uint256[]"
        },
        {
          "internalType": "uint256[]",
          "name": "_brawlerDamage",
          "type": "uint256[]"
        },
        {
          "internalType": "uint256[]",
          "name": "_brawlerDefence",
          "type": "uint256[]"
        },
        {
          "internalType": "uint256[]",
          "name": "_brawlerCritChance",
          "type": "uint256[]"
        },
        {
          "internalType": "enum BlockchainBrawlers.SpecialMoveTypes[]",
          "name": "_brawlerSpecialMove",
          "type": "uint8[]"
        }
      ],
      "stateMutability": "nonpayable",
      "type": "constructor"
    },
    {
      "anonymous": false,
      "inputs": [
        {
          "indexed": true,
          "internalType": "address",
          "name": "owner",
          "type": "address"
        },
        {
          "indexed": true,
          "internalType": "address",
          "name": "approved",
          "type": "address"
        },
        {
          "indexed": true,
          "internalType": "uint256",
          "name": "tokenId",
          "type": "uint256"
        }
      ],
      "name": "Approval",
      "type": "event"
    },
    {
      "anonymous": false,
      "inputs": [
        {
          "indexed": true,
          "internalType": "address",
          "name": "owner",
          "type": "address"
        },
        {
          "indexed": true,
          "internalType": "address",
          "name": "operator",
          "type": "address"
        },
        {
          "indexed": false,
          "internalType": "bool",
          "name": "approved",
          "type": "bool"
        }
      ],
      "name": "ApprovalForAll",
      "type": "event"
    },
    {
      "anonymous": false,
      "inputs": [
        {
          "indexed": false,
          "internalType": "address",
          "name": "sender",
          "type": "address"
        },
        {
          "indexed": false,
          "internalType": "uint256",
          "name": "newBrawlerId",
          "type": "uint256"
        },
        {
          "indexed": false,
          "internalType": "uint256",
          "name": "brawlerType",
          "type": "uint256"
        }
      ],
      "name": "BrawlerMinted",
      "type": "event"
    },
    {
      "anonymous": false,
      "inputs": [
        {
          "indexed": true,
          "internalType": "address",
          "name": "previousOwner",
          "type": "address"
        },
        {
          "indexed": true,
          "internalType": "address",
          "name": "newOwner",
          "type": "address"
        }
      ],
      "name": "OwnershipTransferred",
      "type": "event"
    },
    {
      "anonymous": false,
      "inputs": [
        {
          "indexed": true,
          "internalType": "address",
          "name": "from",
          "type": "address"
        },
        {
          "indexed": true,
          "internalType": "address",
          "name": "to",
          "type": "address"
        },
        {
          "indexed": true,
          "internalType": "uint256",
          "name": "tokenId",
          "type": "uint256"
        }
      ],
      "name": "Transfer",
      "type": "event"
    },
    {
      "inputs": [
        {
          "internalType": "string",
          "name": "_bossName",
          "type": "string"
        },
        {
          "internalType": "string",
          "name": "_bossImageURI",
          "type": "string"
        },
        {
          "internalType": "uint256",
          "name": "_bossTotalHP",
          "type": "uint256"
        },
        {
          "internalType": "uint256",
          "name": "_bossDamage",
          "type": "uint256"
        },
        {
          "internalType": "uint256",
          "name": "_bossDefence",
          "type": "uint256"
        },
        {
          "internalType": "uint256",
          "name": "_bossCritChance",
          "type": "uint256"
        },
        {
          "internalType": "enum BlockchainBrawlers.SpecialMoveTypes",
          "name": "_bossSpecialMove",
          "type": "uint8"
        }
      ],
      "name": "addBoss",
      "outputs": [],
      "stateMutability": "nonpayable",
      "type": "function"
    },
    {
      "inputs": [
        {
          "internalType": "address",
          "name": "to",
          "type": "address"
        },
        {
          "internalType": "uint256",
          "name": "tokenId",
          "type": "uint256"
        }
      ],
      "name": "approve",
      "outputs": [],
      "stateMutability": "nonpayable",
      "type": "function"
    },
    {
      "inputs": [
        {
          "internalType": "address",
          "name": "owner",
          "type": "address"
        }
      ],
      "name": "balanceOf",
      "outputs": [
        {
          "internalType": "uint256",
          "name": "",
          "type": "uint256"
        }
      ],
      "stateMutability": "view",
      "type": "function"
    },
    {
      "inputs": [
        {
          "internalType": "uint256",
          "name": "",
          "type": "uint256"
        }
      ],
      "name": "bossTypes",
      "outputs": [
        {
          "internalType": "uint256",
          "name": "bossType",
          "type": "uint256"
        },
        {
          "internalType": "string",
          "name": "name",
          "type": "string"
        },
        {
          "internalType": "string",
          "name": "imageURI",
          "type": "string"
        },
        {
          "internalType": "uint256",
          "name": "totalHP",
          "type": "uint256"
        },
        {
          "internalType": "uint256",
          "name": "damage",
          "type": "uint256"
        },
        {
          "internalType": "uint256",
          "name": "defence",
          "type": "uint256"
        },
        {
          "internalType": "uint256",
          "name": "critChance",
          "type": "uint256"
        },
        {
          "internalType": "enum BlockchainBrawlers.SpecialMoveTypes",
          "name": "specialMove",
          "type": "uint8"
        }
      ],
      "stateMutability": "view",
      "type": "function"
    },
    {
      "inputs": [],
      "name": "checkOwnsBrawler",
      "outputs": [
        {
          "components": [
            {
              "internalType": "uint256",
              "name": "brawlerType",
              "type": "uint256"
            },
            {
              "internalType": "string",
              "name": "name",
              "type": "string"
            },
            {
              "internalType": "string",
              "name": "imageURI",
              "type": "string"
            },
            {
              "internalType": "uint256",
              "name": "totalHP",
              "type": "uint256"
            },
            {
              "internalType": "uint256",
              "name": "damage",
              "type": "uint256"
            },
            {
              "internalType": "uint256",
              "name": "defence",
              "type": "uint256"
            },
            {
              "internalType": "uint256",
              "name": "critChance",
              "type": "uint256"
            },
            {
              "internalType": "enum BlockchainBrawlers.SpecialMoveTypes",
              "name": "specialMove",
              "type": "uint8"
            }
          ],
          "internalType": "struct BlockchainBrawlers.BrawlerAttributes",
          "name": "",
          "type": "tuple"
        }
      ],
      "stateMutability": "view",
      "type": "function"
    },
    {
      "inputs": [
        {
          "internalType": "uint256",
          "name": "tokenId",
          "type": "uint256"
        }
      ],
      "name": "getApproved",
      "outputs": [
        {
          "internalType": "address",
          "name": "",
          "type": "address"
        }
      ],
      "stateMutability": "view",
      "type": "function"
    },
    {
      "inputs": [
        {
          "internalType": "uint256",
          "name": "_bossType",
          "type": "uint256"
        }
      ],
      "name": "getBoss",
      "outputs": [
        {
          "components": [
            {
              "internalType": "uint256",
              "name": "bossType",
              "type": "uint256"
            },
            {
              "internalType": "string",
              "name": "name",
              "type": "string"
            },
            {
              "internalType": "string",
              "name": "imageURI",
              "type": "string"
            },
            {
              "internalType": "uint256",
              "name": "totalHP",
              "type": "uint256"
            },
            {
              "internalType": "uint256",
              "name": "damage",
              "type": "uint256"
            },
            {
              "internalType": "uint256",
              "name": "defence",
              "type": "uint256"
            },
            {
              "internalType": "uint256",
              "name": "critChance",
              "type": "uint256"
            },
            {
              "internalType": "enum BlockchainBrawlers.SpecialMoveTypes",
              "name": "specialMove",
              "type": "uint8"
            }
          ],
          "internalType": "struct BlockchainBrawlers.BossAttributes",
          "name": "",
          "type": "tuple"
        }
      ],
      "stateMutability": "view",
      "type": "function"
    },
    {
      "inputs": [],
      "name": "getBrawlerTypes",
      "outputs": [
        {
          "components": [
            {
              "internalType": "uint256",
              "name": "brawlerType",
              "type": "uint256"
            },
            {
              "internalType": "string",
              "name": "name",
              "type": "string"
            },
            {
              "internalType": "string",
              "name": "imageURI",
              "type": "string"
            },
            {
              "internalType": "uint256",
              "name": "totalHP",
              "type": "uint256"
            },
            {
              "internalType": "uint256",
              "name": "damage",
              "type": "uint256"
            },
            {
              "internalType": "uint256",
              "name": "defence",
              "type": "uint256"
            },
            {
              "internalType": "uint256",
              "name": "critChance",
              "type": "uint256"
            },
            {
              "internalType": "enum BlockchainBrawlers.SpecialMoveTypes",
              "name": "specialMove",
              "type": "uint8"
            }
          ],
          "internalType": "struct BlockchainBrawlers.BrawlerAttributes[]",
          "name": "",
          "type": "tuple[]"
        }
      ],
      "stateMutability": "view",
      "type": "function"
    },
    {
      "inputs": [
        {
          "internalType": "address",
          "name": "owner",
          "type": "address"
        },
        {
          "internalType": "address",
          "name": "operator",
          "type": "address"
        }
      ],
      "name": "isApprovedForAll",
      "outputs": [
        {
          "internalType": "bool",
          "name": "",
          "type": "bool"
        }
      ],
      "stateMutability": "view",
      "type": "function"
    },
    {
      "inputs": [
        {
          "internalType": "uint256",
          "name": "_brawlerType",
          "type": "uint256"
        }
      ],
      "name": "mintBrawler",
      "outputs": [],
      "stateMutability": "nonpayable",
      "type": "function"
    },
    {
      "inputs": [],
      "name": "name",
      "outputs": [
        {
          "internalType": "string",
          "name": "",
          "type": "string"
        }
      ],
      "stateMutability": "view",
      "type": "function"
    },
    {
      "inputs": [],
      "name": "owner",
      "outputs": [
        {
          "internalType": "address",
          "name": "",
          "type": "address"
        }
      ],
      "stateMutability": "view",
      "type": "function"
    },
    {
      "inputs": [
        {
          "internalType": "uint256",
          "name": "tokenId",
          "type": "uint256"
        }
      ],
      "name": "ownerOf",
      "outputs": [
        {
          "internalType": "address",
          "name": "",
          "type": "address"
        }
      ],
      "stateMutability": "view",
      "type": "function"
    },
    {
      "inputs": [
        {
          "internalType": "address",
          "name": "",
          "type": "address"
        }
      ],
      "name": "ownerToTokenId",
      "outputs": [
        {
          "internalType": "uint256",
          "name": "",
          "type": "uint256"
        }
      ],
      "stateMutability": "view",
      "type": "function"
    },
    {
      "inputs": [],
      "name": "renounceOwnership",
      "outputs": [],
      "stateMutability": "nonpayable",
      "type": "function"
    },
    {
      "inputs": [
        {
          "internalType": "address",
          "name": "from",
          "type": "address"
        },
        {
          "internalType": "address",
          "name": "to",
          "type": "address"
        },
        {
          "internalType": "uint256",
          "name": "tokenId",
          "type": "uint256"
        }
      ],
      "name": "safeTransferFrom",
      "outputs": [],
      "stateMutability": "nonpayable",
      "type": "function"
    },
    {
      "inputs": [
        {
          "internalType": "address",
          "name": "from",
          "type": "address"
        },
        {
          "internalType": "address",
          "name": "to",
          "type": "address"
        },
        {
          "internalType": "uint256",
          "name": "tokenId",
          "type": "uint256"
        },
        {
          "internalType": "bytes",
          "name": "_data",
          "type": "bytes"
        }
      ],
      "name": "safeTransferFrom",
      "outputs": [],
      "stateMutability": "nonpayable",
      "type": "function"
    },
    {
      "inputs": [
        {
          "internalType": "address",
          "name": "operator",
          "type": "address"
        },
        {
          "internalType": "bool",
          "name": "approved",
          "type": "bool"
        }
      ],
      "name": "setApprovalForAll",
      "outputs": [],
      "stateMutability": "nonpayable",
      "type": "function"
    },
    {
      "inputs": [
        {
          "internalType": "enum BlockchainBrawlers.SpecialMoveTypes",
          "name": "_specialMove",
          "type": "uint8"
        }
      ],
      "name": "specialMoveToString",
      "outputs": [
        {
          "internalType": "string",
          "name": "",
          "type": "string"
        }
      ],
      "stateMutability": "pure",
      "type": "function"
    },
    {
      "inputs": [
        {
          "internalType": "bytes4",
          "name": "interfaceId",
          "type": "bytes4"
        }
      ],
      "name": "supportsInterface",
      "outputs": [
        {
          "internalType": "bool",
          "name": "",
          "type": "bool"
        }
      ],
      "stateMutability": "view",
      "type": "function"
    },
    {
      "inputs": [],
      "name": "symbol",
      "outputs": [
        {
          "internalType": "string",
          "name": "",
          "type": "string"
        }
      ],
      "stateMutability": "view",
      "type": "function"
    },
    {
      "inputs": [
        {
          "internalType": "uint256",
          "name": "",
          "type": "uint256"
        }
      ],
      "name": "tokenIdToAttributes",
      "outputs": [
        {
          "internalType": "uint256",
          "name": "brawlerType",
          "type": "uint256"
        },
        {
          "internalType": "string",
          "name": "name",
          "type": "string"
        },
        {
          "internalType": "string",
          "name": "imageURI",
          "type": "string"
        },
        {
          "internalType": "uint256",
          "name": "totalHP",
          "type": "uint256"
        },
        {
          "internalType": "uint256",
          "name": "damage",
          "type": "uint256"
        },
        {
          "internalType": "uint256",
          "name": "defence",
          "type": "uint256"
        },
        {
          "internalType": "uint256",
          "name": "critChance",
          "type": "uint256"
        },
        {
          "internalType": "enum BlockchainBrawlers.SpecialMoveTypes",
          "name": "specialMove",
          "type": "uint8"
        }
      ],
      "stateMutability": "view",
      "type": "function"
    },
    {
      "inputs": [
        {
          "internalType": "uint256",
          "name": "_tokenId",
          "type": "uint256"
        }
      ],
      "name": "tokenURI",
      "outputs": [
        {
          "internalType": "string",
          "name": "",
          "type": "string"
        }
      ],
      "stateMutability": "view",
      "type": "function"
    },
    {
      "inputs": [
        {
          "internalType": "address",
          "name": "from",
          "type": "address"
        },
        {
          "internalType": "address",
          "name": "to",
          "type": "address"
        },
        {
          "internalType": "uint256",
          "name": "tokenId",
          "type": "uint256"
        }
      ],
      "name": "transferFrom",
      "outputs": [],
      "stateMutability": "nonpayable",
      "type": "function"
    },
    {
      "inputs": [
        {
          "internalType": "address",
          "name": "newOwner",
          "type": "address"
        }
      ],
      "name": "transferOwnership",
      "outputs": [],
      "stateMutability": "nonpayable",
      "type": "function"
    }
  ],
  "bytecode": "0x60806040523480156200001157600080fd5b50604051620066dd380380620066dd833981810160405281019062000037919062000c0a565b6040518060400160405280601381526020017f426c6f636b636861696e20427261776c657273000000000000000000000000008152506040518060400160405280600581526020017f427261776c0000000000000000000000000000000000000000000000000000008152508160009080519060200190620000bb929190620008b9565b508060019080519060200190620000d4929190620008b9565b505050620000f7620000eb6200070660201b60201c565b6200070e60201b60201c565b60005b8751811015620006e15760086040518061010001604052808381526020018a848151811062000152577f4e487b7100000000000000000000000000000000000000000000000000000000600052603260045260246000fd5b6020026020010151815260200189848151811062000199577f4e487b7100000000000000000000000000000000000000000000000000000000600052603260045260246000fd5b60200260200101518152602001888481518110620001e0577f4e487b7100000000000000000000000000000000000000000000000000000000600052603260045260246000fd5b6020026020010151815260200187848151811062000227577f4e487b7100000000000000000000000000000000000000000000000000000000600052603260045260246000fd5b602002602001015181526020018684815181106200026e577f4e487b7100000000000000000000000000000000000000000000000000000000600052603260045260246000fd5b60200260200101518152602001858481518110620002b5577f4e487b7100000000000000000000000000000000000000000000000000000000600052603260045260246000fd5b60200260200101518152602001848481518110620002fc577f4e487b7100000000000000000000000000000000000000000000000000000000600052603260045260246000fd5b602002602001015160038111156200033d577f4e487b7100000000000000000000000000000000000000000000000000000000600052602160045260246000fd5b815250908060018154018082558091505060019003906000526020600020906008020160009091909190915060008201518160000155602082015181600101908051906020019062000391929190620008b9565b506040820151816002019080519060200190620003b0929190620008b9565b50606082015181600301556080820151816004015560a0820151816005015560c0820151816006015560e08201518160070160006101000a81548160ff021916908360038111156200042b577f4e487b7100000000000000000000000000000000000000000000000000000000600052602160045260246000fd5b021790555050506000600882815481106200046f577f4e487b7100000000000000000000000000000000000000000000000000000000600052603260045260246000fd5b90600052602060002090600802016040518061010001604052908160008201548152602001600182018054620004a59062000f2a565b80601f0160208091040260200160405190810160405280929190818152602001828054620004d39062000f2a565b8015620005245780601f10620004f85761010080835404028352916020019162000524565b820191906000526020600020905b8154815290600101906020018083116200050657829003601f168201915b505050505081526020016002820180546200053f9062000f2a565b80601f01602080910402602001604051908101604052809291908181526020018280546200056d9062000f2a565b8015620005be5780601f106200059257610100808354040283529160200191620005be565b820191906000526020600020905b815481529060010190602001808311620005a057829003601f168201915b50505050508152602001600382015481526020016004820154815260200160058201548152602001600682015481526020016007820160009054906101000a900460ff1660038111156200063b577f4e487b7100000000000000000000000000000000000000000000000000000000600052602160045260246000fd5b600381111562000674577f4e487b7100000000000000000000000000000000000000000000000000000000600052602160045260246000fd5b815250509050620006ca6040518060400160405280601281526020017f4372656174656420627261776c657220257300000000000000000000000000008152508260200151620007d460201b620025cb1760201c565b508080620006d89062000f96565b915050620000fa565b620006f860076200087a60201b620026671760201c565b5050505050505050620010ad565b600033905090565b6000600660009054906101000a900473ffffffffffffffffffffffffffffffffffffffff16905081600660006101000a81548173ffffffffffffffffffffffffffffffffffffffff021916908373ffffffffffffffffffffffffffffffffffffffff1602179055508173ffffffffffffffffffffffffffffffffffffffff168173ffffffffffffffffffffffffffffffffffffffff167f8be0079c531659141344cd1fd0a4f28419497f9722a3daafe3b4186f6b6457e060405160405180910390a35050565b620008768282604051602401620007ed92919062000da7565b6040516020818303038152906040527f4b5c4277000000000000000000000000000000000000000000000000000000007bffffffffffffffffffffffffffffffffffffffffffffffffffffffff19166020820180517bffffffffffffffffffffffffffffffffffffffffffffffffffffffff83818316178352505050506200089060201b60201c565b5050565b6001816000016000828254019250508190555050565b60008151905060006a636f6e736f6c652e6c6f679050602083016000808483855afa5050505050565b828054620008c79062000f2a565b90600052602060002090601f016020900481019282620008eb576000855562000937565b82601f106200090657805160ff191683800117855562000937565b8280016001018555821562000937579182015b828111156200093657825182559160200191906001019062000919565b5b5090506200094691906200094a565b5090565b5b80821115620009655760008160009055506001016200094b565b5090565b6000620009806200097a8462000e0b565b62000de2565b90508083825260208201905082856020860282011115620009a057600080fd5b60005b85811015620009d45781620009b9888262000baf565b845260208401935060208301925050600181019050620009a3565b5050509392505050565b6000620009f5620009ef8462000e3a565b62000de2565b9050808382526020820190508285602086028201111562000a1557600080fd5b60005b8581101562000a6457815167ffffffffffffffff81111562000a3957600080fd5b80860162000a48898262000bc6565b8552602085019450602084019350505060018101905062000a18565b5050509392505050565b600062000a8562000a7f8462000e69565b62000de2565b9050808382526020820190508285602086028201111562000aa557600080fd5b60005b8581101562000ad9578162000abe888262000bf3565b84526020840193506020830192505060018101905062000aa8565b5050509392505050565b600062000afa62000af48462000e98565b62000de2565b90508281526020810184848401111562000b1357600080fd5b62000b2084828562000ef4565b509392505050565b600082601f83011262000b3a57600080fd5b815162000b4c84826020860162000969565b91505092915050565b600082601f83011262000b6757600080fd5b815162000b79848260208601620009de565b91505092915050565b600082601f83011262000b9457600080fd5b815162000ba684826020860162000a6e565b91505092915050565b60008151905062000bc08162001082565b92915050565b600082601f83011262000bd857600080fd5b815162000bea84826020860162000ae3565b91505092915050565b60008151905062000c048162001093565b92915050565b600080600080600080600060e0888a03121562000c2657600080fd5b600088015167ffffffffffffffff81111562000c4157600080fd5b62000c4f8a828b0162000b55565b975050602088015167ffffffffffffffff81111562000c6d57600080fd5b62000c7b8a828b0162000b55565b965050604088015167ffffffffffffffff81111562000c9957600080fd5b62000ca78a828b0162000b82565b955050606088015167ffffffffffffffff81111562000cc557600080fd5b62000cd38a828b0162000b82565b945050608088015167ffffffffffffffff81111562000cf157600080fd5b62000cff8a828b0162000b82565b93505060a088015167ffffffffffffffff81111562000d1d57600080fd5b62000d2b8a828b0162000b82565b92505060c088015167ffffffffffffffff81111562000d4957600080fd5b62000d578a828b0162000b28565b91505092959891949750929550565b600062000d738262000ece565b62000d7f818562000ed9565b935062000d9181856020860162000ef4565b62000d9c8162001071565b840191505092915050565b6000604082019050818103600083015262000dc3818562000d66565b9050818103602083015262000dd9818462000d66565b90509392505050565b600062000dee62000e01565b905062000dfc828262000f60565b919050565b6000604051905090565b600067ffffffffffffffff82111562000e295762000e2862001042565b5b602082029050602081019050919050565b600067ffffffffffffffff82111562000e585762000e5762001042565b5b602082029050602081019050919050565b600067ffffffffffffffff82111562000e875762000e8662001042565b5b602082029050602081019050919050565b600067ffffffffffffffff82111562000eb65762000eb562001042565b5b62000ec18262001071565b9050602081019050919050565b600081519050919050565b600082825260208201905092915050565b6000819050919050565b60005b8381101562000f1457808201518184015260208101905062000ef7565b8381111562000f24576000848401525b50505050565b6000600282049050600182168062000f4357607f821691505b6020821081141562000f5a5762000f5962001013565b5b50919050565b62000f6b8262001071565b810181811067ffffffffffffffff8211171562000f8d5762000f8c62001042565b5b80604052505050565b600062000fa38262000eea565b91507fffffffffffffffffffffffffffffffffffffffffffffffffffffffffffffffff82141562000fd95762000fd862000fe4565b5b600182019050919050565b7f4e487b7100000000000000000000000000000000000000000000000000000000600052601160045260246000fd5b7f4e487b7100000000000000000000000000000000000000000000000000000000600052602260045260246000fd5b7f4e487b7100000000000000000000000000000000000000000000000000000000600052604160045260246000fd5b6000601f19601f8301169050919050565b600481106200109057600080fd5b50565b6200109e8162000eea565b8114620010aa57600080fd5b50565b61562080620010bd6000396000f3fe608060405234801561001057600080fd5b50600436106101735760003560e01c8063561f7681116100de5780638da5cb5b11610097578063b88d4fde11610071578063b88d4fde1461047e578063c87b56dd1461049a578063e985e9c5146104ca578063f2fde38b146104fa57610173565b80638da5cb5b1461042657806395d89b4114610444578063a22cb4651461046257610173565b8063561f76811461034b5780635bf17182146103675780635dff3a771461039e5780636352211e146103bc57806370a08231146103ec578063715018a61461041c57610173565b8063180fc40d11610130578063180fc40d146102795780631f600bfc146102a957806323b872dd146102c557806325a1b2a0146102e157806342842e0e146102ff5780634814f0351461031b57610173565b806301ffc9a71461017857806306fdde03146101a8578063081812fc146101c6578063095ea7b3146101f65780630e63c7ad146102125780631177f37914610242575b600080fd5b610192600480360381019061018d9190613aa6565b610516565b60405161019f9190614564565b60405180910390f35b6101b06105f8565b6040516101bd919061457f565b60405180910390f35b6101e060048036038101906101db9190613bef565b61068a565b6040516101ed91906144a4565b60405180910390f35b610210600480360381019061020b9190613a6a565b61070f565b005b61022c60048036038101906102279190613bef565b610827565b6040516102399190614836565b60405180910390f35b61025c60048036038101906102579190613bef565b610aae565b604051610270989796959493929190614895565b60405180910390f35b610293600480360381019061028e9190613af8565b610c13565b6040516102a0919061457f565b60405180910390f35b6102c360048036038101906102be9190613bef565b610e75565b005b6102df60048036038101906102da9190613964565b611320565b005b6102e9611380565b6040516102f69190614542565b60405180910390f35b61031960048036038101906103149190613964565b6115bd565b005b610335600480360381019061033091906138ff565b6115dd565b604051610342919061487a565b60405180910390f35b61036560048036038101906103609190613b21565b6115f5565b005b610381600480360381019061037c9190613bef565b611a5f565b604051610395989796959493929190614895565b60405180910390f35b6103a6611bd4565b6040516103b39190614858565b60405180910390f35b6103d660048036038101906103d19190613bef565b611e3e565b6040516103e391906144a4565b60405180910390f35b610406600480360381019061040191906138ff565b611ef0565b604051610413919061487a565b60405180910390f35b610424611fa8565b005b61042e612030565b60405161043b91906144a4565b60405180910390f35b61044c61205a565b604051610459919061457f565b60405180910390f35b61047c60048036038101906104779190613a2e565b6120ec565b005b610498600480360381019061049391906139b3565b612102565b005b6104b460048036038101906104af9190613bef565b612164565b6040516104c1919061457f565b60405180910390f35b6104e460048036038101906104df9190613928565b61243f565b6040516104f19190614564565b60405180910390f35b610514600480360381019061050f91906138ff565b6124d3565b005b60007f80ac58cd000000000000000000000000000000000000000000000000000000007bffffffffffffffffffffffffffffffffffffffffffffffffffffffff1916827bffffffffffffffffffffffffffffffffffffffffffffffffffffffff191614806105e157507f5b5e139f000000000000000000000000000000000000000000000000000000007bffffffffffffffffffffffffffffffffffffffffffffffffffffffff1916827bffffffffffffffffffffffffffffffffffffffffffffffffffffffff1916145b806105f157506105f08261267d565b5b9050919050565b60606000805461060790614c25565b80601f016020809104026020016040519081016040528092919081815260200182805461063390614c25565b80156106805780601f1061065557610100808354040283529160200191610680565b820191906000526020600020905b81548152906001019060200180831161066357829003601f168201915b5050505050905090565b6000610695826126e7565b6106d4576040517f08c379a00000000000000000000000000000000000000000000000000000000081526004016106cb90614796565b60405180910390fd5b6004600083815260200190815260200160002060009054906101000a900473ffffffffffffffffffffffffffffffffffffffff169050919050565b600061071a82611e3e565b90508073ffffffffffffffffffffffffffffffffffffffff168373ffffffffffffffffffffffffffffffffffffffff16141561078b576040517f08c379a0000000000000000000000000000000000000000000000000000000008152600401610782906147f6565b60405180910390fd5b8073ffffffffffffffffffffffffffffffffffffffff166107aa612753565b73ffffffffffffffffffffffffffffffffffffffff1614806107d957506107d8816107d3612753565b61243f565b5b610818576040517f08c379a000000000000000000000000000000000000000000000000000000000815260040161080f90614716565b60405180910390fd5b610822838361275b565b505050565b61082f613614565b6009805490508210610876576040517f08c379a000000000000000000000000000000000000000000000000000000000815260040161086d906146b6565b60405180910390fd5b600982815481106108b0577f4e487b7100000000000000000000000000000000000000000000000000000000600052603260045260246000fd5b906000526020600020906008020160405180610100016040529081600082015481526020016001820180546108e490614c25565b80601f016020809104026020016040519081016040528092919081815260200182805461091090614c25565b801561095d5780601f106109325761010080835404028352916020019161095d565b820191906000526020600020905b81548152906001019060200180831161094057829003601f168201915b5050505050815260200160028201805461097690614c25565b80601f01602080910402602001604051908101604052809291908181526020018280546109a290614c25565b80156109ef5780601f106109c4576101008083540402835291602001916109ef565b820191906000526020600020905b8154815290600101906020018083116109d257829003601f168201915b50505050508152602001600382015481526020016004820154815260200160058201548152602001600682015481526020016007820160009054906101000a900460ff166003811115610a6b577f4e487b7100000000000000000000000000000000000000000000000000000000600052602160045260246000fd5b6003811115610aa3577f4e487b7100000000000000000000000000000000000000000000000000000000600052602160045260246000fd5b815250509050919050565b600a602052806000526040600020600091509050806000015490806001018054610ad790614c25565b80601f0160208091040260200160405190810160405280929190818152602001828054610b0390614c25565b8015610b505780601f10610b2557610100808354040283529160200191610b50565b820191906000526020600020905b815481529060010190602001808311610b3357829003601f168201915b505050505090806002018054610b6590614c25565b80601f0160208091040260200160405190810160405280929190818152602001828054610b9190614c25565b8015610bde5780601f10610bb357610100808354040283529160200191610bde565b820191906000526020600020905b815481529060010190602001808311610bc157829003601f168201915b5050505050908060030154908060040154908060050154908060060154908060070160009054906101000a900460ff16905088565b606060006003811115610c4f577f4e487b7100000000000000000000000000000000000000000000000000000000600052602160045260246000fd5b826003811115610c88577f4e487b7100000000000000000000000000000000000000000000000000000000600052602160045260246000fd5b1415610ccb576040518060400160405280600481526020017f4865616c000000000000000000000000000000000000000000000000000000008152509050610e70565b60016003811115610d05577f4e487b7100000000000000000000000000000000000000000000000000000000600052602160045260246000fd5b826003811115610d3e577f4e487b7100000000000000000000000000000000000000000000000000000000600052602160045260246000fd5b1415610d81576040518060400160405280600f81526020017f496e6372656173652044616d61676500000000000000000000000000000000008152509050610e70565b60026003811115610dbb577f4e487b7100000000000000000000000000000000000000000000000000000000600052602160045260246000fd5b826003811115610df4577f4e487b7100000000000000000000000000000000000000000000000000000000600052602160045260246000fd5b1415610e37576040518060400160405280601081526020017f496e63726561736520446566656e6365000000000000000000000000000000008152509050610e70565b6040518060400160405280601481526020017f496e6372656173652043726974204368616e636500000000000000000000000081525090505b919050565b6008805490508110610ebc576040517f08c379a0000000000000000000000000000000000000000000000000000000008152600401610eb3906146f6565b60405180910390fd5b6000610ec86007612814565b9050610ed43382612822565b600060088381548110610f10577f4e487b7100000000000000000000000000000000000000000000000000000000600052603260045260246000fd5b90600052602060002090600802016040518061010001604052908160008201548152602001600182018054610f4490614c25565b80601f0160208091040260200160405190810160405280929190818152602001828054610f7090614c25565b8015610fbd5780601f10610f9257610100808354040283529160200191610fbd565b820191906000526020600020905b815481529060010190602001808311610fa057829003601f168201915b50505050508152602001600282018054610fd690614c25565b80601f016020809104026020016040519081016040528092919081815260200182805461100290614c25565b801561104f5780601f106110245761010080835404028352916020019161104f565b820191906000526020600020905b81548152906001019060200180831161103257829003601f168201915b50505050508152602001600382015481526020016004820154815260200160058201548152602001600682015481526020016007820160009054906101000a900460ff1660038111156110cb577f4e487b7100000000000000000000000000000000000000000000000000000000600052602160045260246000fd5b6003811115611103577f4e487b7100000000000000000000000000000000000000000000000000000000600052602160045260246000fd5b815250509050604051806101000160405280848152602001826020015181526020018260400151815260200182606001518152602001826080015181526020018260a0015181526020018260c0015181526020018260e001516003811115611194577f4e487b7100000000000000000000000000000000000000000000000000000000600052602160045260246000fd5b815250600a60008481526020019081526020016000206000820151816000015560208201518160010190805190602001906111d0929190613691565b5060408201518160020190805190602001906111ed929190613691565b50606082015181600301556080820151816004015560a0820151816005015560c0820151816006015560e08201518160070160006101000a81548160ff02191690836003811115611267577f4e487b7100000000000000000000000000000000000000000000000000000000600052602160045260246000fd5b021790555090505081600b60003373ffffffffffffffffffffffffffffffffffffffff1673ffffffffffffffffffffffffffffffffffffffff168152602001908152602001600020819055506112d66040518060600160405280602d815260200161557e602d91398385612840565b6112e06007612667565b7fb0d2e44562b01041f350e199659bf77908fe18724640c374cc736d553a7731193383856040516113139392919061450b565b60405180910390a1505050565b61133161132b612753565b826128df565b611370576040517f08c379a000000000000000000000000000000000000000000000000000000000815260040161136790614816565b60405180910390fd5b61137b8383836129bd565b505050565b60606008805480602002602001604051908101604052809291908181526020016000905b828210156115b4578382906000526020600020906008020160405180610100016040529081600082015481526020016001820180546113e290614c25565b80601f016020809104026020016040519081016040528092919081815260200182805461140e90614c25565b801561145b5780601f106114305761010080835404028352916020019161145b565b820191906000526020600020905b81548152906001019060200180831161143e57829003601f168201915b5050505050815260200160028201805461147490614c25565b80601f01602080910402602001604051908101604052809291908181526020018280546114a090614c25565b80156114ed5780601f106114c2576101008083540402835291602001916114ed565b820191906000526020600020905b8154815290600101906020018083116114d057829003601f168201915b50505050508152602001600382015481526020016004820154815260200160058201548152602001600682015481526020016007820160009054906101000a900460ff166003811115611569577f4e487b7100000000000000000000000000000000000000000000000000000000600052602160045260246000fd5b60038111156115a1577f4e487b7100000000000000000000000000000000000000000000000000000000600052602160045260246000fd5b81525050815260200190600101906113a4565b50505050905090565b6115d883838360405180602001604052806000815250612102565b505050565b600b6020528060005260406000206000915090505481565b6115fd612753565b73ffffffffffffffffffffffffffffffffffffffff1661161b612030565b73ffffffffffffffffffffffffffffffffffffffff1614611671576040517f08c379a0000000000000000000000000000000000000000000000000000000008152600401611668906147b6565b60405180910390fd5b6000600980549050905060096040518061010001604052808381526020018a81526020018981526020018881526020018781526020018681526020018581526020018460038111156116ec577f4e487b7100000000000000000000000000000000000000000000000000000000600052602160045260246000fd5b815250908060018154018082558091505060019003906000526020600020906008020160009091909190915060008201518160000155602082015181600101908051906020019061173e929190613691565b50604082015181600201908051906020019061175b929190613691565b50606082015181600301556080820151816004015560a0820151816005015560c0820151816006015560e08201518160070160006101000a81548160ff021916908360038111156117d5577f4e487b7100000000000000000000000000000000000000000000000000000000600052602160045260246000fd5b02179055505050600060098281548110611818577f4e487b7100000000000000000000000000000000000000000000000000000000600052603260045260246000fd5b9060005260206000209060080201604051806101000160405290816000820154815260200160018201805461184c90614c25565b80601f016020809104026020016040519081016040528092919081815260200182805461187890614c25565b80156118c55780601f1061189a576101008083540402835291602001916118c5565b820191906000526020600020905b8154815290600101906020018083116118a857829003601f168201915b505050505081526020016002820180546118de90614c25565b80601f016020809104026020016040519081016040528092919081815260200182805461190a90614c25565b80156119575780601f1061192c57610100808354040283529160200191611957565b820191906000526020600020905b81548152906001019060200180831161193a57829003601f168201915b50505050508152602001600382015481526020016004820154815260200160058201548152602001600682015481526020016007820160009054906101000a900460ff1660038111156119d3577f4e487b7100000000000000000000000000000000000000000000000000000000600052602160045260246000fd5b6003811115611a0b577f4e487b7100000000000000000000000000000000000000000000000000000000600052602160045260246000fd5b815250509050611a546040518060400160405280600f81526020017f4372656174656420626f7373202573000000000000000000000000000000000081525082602001516125cb565b505050505050505050565b60098181548110611a6f57600080fd5b9060005260206000209060080201600091509050806000015490806001018054611a9890614c25565b80601f0160208091040260200160405190810160405280929190818152602001828054611ac490614c25565b8015611b115780601f10611ae657610100808354040283529160200191611b11565b820191906000526020600020905b815481529060010190602001808311611af457829003601f168201915b505050505090806002018054611b2690614c25565b80601f0160208091040260200160405190810160405280929190818152602001828054611b5290614c25565b8015611b9f5780601f10611b7457610100808354040283529160200191611b9f565b820191906000526020600020905b815481529060010190602001808311611b8257829003601f168201915b5050505050908060030154908060040154908060050154908060060154908060070160009054906101000a900460ff16905088565b611bdc613717565b6000600b60003373ffffffffffffffffffffffffffffffffffffffff1673ffffffffffffffffffffffffffffffffffffffff1681526020019081526020016000205490506000811115611e2d57600a60008281526020019081526020016000206040518061010001604052908160008201548152602001600182018054611c6290614c25565b80601f0160208091040260200160405190810160405280929190818152602001828054611c8e90614c25565b8015611cdb5780601f10611cb057610100808354040283529160200191611cdb565b820191906000526020600020905b815481529060010190602001808311611cbe57829003601f168201915b50505050508152602001600282018054611cf490614c25565b80601f0160208091040260200160405190810160405280929190818152602001828054611d2090614c25565b8015611d6d5780601f10611d4257610100808354040283529160200191611d6d565b820191906000526020600020905b815481529060010190602001808311611d5057829003601f168201915b50505050508152602001600382015481526020016004820154815260200160058201548152602001600682015481526020016007820160009054906101000a900460ff166003811115611de9577f4e487b7100000000000000000000000000000000000000000000000000000000600052602160045260246000fd5b6003811115611e21577f4e487b7100000000000000000000000000000000000000000000000000000000600052602160045260246000fd5b81525050915050611e3b565b611e35613717565b80925050505b90565b6000806002600084815260200190815260200160002060009054906101000a900473ffffffffffffffffffffffffffffffffffffffff169050600073ffffffffffffffffffffffffffffffffffffffff168173ffffffffffffffffffffffffffffffffffffffff161415611ee7576040517f08c379a0000000000000000000000000000000000000000000000000000000008152600401611ede90614756565b60405180910390fd5b80915050919050565b60008073ffffffffffffffffffffffffffffffffffffffff168273ffffffffffffffffffffffffffffffffffffffff161415611f61576040517f08c379a0000000000000000000000000000000000000000000000000000000008152600401611f5890614736565b60405180910390fd5b600360008373ffffffffffffffffffffffffffffffffffffffff1673ffffffffffffffffffffffffffffffffffffffff168152602001908152602001600020549050919050565b611fb0612753565b73ffffffffffffffffffffffffffffffffffffffff16611fce612030565b73ffffffffffffffffffffffffffffffffffffffff1614612024576040517f08c379a000000000000000000000000000000000000000000000000000000000815260040161201b906147b6565b60405180910390fd5b61202e6000612c19565b565b6000600660009054906101000a900473ffffffffffffffffffffffffffffffffffffffff16905090565b60606001805461206990614c25565b80601f016020809104026020016040519081016040528092919081815260200182805461209590614c25565b80156120e25780601f106120b7576101008083540402835291602001916120e2565b820191906000526020600020905b8154815290600101906020018083116120c557829003601f168201915b5050505050905090565b6120fe6120f7612753565b8383612cdf565b5050565b61211361210d612753565b836128df565b612152576040517f08c379a000000000000000000000000000000000000000000000000000000000815260040161214990614816565b60405180910390fd5b61215e84848484612e4c565b50505050565b60606000600a600084815260200190815260200160002060405180610100016040529081600082015481526020016001820180546121a190614c25565b80601f01602080910402602001604051908101604052809291908181526020018280546121cd90614c25565b801561221a5780601f106121ef5761010080835404028352916020019161221a565b820191906000526020600020905b8154815290600101906020018083116121fd57829003601f168201915b5050505050815260200160028201805461223390614c25565b80601f016020809104026020016040519081016040528092919081815260200182805461225f90614c25565b80156122ac5780601f10612281576101008083540402835291602001916122ac565b820191906000526020600020905b81548152906001019060200180831161228f57829003601f168201915b50505050508152602001600382015481526020016004820154815260200160058201548152602001600682015481526020016007820160009054906101000a900460ff166003811115612328577f4e487b7100000000000000000000000000000000000000000000000000000000600052602160045260246000fd5b6003811115612360577f4e487b7100000000000000000000000000000000000000000000000000000000600052602160045260246000fd5b815250509050600061237184612ea8565b905060006123828360600151612ea8565b905060006123938460800151612ea8565b905060006123a48560a00151612ea8565b905060006123b58660c00151612ea8565b905060006123c68760e00151610c13565b905060006124088860200151888a6040015189898989896040516020016123f49897969594939291906143ad565b604051602081830303815290604052613055565b905060008160405160200161241d9190614482565b6040516020818303038152906040529050809950505050505050505050919050565b6000600560008473ffffffffffffffffffffffffffffffffffffffff1673ffffffffffffffffffffffffffffffffffffffff16815260200190815260200160002060008373ffffffffffffffffffffffffffffffffffffffff1673ffffffffffffffffffffffffffffffffffffffff16815260200190815260200160002060009054906101000a900460ff16905092915050565b6124db612753565b73ffffffffffffffffffffffffffffffffffffffff166124f9612030565b73ffffffffffffffffffffffffffffffffffffffff161461254f576040517f08c379a0000000000000000000000000000000000000000000000000000000008152600401612546906147b6565b60405180910390fd5b600073ffffffffffffffffffffffffffffffffffffffff168173ffffffffffffffffffffffffffffffffffffffff1614156125bf576040517f08c379a00000000000000000000000000000000000000000000000000000000081526004016125b690614636565b60405180910390fd5b6125c881612c19565b50565b61266382826040516024016125e19291906145a1565b6040516020818303038152906040527f4b5c4277000000000000000000000000000000000000000000000000000000007bffffffffffffffffffffffffffffffffffffffffffffffffffffffff19166020820180517bffffffffffffffffffffffffffffffffffffffffffffffffffffffff8381831617835250505050613213565b5050565b6001816000016000828254019250508190555050565b60007f01ffc9a7000000000000000000000000000000000000000000000000000000007bffffffffffffffffffffffffffffffffffffffffffffffffffffffff1916827bffffffffffffffffffffffffffffffffffffffffffffffffffffffff1916149050919050565b60008073ffffffffffffffffffffffffffffffffffffffff166002600084815260200190815260200160002060009054906101000a900473ffffffffffffffffffffffffffffffffffffffff1673ffffffffffffffffffffffffffffffffffffffff1614159050919050565b600033905090565b816004600083815260200190815260200160002060006101000a81548173ffffffffffffffffffffffffffffffffffffffff021916908373ffffffffffffffffffffffffffffffffffffffff160217905550808273ffffffffffffffffffffffffffffffffffffffff166127ce83611e3e565b73ffffffffffffffffffffffffffffffffffffffff167f8c5be1e5ebec7d5bd14f71427d1e84f3dd0314c0f7b2291e5b200ac8c7c3b92560405160405180910390a45050565b600081600001549050919050565b61283c82826040518060200160405280600081525061323c565b5050565b6128da838383604051602401612858939291906145d8565b6040516020818303038152906040527f969cdd03000000000000000000000000000000000000000000000000000000007bffffffffffffffffffffffffffffffffffffffffffffffffffffffff19166020820180517bffffffffffffffffffffffffffffffffffffffffffffffffffffffff8381831617835250505050613213565b505050565b60006128ea826126e7565b612929576040517f08c379a0000000000000000000000000000000000000000000000000000000008152600401612920906146d6565b60405180910390fd5b600061293483611e3e565b90508073ffffffffffffffffffffffffffffffffffffffff168473ffffffffffffffffffffffffffffffffffffffff1614806129a357508373ffffffffffffffffffffffffffffffffffffffff1661298b8461068a565b73ffffffffffffffffffffffffffffffffffffffff16145b806129b457506129b3818561243f565b5b91505092915050565b8273ffffffffffffffffffffffffffffffffffffffff166129dd82611e3e565b73ffffffffffffffffffffffffffffffffffffffff1614612a33576040517f08c379a0000000000000000000000000000000000000000000000000000000008152600401612a2a906147d6565b60405180910390fd5b600073ffffffffffffffffffffffffffffffffffffffff168273ffffffffffffffffffffffffffffffffffffffff161415612aa3576040517f08c379a0000000000000000000000000000000000000000000000000000000008152600401612a9a90614676565b60405180910390fd5b612aae838383613297565b612ab960008261275b565b6001600360008573ffffffffffffffffffffffffffffffffffffffff1673ffffffffffffffffffffffffffffffffffffffff1681526020019081526020016000206000828254612b099190614b16565b925050819055506001600360008473ffffffffffffffffffffffffffffffffffffffff1673ffffffffffffffffffffffffffffffffffffffff1681526020019081526020016000206000828254612b609190614a35565b92505081905550816002600083815260200190815260200160002060006101000a81548173ffffffffffffffffffffffffffffffffffffffff021916908373ffffffffffffffffffffffffffffffffffffffff160217905550808273ffffffffffffffffffffffffffffffffffffffff168473ffffffffffffffffffffffffffffffffffffffff167fddf252ad1be2c89b69c2b068fc378daa952ba7f163c4a11628f55a4df523b3ef60405160405180910390a4505050565b6000600660009054906101000a900473ffffffffffffffffffffffffffffffffffffffff16905081600660006101000a81548173ffffffffffffffffffffffffffffffffffffffff021916908373ffffffffffffffffffffffffffffffffffffffff1602179055508173ffffffffffffffffffffffffffffffffffffffff168173ffffffffffffffffffffffffffffffffffffffff167f8be0079c531659141344cd1fd0a4f28419497f9722a3daafe3b4186f6b6457e060405160405180910390a35050565b8173ffffffffffffffffffffffffffffffffffffffff168373ffffffffffffffffffffffffffffffffffffffff161415612d4e576040517f08c379a0000000000000000000000000000000000000000000000000000000008152600401612d4590614696565b60405180910390fd5b80600560008573ffffffffffffffffffffffffffffffffffffffff1673ffffffffffffffffffffffffffffffffffffffff16815260200190815260200160002060008473ffffffffffffffffffffffffffffffffffffffff1673ffffffffffffffffffffffffffffffffffffffff16815260200190815260200160002060006101000a81548160ff0219169083151502179055508173ffffffffffffffffffffffffffffffffffffffff168373ffffffffffffffffffffffffffffffffffffffff167f17307eab39ab6107e8899845ad3d59bd9653f200f220920489ca2b5937696c3183604051612e3f9190614564565b60405180910390a3505050565b612e578484846129bd565b612e638484848461329c565b612ea2576040517f08c379a0000000000000000000000000000000000000000000000000000000008152600401612e9990614616565b60405180910390fd5b50505050565b60606000821415612ef0576040518060400160405280600181526020017f30000000000000000000000000000000000000000000000000000000000000008152509050613050565b600082905060005b60008214612f22578080612f0b90614c88565b915050600a82612f1b9190614a8b565b9150612ef8565b60008167ffffffffffffffff811115612f64577f4e487b7100000000000000000000000000000000000000000000000000000000600052604160045260246000fd5b6040519080825280601f01601f191660200182016040528015612f965781602001600182028036833780820191505090505b5090505b6000851461304957600182612faf9190614b16565b9150600a85612fbe9190614cd1565b6030612fca9190614a35565b60f81b818381518110613006577f4e487b7100000000000000000000000000000000000000000000000000000000600052603260045260246000fd5b60200101907effffffffffffffffffffffffffffffffffffffffffffffffffffffffffffff1916908160001a905350600a856130429190614a8b565b9450612f9a565b8093505050505b919050565b6060600082519050600081141561307e576040518060200160405280600081525091505061320e565b6000600360028361308f9190614a35565b6130999190614a8b565b60046130a59190614abc565b905060006020826130b69190614a35565b67ffffffffffffffff8111156130f5577f4e487b7100000000000000000000000000000000000000000000000000000000600052604160045260246000fd5b6040519080825280601f01601f1916602001820160405280156131275781602001600182028036833780820191505090505b50905060006040518060600160405280604081526020016155ab604091399050600181016020830160005b868110156131cb5760038101905062ffffff818a015116603f8160121c168401518060081b905060ff603f83600c1c1686015116810190508060081b905060ff603f8360061c1686015116810190508060081b905060ff603f831686015116810190508060e01b90508084526004840193505050613152565b5060038606600181146131e557600281146131f557613200565b613d3d60f01b6002830352613200565b603d60f81b60018303525b508484525050819450505050505b919050565b60008151905060006a636f6e736f6c652e6c6f679050602083016000808483855afa5050505050565b6132468383613433565b613253600084848461329c565b613292576040517f08c379a000000000000000000000000000000000000000000000000000000000815260040161328990614616565b60405180910390fd5b505050565b505050565b60006132bd8473ffffffffffffffffffffffffffffffffffffffff16613601565b15613426578373ffffffffffffffffffffffffffffffffffffffff1663150b7a026132e6612753565b8786866040518563ffffffff1660e01b815260040161330894939291906144bf565b602060405180830381600087803b15801561332257600080fd5b505af192505050801561335357506040513d601f19601f820116820180604052508101906133509190613acf565b60015b6133d6573d8060008114613383576040519150601f19603f3d011682016040523d82523d6000602084013e613388565b606091505b506000815114156133ce576040517f08c379a00000000000000000000000000000000000000000000000000000000081526004016133c590614616565b60405180910390fd5b805181602001fd5b63150b7a0260e01b7bffffffffffffffffffffffffffffffffffffffffffffffffffffffff1916817bffffffffffffffffffffffffffffffffffffffffffffffffffffffff19161491505061342b565b600190505b949350505050565b600073ffffffffffffffffffffffffffffffffffffffff168273ffffffffffffffffffffffffffffffffffffffff1614156134a3576040517f08c379a000000000000000000000000000000000000000000000000000000000815260040161349a90614776565b60405180910390fd5b6134ac816126e7565b156134ec576040517f08c379a00000000000000000000000000000000000000000000000000000000081526004016134e390614656565b60405180910390fd5b6134f860008383613297565b6001600360008473ffffffffffffffffffffffffffffffffffffffff1673ffffffffffffffffffffffffffffffffffffffff16815260200190815260200160002060008282546135489190614a35565b92505081905550816002600083815260200190815260200160002060006101000a81548173ffffffffffffffffffffffffffffffffffffffff021916908373ffffffffffffffffffffffffffffffffffffffff160217905550808273ffffffffffffffffffffffffffffffffffffffff16600073ffffffffffffffffffffffffffffffffffffffff167fddf252ad1be2c89b69c2b068fc378daa952ba7f163c4a11628f55a4df523b3ef60405160405180910390a45050565b600080823b905060008111915050919050565b604051806101000160405280600081526020016060815260200160608152602001600081526020016000815260200160008152602001600081526020016000600381111561368b577f4e487b7100000000000000000000000000000000000000000000000000000000600052602160045260246000fd5b81525090565b82805461369d90614c25565b90600052602060002090601f0160209004810192826136bf5760008555613706565b82601f106136d857805160ff1916838001178555613706565b82800160010185558215613706579182015b828111156137055782518255916020019190600101906136ea565b5b5090506137139190613794565b5090565b604051806101000160405280600081526020016060815260200160608152602001600081526020016000815260200160008152602001600081526020016000600381111561378e577f4e487b7100000000000000000000000000000000000000000000000000000000600052602160045260246000fd5b81525090565b5b808211156137ad576000816000905550600101613795565b5090565b60006137c46137bf84614946565b614921565b9050828152602081018484840111156137dc57600080fd5b6137e7848285614be3565b509392505050565b60006138026137fd84614977565b614921565b90508281526020810184848401111561381a57600080fd5b613825848285614be3565b509392505050565b60008135905061383c81615511565b92915050565b60008135905061385181615528565b92915050565b6000813590506138668161553f565b92915050565b60008151905061387b8161553f565b92915050565b600082601f83011261389257600080fd5b81356138a28482602086016137b1565b91505092915050565b6000813590506138ba81615556565b92915050565b600082601f8301126138d157600080fd5b81356138e18482602086016137ef565b91505092915050565b6000813590506138f981615566565b92915050565b60006020828403121561391157600080fd5b600061391f8482850161382d565b91505092915050565b6000806040838503121561393b57600080fd5b60006139498582860161382d565b925050602061395a8582860161382d565b9150509250929050565b60008060006060848603121561397957600080fd5b60006139878682870161382d565b93505060206139988682870161382d565b92505060406139a9868287016138ea565b9150509250925092565b600080600080608085870312156139c957600080fd5b60006139d78782880161382d565b94505060206139e88782880161382d565b93505060406139f9878288016138ea565b925050606085013567ffffffffffffffff811115613a1657600080fd5b613a2287828801613881565b91505092959194509250565b60008060408385031215613a4157600080fd5b6000613a4f8582860161382d565b9250506020613a6085828601613842565b9150509250929050565b60008060408385031215613a7d57600080fd5b6000613a8b8582860161382d565b9250506020613a9c858286016138ea565b9150509250929050565b600060208284031215613ab857600080fd5b6000613ac684828501613857565b91505092915050565b600060208284031215613ae157600080fd5b6000613aef8482850161386c565b91505092915050565b600060208284031215613b0a57600080fd5b6000613b18848285016138ab565b91505092915050565b600080600080600080600060e0888a031215613b3c57600080fd5b600088013567ffffffffffffffff811115613b5657600080fd5b613b628a828b016138c0565b975050602088013567ffffffffffffffff811115613b7f57600080fd5b613b8b8a828b016138c0565b9650506040613b9c8a828b016138ea565b9550506060613bad8a828b016138ea565b9450506080613bbe8a828b016138ea565b93505060a0613bcf8a828b016138ea565b92505060c0613be08a828b016138ab565b91505092959891949750929550565b600060208284031215613c0157600080fd5b6000613c0f848285016138ea565b91505092915050565b6000613c248383614221565b905092915050565b613c3581614b4a565b82525050565b6000613c46826149b8565b613c5081856149e6565b935083602082028501613c62856149a8565b8060005b85811015613c9e5784840389528151613c7f8582613c18565b9450613c8a836149d9565b925060208a01995050600181019050613c66565b50829750879550505050505092915050565b613cb981614b5c565b82525050565b6000613cca826149c3565b613cd481856149f7565b9350613ce4818560208601614bf2565b613ced81614ded565b840191505092915050565b613d0181614bd1565b82525050565b613d1081614bd1565b82525050565b6000613d21826149ce565b613d2b8185614a08565b9350613d3b818560208601614bf2565b613d4481614ded565b840191505092915050565b6000613d5a826149ce565b613d648185614a19565b9350613d74818560208601614bf2565b613d7d81614ded565b840191505092915050565b6000613d93826149ce565b613d9d8185614a2a565b9350613dad818560208601614bf2565b80840191505092915050565b6000613dc6602d83614a2a565b9150613dd182614dfe565b602d82019050919050565b6000613de9600583614a2a565b9150613df482614e4d565b600582019050919050565b6000613e0c602683614a2a565b9150613e1782614e76565b602682019050919050565b6000613e2f603283614a19565b9150613e3a82614ec5565b604082019050919050565b6000613e52602683614a19565b9150613e5d82614f14565b604082019050919050565b6000613e75601c83614a19565b9150613e8082614f63565b602082019050919050565b6000613e98602483614a19565b9150613ea382614f8c565b604082019050919050565b6000613ebb601983614a19565b9150613ec682614fdb565b602082019050919050565b6000613ede601883614a19565b9150613ee982615004565b602082019050919050565b6000613f01602683614a2a565b9150613f0c8261502d565b602682019050919050565b6000613f24602c83614a19565b9150613f2f8261507c565b604082019050919050565b6000613f47600383614a2a565b9150613f52826150cb565b600382019050919050565b6000613f6a601b83614a19565b9150613f75826150f4565b602082019050919050565b6000613f8d603883614a2a565b9150613f988261511d565b603882019050919050565b6000613fb0603883614a19565b9150613fbb8261516c565b604082019050919050565b6000613fd3604b83614a2a565b9150613fde826151bb565b604b82019050919050565b6000613ff6602a83614a19565b915061400182615230565b604082019050919050565b6000614019602983614a19565b91506140248261527f565b604082019050919050565b600061403c602083614a19565b9150614047826152ce565b602082019050919050565b600061405f602c83614a19565b915061406a826152f7565b604082019050919050565b6000614082602083614a19565b915061408d82615346565b602082019050919050565b60006140a5602983614a19565b91506140b08261536f565b604082019050919050565b60006140c8600a83614a2a565b91506140d3826153be565b600a82019050919050565b60006140eb602183614a19565b91506140f6826153e7565b604082019050919050565b600061410e601d83614a2a565b915061411982615436565b601d82019050919050565b6000614131603383614a2a565b915061413c8261545f565b603382019050919050565b6000614154603183614a19565b915061415f826154ae565b604082019050919050565b600061010083016000830151614183600086018261438f565b506020830151848203602086015261419b8282613d16565b915050604083015184820360408601526141b58282613d16565b91505060608301516141ca606086018261438f565b5060808301516141dd608086018261438f565b5060a08301516141f060a086018261438f565b5060c083015161420360c086018261438f565b5060e083015161421660e0860182613cf8565b508091505092915050565b60006101008301600083015161423a600086018261438f565b50602083015184820360208601526142528282613d16565b9150506040830151848203604086015261426c8282613d16565b9150506060830151614281606086018261438f565b506080830151614294608086018261438f565b5060a08301516142a760a086018261438f565b5060c08301516142ba60c086018261438f565b5060e08301516142cd60e0860182613cf8565b508091505092915050565b6000610100830160008301516142f1600086018261438f565b50602083015184820360208601526143098282613d16565b915050604083015184820360408601526143238282613d16565b9150506060830151614338606086018261438f565b50608083015161434b608086018261438f565b5060a083015161435e60a086018261438f565b5060c083015161437160c086018261438f565b5060e083015161438460e0860182613cf8565b508091505092915050565b61439881614bc7565b82525050565b6143a781614bc7565b82525050565b60006143b8826140bb565b91506143c4828b613d88565b91506143cf82613f3a565b91506143db828a613d88565b91506143e682613fc6565b91506143f28289613d88565b91506143fd82613f80565b91506144098288613d88565b915061441482613dff565b91506144208287613d88565b915061442b82613ef4565b91506144378286613d88565b915061444282614124565b915061444e8285613d88565b915061445982613db9565b91506144658284613d88565b915061447082613ddc565b91508190509998505050505050505050565b600061448d82614101565b91506144998284613d88565b915081905092915050565b60006020820190506144b96000830184613c2c565b92915050565b60006080820190506144d46000830187613c2c565b6144e16020830186613c2c565b6144ee604083018561439e565b81810360608301526145008184613cbf565b905095945050505050565b60006060820190506145206000830186613c2c565b61452d602083018561439e565b61453a604083018461439e565b949350505050565b6000602082019050818103600083015261455c8184613c3b565b905092915050565b60006020820190506145796000830184613cb0565b92915050565b600060208201905081810360008301526145998184613d4f565b905092915050565b600060408201905081810360008301526145bb8185613d4f565b905081810360208301526145cf8184613d4f565b90509392505050565b600060608201905081810360008301526145f28186613d4f565b9050614601602083018561439e565b61460e604083018461439e565b949350505050565b6000602082019050818103600083015261462f81613e22565b9050919050565b6000602082019050818103600083015261464f81613e45565b9050919050565b6000602082019050818103600083015261466f81613e68565b9050919050565b6000602082019050818103600083015261468f81613e8b565b9050919050565b600060208201905081810360008301526146af81613eae565b9050919050565b600060208201905081810360008301526146cf81613ed1565b9050919050565b600060208201905081810360008301526146ef81613f17565b9050919050565b6000602082019050818103600083015261470f81613f5d565b9050919050565b6000602082019050818103600083015261472f81613fa3565b9050919050565b6000602082019050818103600083015261474f81613fe9565b9050919050565b6000602082019050818103600083015261476f8161400c565b9050919050565b6000602082019050818103600083015261478f8161402f565b9050919050565b600060208201905081810360008301526147af81614052565b9050919050565b600060208201905081810360008301526147cf81614075565b9050919050565b600060208201905081810360008301526147ef81614098565b9050919050565b6000602082019050818103600083015261480f816140de565b9050919050565b6000602082019050818103600083015261482f81614147565b9050919050565b60006020820190508181036000830152614850818461416a565b905092915050565b6000602082019050818103600083015261487281846142d8565b905092915050565b600060208201905061488f600083018461439e565b92915050565b6000610100820190506148ab600083018b61439e565b81810360208301526148bd818a613d4f565b905081810360408301526148d18189613d4f565b90506148e0606083018861439e565b6148ed608083018761439e565b6148fa60a083018661439e565b61490760c083018561439e565b61491460e0830184613d07565b9998505050505050505050565b600061492b61493c565b90506149378282614c57565b919050565b6000604051905090565b600067ffffffffffffffff82111561496157614960614dbe565b5b61496a82614ded565b9050602081019050919050565b600067ffffffffffffffff82111561499257614991614dbe565b5b61499b82614ded565b9050602081019050919050565b6000819050602082019050919050565b600081519050919050565b600081519050919050565b600081519050919050565b6000602082019050919050565b600082825260208201905092915050565b600082825260208201905092915050565b600082825260208201905092915050565b600082825260208201905092915050565b600081905092915050565b6000614a4082614bc7565b9150614a4b83614bc7565b9250827fffffffffffffffffffffffffffffffffffffffffffffffffffffffffffffffff03821115614a8057614a7f614d02565b5b828201905092915050565b6000614a9682614bc7565b9150614aa183614bc7565b925082614ab157614ab0614d31565b5b828204905092915050565b6000614ac782614bc7565b9150614ad283614bc7565b9250817fffffffffffffffffffffffffffffffffffffffffffffffffffffffffffffffff0483118215151615614b0b57614b0a614d02565b5b828202905092915050565b6000614b2182614bc7565b9150614b2c83614bc7565b925082821015614b3f57614b3e614d02565b5b828203905092915050565b6000614b5582614ba7565b9050919050565b60008115159050919050565b60007fffffffff0000000000000000000000000000000000000000000000000000000082169050919050565b6000819050614ba2826154fd565b919050565b600073ffffffffffffffffffffffffffffffffffffffff82169050919050565b6000819050919050565b6000614bdc82614b94565b9050919050565b82818337600083830152505050565b60005b83811015614c10578082015181840152602081019050614bf5565b83811115614c1f576000848401525b50505050565b60006002820490506001821680614c3d57607f821691505b60208210811415614c5157614c50614d8f565b5b50919050565b614c6082614ded565b810181811067ffffffffffffffff82111715614c7f57614c7e614dbe565b5b80604052505050565b6000614c9382614bc7565b91507fffffffffffffffffffffffffffffffffffffffffffffffffffffffffffffffff821415614cc657614cc5614d02565b5b600182019050919050565b6000614cdc82614bc7565b9150614ce783614bc7565b925082614cf757614cf6614d31565b5b828206905092915050565b7f4e487b7100000000000000000000000000000000000000000000000000000000600052601160045260246000fd5b7f4e487b7100000000000000000000000000000000000000000000000000000000600052601260045260246000fd5b7f4e487b7100000000000000000000000000000000000000000000000000000000600052602160045260246000fd5b7f4e487b7100000000000000000000000000000000000000000000000000000000600052602260045260246000fd5b7f4e487b7100000000000000000000000000000000000000000000000000000000600052604160045260246000fd5b6000601f19601f8301169050919050565b7f7d2c20207b2274726169745f74797065223a20225370656369616c204d6f766560008201527f222c202276616c7565223a202200000000000000000000000000000000000000602082015250565b7f227d205d7d000000000000000000000000000000000000000000000000000000600082015250565b7f7d2c207b202274726169745f74797065223a202244616d616765222c2022766160008201527f6c7565223a200000000000000000000000000000000000000000000000000000602082015250565b7f4552433732313a207472616e7366657220746f206e6f6e20455243373231526560008201527f63656976657220696d706c656d656e7465720000000000000000000000000000602082015250565b7f4f776e61626c653a206e6577206f776e657220697320746865207a65726f206160008201527f6464726573730000000000000000000000000000000000000000000000000000602082015250565b7f4552433732313a20746f6b656e20616c7265616479206d696e74656400000000600082015250565b7f4552433732313a207472616e7366657220746f20746865207a65726f2061646460008201527f7265737300000000000000000000000000000000000000000000000000000000602082015250565b7f4552433732313a20617070726f766520746f2063616c6c657200000000000000600082015250565b7f426f7373207479706520646f6573206e6f742065786973740000000000000000600082015250565b7f7d2c207b2274726169745f74797065223a2022446566656e6365222c2022766160008201527f6c7565223a200000000000000000000000000000000000000000000000000000602082015250565b7f4552433732313a206f70657261746f7220717565727920666f72206e6f6e657860008201527f697374656e7420746f6b656e0000000000000000000000000000000000000000602082015250565b7f2020230000000000000000000000000000000000000000000000000000000000600082015250565b7f427261776c6572207479706520646f6573206e6f742065786973740000000000600082015250565b7f222c202261747472696275746573223a205b207b202274726169745f7479706560008201527f223a2022546f74616c5f4850222c202276616c7565223a200000000000000000602082015250565b7f4552433732313a20617070726f76652063616c6c6572206973206e6f74206f7760008201527f6e6572206e6f7220617070726f76656420666f7220616c6c0000000000000000602082015250565b7f222c20226465736372697074696f6e223a20225468652066697273742067656e60008201527f65726174696f6e206f6620626c6f636b636861696e20627261776c657273222c60208201527f2022696d616765223a2022000000000000000000000000000000000000000000604082015250565b7f4552433732313a2062616c616e636520717565727920666f7220746865207a6560008201527f726f206164647265737300000000000000000000000000000000000000000000602082015250565b7f4552433732313a206f776e657220717565727920666f72206e6f6e657869737460008201527f656e7420746f6b656e0000000000000000000000000000000000000000000000602082015250565b7f4552433732313a206d696e7420746f20746865207a65726f2061646472657373600082015250565b7f4552433732313a20617070726f76656420717565727920666f72206e6f6e657860008201527f697374656e7420746f6b656e0000000000000000000000000000000000000000602082015250565b7f4f776e61626c653a2063616c6c6572206973206e6f7420746865206f776e6572600082015250565b7f4552433732313a207472616e73666572206f6620746f6b656e2074686174206960008201527f73206e6f74206f776e0000000000000000000000000000000000000000000000602082015250565b7f7b226e616d65223a202200000000000000000000000000000000000000000000600082015250565b7f4552433732313a20617070726f76616c20746f2063757272656e74206f776e6560008201527f7200000000000000000000000000000000000000000000000000000000000000602082015250565b7f646174613a6170706c69636174696f6e2f6a736f6e3b6261736536342c000000600082015250565b7f7d2c20207b2274726169745f74797065223a2022437269746963616c2048697460008201527f204368616e6365222c202276616c7565223a2000000000000000000000000000602082015250565b7f4552433732313a207472616e736665722063616c6c6572206973206e6f74206f60008201527f776e6572206e6f7220617070726f766564000000000000000000000000000000602082015250565b6004811061550e5761550d614d60565b5b50565b61551a81614b4a565b811461552557600080fd5b50565b61553181614b5c565b811461553c57600080fd5b50565b61554881614b68565b811461555357600080fd5b50565b6004811061556357600080fd5b50565b61556f81614bc7565b811461557a57600080fd5b5056fe4d696e74656420627261776c6572206e756d6265723a25732c207768696368206973206f6620747970652025734142434445464748494a4b4c4d4e4f505152535455565758595a6162636465666768696a6b6c6d6e6f707172737475767778797a303132333435363738392b2fa2646970667358221220e7da3397499e327c704ad20d77a8730ec36e4b711873113985ea6aaa4aa49ca364736f6c63430008040033",
  "linkReferences": {},
  "deployedLinkReferences": {}
}